:100000000C9445040C9462040C9462040C94FD1D41
:100010000C9462040C9462040C9462040C946204C8
:100020000C9462040C9462040C949B240C946F2531
:100030000C94F71F0C9462040C9462040C946204F8
:100040000C9462040C9462040C9462040C94620498
:100050000C9462040C9499200C9462040C94620435
:100060000C9462040C9462040C9462040C94620478
:100070000C9462040C9462040C9462040C94620468
:100080000C9462040C9462040C9462040C94620458
:100090000C9462040C9462040C9462040C94620448
:1000A0000C9462040C9462040C94620429001E00F7
:1000B0001F002000210022002B0014001A0008005D
:1000C00015001700E00004001600070009000A00F0
:1000D000E1001D001B000600190005000000E20001
:1000E000E30001512C002F003500270026002500D9
:1000F000240023002D00130012000C0018001C0027
:10010000340033000F000E000D000B00E500380036
:1001100037003600100011000000E7002A000251ED
:100120002800300001000100010001000100010071
:100130003A003B003C003D003E003F0035001E02FF
:100140001F02200221022202010001000100010021
:100150000100010000000100010001000100010098
:100160000100010001000100010001004500440000
:1001700043004200410040003502270226022502CA
:1001800024022302310230022F022E022D0200002F
:100190000000010001000100010001000100010058
:1001A000010001000100010035001E001F002000B9
:1001B000210022003A003B003C003D003E003F0091
:1001C000400041004200430044004500000001009F
:1001D0000100010001000100010001000100010017
:1001E0000100010001002700260025002400230053
:1001F00000004F005200510050000000310030005C
:100200002F002E002D002E02000001000100010031
:1002100001000100000000000000000000000000DC
:1002200000000000000000000000000000000000CE
:1002300000000000000000000000000000000000BE
:1002400000000000000001000100010001000000AA
:10025000000000000000000000000000000000009E
:10026000000000000000000000000000000000008E
:10027000000000000000000000000000000000007E
:1002800000000100010001000100000000AE00AF0D
:1002900000DA0281FFD9F1DB20A4A62EAF00A0C0B6
:1002A00000A1C800AED580A81FD300408D14200047
:1002B0000000000000003E5B4F5B3E003E6B4F6B5A
:1002C0003E001C3E7C3E1C00183C7E3C18001C5727
:1002D0007D571C001C5E7F5E1C0000183C1800004F
:1002E000FFE7C3E7FF00001824180000FFE7DBE783
:1002F000FF0030483A060E00262979292600407F63
:1003000005050700407F05253F005A3CE73C5A00A1
:100310007F3E1C1C0800081C1C3E7F0014227F220C
:1003200014005F5F005F5F0006097F017F000066C9
:1003300089956A0060606060600094A2FFA29400EA
:1003400008047E04080010207E20100008082A1CE3
:100350000800081C2A0808001E10101010000C1EAF
:100360000C1E0C0030383E383000060E3E0E0600E3
:1003700000000000000000005F0000000007000710
:100380000000147F147F1400242A7F2A12002313F4
:100390000864620036495620500000080703000038
:1003A000001C224100000041221C00002A1C7F1C6E
:1003B0002A0008083E080800008070300000080885
:1003C0000808080000006060000020100804020017
:1003D0003E5149453E0000427F4000007249494974
:1003E00046002141494D33001814127F1000274563
:1003F000454539003C4A494931004121110907006E
:10040000364949493600464949291E000000140072
:1004100000000040340000000008142241001414C1
:1004200014141400004122140800020159090600A6
:100430003E415D594E007C1211127C007F494949B2
:1004400036003E41414122007F4141413E007F490B
:10045000494941007F09090901003E4141517300AA
:100460007F0808087F0000417F4100002040413F95
:1004700001007F08142241007F40404040007F027D
:100480001C027F007F0408107F003E4141413E0076
:100490007F09090906003E4151215E007F091929A3
:1004A000460026494949320003017F0103003F40CD
:1004B00040403F001F2040201F003F4038403F0089
:1004C0006314081463000304780403006159494D60
:1004D0004300007F41414100020408102000004118
:1004E00041417F00040201020400404040404000BE
:1004F0000003070800002054547840007F2844443B
:100500003800384444442800384444287F00385494
:100510005454180000087E0902001824241C780096
:100520007F080404780000447D4000002040403DE6
:1005300000007F102844000000417F4000007C0440
:10054000780478007C080404780038444444380077
:100550007C1824241800182424187C007C08040427
:10056000080048545454240004043F4424003C40F0
:1005700040207C001C2040201C003C4030403C00BF
:100580004428102844004C9090907C004464544CC3
:1005900044000008364100000000770000000041E0
:1005A000360800000201020402003C2623263C001B
:1005B000000000000080808080000000000080E0DB
:1005C00070180C1830E080000010F890103078306F
:1005D00010B8FC3810000000000000F8FCF8000023
:1005E00000000000000000000000001C9C1C000037
:1005F0000000F8FCF80000000000001CFCF8C0003F
:10060000000000000080E0F87C1C000000F0FCFC12
:10061000FC1C1C1C1C1C1C1C1C000000000000C03E
:10062000F0F8381C1C1C1C1C1C3CF8F0E000E0F02E
:10063000F0F0E0ECEEF7F37020007C7C7C7E007E36
:100640007E7E7F7F7F000080C0E07E5B4F5BFEC0D0
:100650000000C000DCD7DEDEDED7DC00C00000001A
:10066000000000000000000000000000000000008A
:1006700000000000000FBCE0818181838382870C31
:10068000183060C000001FFE90B9FFBB91983C1865
:1006900011133F1100000000000000FFFFFF0000E9
:1006A0000000000000000000000000FFFFFF00004D
:1006B0000000FFFFFF0000000000000000030F7FAC
:1006C000F8E080F0FC3F0F0100000000003F3F3FDA
:1006D0001C1C1C1C1C3C78F8F0E08000000000C3CF
:1006E000E7FF7E3C3878787070F8FFDF87000F1FD7
:1006F0003F7F7F7F7F7F3F1E0C001F1F1F3F003FFC
:100700003F3F7F7F7F00307B7F7830202030787FB5
:100710003B0003000F7F0F0F0F7F0F00030000004F
:1007200000000000000000000000000000000000C9
:10073000183C24666341C18180808080808081C1B3
:100740004162386C4CC68181808080808081C14349
:1007500062361C1800000000000000FFFFFFC0C050
:10076000C0C0C0C0C0C0C0800000007FFF7F0000CC
:1007700000007FFFFFC080000000E0E0C0C0C0E0DC
:10078000F97F1F0700000000000000000070F0E08B
:10079000E0C0C0C0C0E0F0F87F3F0F0000000F3F96
:1007A0007FF9E0E0C0C0C0C0C0E0F97F3F1F00009B
:1007B0000000000000000000000000000000000039
:1007C0000000000000000000000000000000000029
:1007D0000000000000000000000000000000000019
:1007E0000000000000000000000000000000000009
:1007F0000E034C0069006C007900350038000000E1
:1008000010036C0069006C00690075006D007300D6
:1008100000000403090409022200010100A0FA09F2
:10082000040000010301010009211101000122401F
:100830000007058103080001120100020000000802
:10084000D8042DEB00010102000105010906A101F8
:10085000050719E029E715002501950875018102B2
:100860009501750881010507190029FF150026FF6C
:10087000009506750881000508190129059505757B
:10088000019102950175039101C011241FBECFEFA4
:10089000DAE0DEBFCDBF12E0A0E0B1E0EEE5F5E5C5
:1008A00002C005900D92AC31B107D9F725E0ACE15B
:1008B000B2E001C01D92A239B207E1F70E94FF1613
:1008C0000C94972A0C940000809177029091780202
:1008D000A0917902B0917A0284309105A105B10509
:1008E000E1F128F50097A105B10571F16DE871E01E
:1008F00082309105A105B10549F1BF93AF939F9354
:100900008F9388EA91E09F938F931F9288E18F9352
:1009100085E493E09F938F930E947F278DB79EB7C6
:100920000A960FB6F8949EBF0FBE8DBF13C08830D5
:100930009105A105B10529F08E309105A105B105FC
:10094000E1F66AE971E002C061E771E085E493E0F5
:100950000E94782785E493E0089560E871E0F6CF7F
:1009600080E091E00895CF93C0E28C33910520F4AC
:10097000FC01E653FE4FC0811F92CF939F938F934C
:10098000FB0180811F928F9381811F928F9389EB4E
:1009900091E09F938F931F9288E18F9385E392E07C
:1009A0009F938F930E947F278DB79EB70E960FB6A9
:1009B000F8949EBF0FBE8DBF80911E0290911F02C2
:1009C000449761F410921F0210921E02E0E2F2E0DE
:1009D00080E2819392E0E433F907D9F780911E0217
:1009E00090911F02FC01E05EFD4FC0830196909341
:1009F0001F0280931E02CF91089585E392E008952F
:100A000080E292E008950F9303E022E041E00E942B
:100A100087050F910895CF93C82F0E94CC148111A0
:100A200001C0C2E08C2FCF9108950E94CC1488237E
:100A300089F00E94640460E00E94B1180E94FD04E5
:100A400060E00E94B1180E94000560E00E94B118A9
:100A500080E008950E94B00460E00E949518F8CFED
:100A6000FB01228121110E94B30481E0089581E0FD
:100A700008950C94300508950C943B051F93CF9373
:100A8000DF9300D000D00F92CDB7DEB749835A83F1
:100A90006B8330914E0289819A8131111DC066238A
:100AA000B9F02223A9F00E94220B182F682F898108
:100AB0009A810E94CB0A69817A81812F0F900F90D1
:100AC0000F900F900F90DF91CF911F910C94AF1169
:100AD0000E94F90A182FEFCF0E94220B69817A81B8
:100AE000EDCFFC01262F4081518162817381848189
:100AF0000C943E0581E00895CF93DF93EC0160E014
:100B00000E947105BE01DF91CF910C943C058F923C
:100B10009F92AF92BF92CF92DF92EF92FF920F938C
:100B20001F936B017C0181E090E0A0E0B0E04C01FC
:100B30005D0104C0880C991CAA1CBB1C4A95D2F705
:100B4000B501A4014C015D0104C0880C991CAA1CCC
:100B5000BB1C2A95D2F7482959296A297B2904C048
:100B6000880F991FAA1FBB1F0A95D2F78A019B0104
:100B70000C211D212E213F210417150726073707B9
:100B800089F48C299D29AE29BF29BC01CD011F9173
:100B90000F91FF90EF90DF90CF90BF90AF909F901C
:100BA0008F90089580959095A095B0958C219D216A
:100BB000AE21BF21EACF0C940A130C940D130895B3
:100BC0000E947A090E94DF052FEF84E39CE0215008
:100BD00080409040E1F700C000000C94BD200F93CE
:100BE0001F93CF93DF938C0161E00E947105EC01AC
:100BF000B8010E9439058823A9F1B801CE010E94ED
:100C0000FC1B882379F1B801CE010E94291A8823A0
:100C100049F1B801CE010E94661B882319F1F80141
:100C20008281882361F0CB35FDE5DF0721F170F487
:100C3000C115ECE5DE07A1F0CF3DDC45C9F0C801E8
:100C4000DF91CF911F910F910C943705CC358DE535
:100C5000D807A1F0CD35DD4591F70E94450FEFCFC4
:100C60000E94E00580E0DF91CF911F910F910895E0
:100C70000E94F90FF7CF0E944E0FE1CF0E94510F53
:100C8000DECF0E94DC1F0E945B060C94D2190E94EA
:100C90005E060C94E01F08950C944B0681E00895C5
:100CA0000C944E060895CF93C82F0E944C068C2FAB
:100CB000CF910C94500680E00C9453060E94231FA1
:100CC0000C9453060E94231F90914D02981721F017
:100CD00080934D020C9453060895CF93DF93CDB7C4
:100CE000DEB72B970FB6F894DEBF0FBECDBF4F8394
:100CF000588769877A878B8761110E94930E1E82BD
:100D00001D8285E0FE013796DE01119601900D925D
:100D10008A95E1F78C819D81892B89F449815A81DB
:100D20006B817C818D819E810E94B40D2B960FB6C4
:100D3000F894DEBF0FBECDBFDF91CF9108958981BA
:100D40009A8189238F3F51F3CE0101960E947A0543
:100D50008111E4CFEBCFFC01808191810C94640B75
:100D6000CF93C82F882329F18CEF8C0F813AA0F400
:100D70006C2F80914201909143010E947F1F882334
:100D800029F08C2F0E94550E0E94B30E8C2F0E94CA
:100D90004E0ECF910C94B30E80E28C0F883048F445
:100DA000C77081E001C0880FCA95EAF70E94760EED
:100DB000F0CFCF910895882329F19CEF980F913AB5
:100DC00020F40E94550E0C94B30E90E2980F9830C8
:100DD00050F4877091E001C0990F8A95EAF7892F46
:100DE0000E947C0EF0CF9BE5980F933020F490E0AA
:100DF00080E00C94411F885A873120F490E080E015
:100E00000C94571F08951F93CF93DF93182FEB0176
:100E10000E94B006209731F4812FDF91CF911F916E
:100E20000C94DB068FE99FE00197F1F700C000000A
:100E30002197F0CF70E060E0893311F460E570E055
:100E40000C940307882321F00E94760E0C94B30EB5
:100E50000895882321F00E947C0E0C94B30E08950F
:100E6000BF92CF92DF92EF92FF920F931F93CF9397
:100E7000DF936C01D62FC72FFC011281F580F2940D
:100E80009FE0F9220E946C0EE82E8823B9F0E12E33
:100E90001123A1F08C2F807F803421F080E28D0F10
:100EA0008830D0F08091620382FD16C082E00E94FB
:100EB000140F0E946C0E91E0E82EE926BC2EB2942D
:100EC0008FE0B822FBE0FB1508F468C0EB2DF0E0E2
:100ED000E756F54D0C945327E12CF0CF0C2F0F70F3
:100EE000C07F11F00295007F112399F0002359F083
:100EF00080E28D0F883010F0D11107C0802F0E9442
:100F0000760E0E94B30E8D2F41C0802F0E94860E58
:100F1000F8CF8D2F0E94DB06002309F43FC080E24A
:100F20008D0F883010F0D11104C0802F0E947C0EEC
:100F300003C0802F0E948C0E0E94B30E2FC00C2F76
:100F40000F70C07FC03211F00295007FDD2381F069
:100F5000D13009F469C0112309F473C0FF2009F4EA
:100F600069C0F601858180FFCECF8F70858362C016
:100F70008091620382FF38C0112359F0002329F0C9
:100F8000802F0E94760E0E94B30E80E00E94B00671
:100F900005C080E00E94DB060111C7CFEB2DE850B1
:100FA000FF0B349720F40E94231F0E945306EE206B
:100FB00009F44BC10E94680E80FD47C1F601128200
:100FC0000E94620E0E942F0AC6010E9446090E94DA
:100FD000620EDF91CF911F910F91FF90EF90DF9004
:100FE000CF90BF900C94500A112389F0F11006C0E5
:100FF0000E94960E802B0E942207D0CF21E0F21291
:10100000F7CF0E94960E802B0E949C0EC7CFF11046
:1010100006C00E94A90E802F0E942907BFCF31E091
:10102000F31609F4BBCFF5CF112331F085E08F150E
:1010300008F4B4CF802FDFCF94E09F1508F4AECF33
:10104000EACFFF2041F3D93349F4FFEF27EE33E035
:10105000F15020403040E1F700C000008D2F0E9489
:10106000DB069CCF8C2F837009F041C0111196CF05
:101070004D2F429546954770440F440F0D2F0F702A
:1010800010E030E020E0042E04C0000F111F221FEA
:10109000331F0A94D2F760E070E0CB01D4FF0FC099
:1010A0006FE070E080E090E004C0660F771F881F5B
:1010B000991F4A95D2F76095709580959095C69541
:1010C000C695C370602B712B822B932BC23049F0D5
:1010D00058F4C13019F00E94E30960CF0E94D10991
:1010E0005DCF0E94F5095ACF0E94CF0957CF869550
:1010F000112311F08C2F8170882309F44FCF4D2FCD
:10110000429546954770440F440F0D2F0F7010E025
:1011100030E020E0042E04C0000F111F221F331FF7
:101120000A94D2F760E070E0CB01D4FF0FC06FE00B
:1011300070E080E090E004C0660F771F881F991F61
:101140004A95D2F76095709580959095C695C6950D
:10115000C370602B712B822B932BC23049F058F453
:10116000C13019F00E94A60A19CF0E94940A16CF26
:101170000E94B80A13CF0E94090A10CFCF70112322
:1011800029F08C2F0E942F0A8D2F35CF8D2F0E9492
:1011900029078C2F0E94500A01CFD23F51F160F4F1
:1011A000D03FB9F0D13F81F0112309F449C0F110CB
:1011B000AACE8C2F8F7121C0D33F11F1D43FA1F75C
:1011C0008091620382FF26C08C2F8F71112311F34F
:1011D00014C0112349F084E08F1508F4DFCE8C2F62
:1011E0008F710E94730ADACE95E09F1508F4D6CE6F
:1011F000F6CF8C2F8F711111CDCF0E942F0ACECE3A
:10120000112329F08C2F8F710E941A0AC7CE0E94D9
:10121000150AC4CE112349F0CF718C2F0E942F0ADA
:1012200063E08C2F0E94F90EB9CE81E00E94140F6A
:10123000E1E0EF1508F0B2CE82E00E94140FAECECE
:10124000F11001CF8C2F8F71A5CFDF91CF911F911E
:101250000F91FF90EF90DF90CF90BF9008950F9384
:101260001F93CF93DF93EC01688179818A810E947B
:101270006E0B8C010E94CA0A0E94CE09B801CE01F1
:10128000DF91CF911F910F910C943007CF93DF9393
:10129000EC018B819C81892B29F08881998189239C
:1012A0008F3F59F4DF91CF910895CE010E942F090D
:1012B000CE01DF91CF910C947C05CE010E94EF0509
:1012C0008111F3CF0E946C0E882361F38A818823F9
:1012D00049F38091620382FDE5CF82E0DF91CF91F7
:1012E0000C94140F0E94930E0C94B30E0E945C0E8B
:1012F0000C9472090E94830E0C94760992959F704B
:10130000963091F058F4925F9F70923058F4803F7D
:1013100019F030F4883E30F481E008959A5FF4CFFC
:10132000843FD1F380E00895883EB0F3813FD1F748
:10133000F3CFFC01808191810E94640B0C947E09A3
:10134000CF93DF9300D000D00F92CDB7DEB70F90D0
:101350000F900F900F900F90DF91CF910895CF9342
:10136000DF9300D000D000D0CDB7DEB726960FB601
:10137000F894DEBF0FBECDBFDF91CF9108950895E1
:101380000C94BF090E94C00960937B0270937C0299
:1013900080937D0290937E020C94720908950C94C0
:1013A000C2090F931F9300917B0210917C02209140
:1013B0007D0230917E02602B712B822B932B1F912B
:1013C0000F910C94C2090F931F9300917B0210910F
:1013D0007C0220917D0230917E0260237123822362
:1013E00093231F910F910C94C2090F931F930091A7
:1013F0007B0210917C0220917D0230917E02602759
:101400007127822793271F910F910C94C2090C9486
:1014100003050E94070A6093770270937802809315
:10142000790290937A020C94720960E070E0CB012B
:101430000C94090A0F931F9341E050E060E070E0C4
:101440008A019B0104C0000F111F221F331F8A95C0
:10145000D2F7C901B8011F910F910C94090A0F939B
:101460001F9341E050E060E070E004C0440F551F5E
:10147000661F771F8A95D2F7809177029091780244
:10148000A0917902B0917A028A019B01082B192B55
:101490002A2B3B2BC901B8011F910F910C94090A0B
:1014A0000F931F9341E050E060E070E004C0440FF0
:1014B000551F661F771F8A95D2F7CB01BA01609539
:1014C0007095809590950091770210917802209107
:1014D000790230917A0260237123822393231F9132
:1014E0000F910C94090A0F931F9341E050E060E0C4
:1014F00070E004C0440F551F661F771F8A95D2F70E
:101500008091770290917802A0917902B0917A024D
:101510008A019B01082719272A273B27C901B801FF
:101520001F910F910C94090A0F931F93009177025A
:10153000109178022091790230917A02602B712B00
:10154000822B932B1F910F910C94090A0F931F93D9
:1015500000917702109178022091790230917A02FD
:1015600060237123822393231F910F910C94090A06
:101570000F931F93009177021091780220917902C6
:1015800030917A0260277127822793271F910F914C
:101590000C94090A0895E92FEE0FE90FEE0F8E0F54
:1015A000982F977041E001C0440F9A95EAF786950D
:1015B0008695869595E0899FF0011124E15BFD4FAA
:1015C00030E020E070E05191DF011197CB01022E55
:1015D00002C0969587950A94E2F7817081958527D8
:1015E000842385278C932F5F3F4F2530310559F792
:1015F0000895E92FEE0FE90FEE0F8E0F982F9770D9
:1016000086958695869525E0829FF0011124E15B01
:10161000FD4F50E040E080E0219130E0092E02C013
:10162000369527950A94E2F721703327042E01C0DE
:10163000220F0A94EAF7822B4F5F5F4F4530510526
:1016400059F70895BF92CF92DF92EF92FF920F93D6
:101650001F93CF93DF938C01C0907702D0907802D4
:10166000E0907902F0907A0280917B0290917C0266
:10167000A0917D02B0917E02C82AD92AEA2AFB2ACB
:10168000CFE1D0E0BC2ED701C6010C2E04C0B69528
:10169000A795979587950A94D2F780FD0EC021975C
:1016A00088F7B12C8B2DDF91CF911F910F91FF9077
:1016B000EF90DF90CF90BF900895B8018C2F0E94DB
:1016C000C311019761F3EECFCF93DF93EC010E943A
:1016D000220BBE01DF91CF910C94C3111F93CF93C6
:1016E000DF93EB0190914E02992331F0CB01DF9112
:1016F000CF911F910C94640B882379F0CB010E9449
:10170000220B182F682FCE010E94CB0ABE01812F19
:10171000DF91CF911F910C94C311CB010E94F90A64
:10172000182FF4CF1F93CF93DF93C0917F0216E061
:10173000809180028C1304C0DF91CF911F91089596
:10174000D0E01C9FF0011D9FF00D1124EF57FD4FBD
:101750004081518162817381848195810E94AF09AA
:101760002196C770E5CF4091B1025091B2026091CD
:10177000B3027091B4028091B5029091B6020C94BC
:10178000AF09FF920F931F93CF93DF938091B6021F
:10179000807FD1F48091B3028823B1F080917F02E1
:1017A000109180026091B1027091B202A091B402D6
:1017B000B091B502062F0723C0914001D09141019D
:1017C00096E0F92E181306C0DF91CF911F910F916B
:1017D000FF90089590E0109711F00F3F19F40196D3
:1017E0008770F0CFF89E9001F99E300D1124F90119
:1017F000EF57FD4F41814713F2CF40814613EFCFA2
:1018000042814111ECCF438154814A1B5B0B4C1741
:101810005D0728F78091B6028F7080618093B602D1
:10182000F901EA57FD4F80818F708061808381EBE1
:1018300092E00E944609DF91CF911F910F91FF9096
:101840000C94920BAF92BF92CF92DF92EF92FF92E5
:101850000F931F93CF93DF93CDB7DEB761970FB68A
:10186000F894DEBF0FBECDBF8C0185E0F801DE012C
:101870001D9601900D928A95E1F7F801E28081EBC7
:10188000C82E82E0D82E6091B4027091B502611525
:10189000710509F44DC19091B1022091B202892FD6
:1018A00082238F3F09F444C140815181A380B480D9
:1018B000F090B302F501E61BF70BBF01E091400188
:1018C000F0914101FF2009F404C18091B602382F44
:1018D000307F6E177F0708F0BDC0311179C0FE2C34
:1018E000251323C0941321C0E1101FC08F708061A5
:1018F0008093B6020E94B30BC6010E9446098091F4
:10190000B602F80185838F2D61960FB6F894DEBF7D
:101910000FBECDBFDF91CF911F910F91FF90EF9040
:10192000DF90CF90BF90AF900895AB2829F0842F1F
:1019300085238F3F09F015C180E0F82FF170DF2E6D
:1019400080FF3CC080917F022091800236E08213AC
:1019500015C04D875E878D859E850E94640B292F5B
:1019600022952F702230F0F0243018F59F70F1F09E
:10197000F8019581907FD1F4D12C1EC090E0389F62
:10198000F001399FF00D1124EF57FD4F6181651370
:1019900006C06081641303C062816E110FC001969E
:1019A0008770D5CF9F7011F0882331F3805E883027
:1019B00018F3C8010E944609FD2CA5CFEE2009F4BA
:1019C000A2CF8091B60281608093B602F12C9BCFAA
:1019D000251314C0941312C0E11010C0F8018583C0
:1019E000C8010E94460986E0F801A1EBB2E001902F
:1019F0000D928A95E1F70E94B30B85CFC8010E9432
:101A00009909882319F1EE2009F18091B6028032FC
:101A100070F02091B1023091B20238872F8319867D
:101A2000BB86AA868C87CE0107960E94460986E06F
:101A3000F801A1EBB2E001900D928A95E1F70E94C6
:101A4000C10B0E94B30BFF24F3945DCFC8010E9429
:101A50004609F9CF311113C07A2DB98AA88A6E2DA3
:101A600089890E94A00981EB92E00E94460986E0E4
:101A7000F60111928A95E9F70E94B30BA7CF2513BF
:101A80000FC094130DC0E1100BC0F8018583C8018D
:101A90000E94460986E0F60111928A95E9F733CF54
:101AA000C8010E949909882389F2EE2079F2809179
:101AB000B602803208F4BBCF2091B1023091B2025D
:101AC0003A8329831B82BD82AC828E83CE0101962C
:101AD000ACCF6E177F07F8F4FE2CEE2009F4B6CFDA
:101AE00025130BC0941309C086E0F801A1EBB2E006
:101AF00001900D928A95E1F706CFC8010E949909DD
:101B0000811195CF8091B60281608093B602C801A1
:101B10000E944609F8CE7A2DB98AA88A6E2D898945
:101B20000E94A00986E0F60111928A95E9F763CF39
:101B3000EE2009F48BCFC8010E949909F82E882362
:101B400009F484CF86E0F801A1EBB2E001900D9298
:101B50008A95E1F781EB92E00E94AB060E94C10BEF
:101B60004ACF81E08E25E9CE1F93CF93DF93CDB787
:101B7000DEB72C970FB6F894DEBF0FBECDBF4F83F4
:101B8000588769877A878B879C87CE0107960E9442
:101B9000220C882369F08A859B85892B39F04F8137
:101BA0005885842F85238F3F09F071C016E05FC0F0
:101BB00086E0FE013796DE01119601900D928A951E
:101BC000E1F78A859B85892B89F38F819885892305
:101BD0008F3F61F32091800230E0C9010196877048
:101BE000992740917F024817190671F40E947A09DB
:101BF0001092800210927F0286E0E1EBF2E0DF01BA
:101C00001D928A95E9F7D2CF96E0929FD001939FDB
:101C1000B00D1124AF57BD4FFE01319601900D92CA
:101C20009A95E1F7809380020E94920BBFCF819F2B
:101C3000C00111248F579D4F0E94220C8823E9F088
:101C4000E0917F021E9FF0011124EF57FD4F40816C
:101C5000518162817381848195810E94AF09809155
:101C60007F0290E001968770992780937F02809190
:101C70007F02909180028913DACF2C960FB6F894E8
:101C8000DEBF0FBECDBFDF91CF911F910895698553
:101C90007A858B859C850E94AF0988CF682F8091BB
:101CA0004201909143010C94B51F682F809142012D
:101CB000909143010C94B71F809142019091430190
:101CC0000C94B91F8091BF028595859585950895DF
:101CD0008091BF02877008959091BF02977081E054
:101CE00009F480E008958091CA0208959091CA0293
:101CF000892B8093CA02089580959091CA029823F7
:101D00009093CA0208951092CA0208959091C90250
:101D1000892B8093C902089580959091C9029823D8
:101D20009093C90208951092C90208958091C0024B
:101D3000089508950C94990E9091620392FD08C045
:101D40009091C002981721F08093C0020C949A0ED3
:101D500008958091C002882329F01092C00280E08B
:101D60000C949A0E0895CF93DF93E0914201F09185
:101D700043018091CA028083E0914201F0914301C6
:101D800080819091C902892B80839091C002992310
:101D900081F0E0914201F09143018081892B8083A1
:101DA00080914201909143010E946D1F81110E9418
:101DB000A90EC0914201D091430148E050E067EB89
:101DC00072E0CE010E946227892B69F088E0FE0153
:101DD000A7EBB2E001900D928A95E1F7CE01DF9179
:101DE000CF910C94361FDF91CF91089508950C94F4
:101DF000F60E9091620392FD10C098E0899F9001C9
:101E00001124622B6093BF020E942F0A8091BF02AF
:101E10008595859585950C94F70E0C942F0A109254
:101E2000BF0280E00C94F70E9091BF028095892349
:101E30008093BF02282F277091F4282F082E000CC2
:101E4000330B9217130659F09091620392FD07C06D
:101E50008595859585950E94500A0C940F0F0895DD
:101E60009091620392FB222720F9281769F080FBEA
:101E700092F99093620380916103909162030E94B2
:101E8000750F82E00C94140F08958091620382FB19
:101E9000882780F991E089270C94300F81E00C9419
:101EA000300F80E00C94300F90E080E00E94262AF2
:101EB00021E0893E9E4F09F020E0822F089582E0C4
:101EC00090E00C941E2A83E090E00C941E2ACF939D
:101ED00084E090E00E941E2AC82F82E290E00E94D7
:101EE0001E2A982F8C2FCF910895CF93C92F682F3A
:101EF00084E090E00E942C2A6C2F82E290E0CF9147
:101F00000C942C2AAB01BC018FE090E00C943E2A8B
:101F1000AB01BC0183E190E00C943E2A60E070E0EC
:101F2000CB010C94880F60E070E0CB010E94820F1F
:101F30000C948E0F69EE7EEF90E080E00E944A2ABA
:101F400060E082E090E00E942C2A60E083E090E074
:101F50000E942C2A10927B0210927C0210927D0229
:101F600010927E0260E084E090E00E942C2A60E003
:101F700082E290E00E942C2A60E085E090E00E94DE
:101F80002C2A60E086E090E00E942C2A6FEF87E028
:101F900090E00E942C2A40E050E0BA0188E090E0F6
:101FA0000E943E2A60E08DE090E00E942C2A40E0F2
:101FB00050E0BA0188E190E00E943E2A60E087E1AB
:101FC00090E00E942C2A40E050E0BA018CE190E0C1
:101FD0000E943E2A70E060E080E290E00E944A2A7F
:101FE00040E050E0BA0188E190E00E943E2A0C9463
:101FF000930F0C949A0F682F8EE090E00C942C2A8B
:102000000E9462206093D9027093DA028093DB020F
:102010009093DC026093D5027093D6028093D7022E
:102020009093D802089585B7806885BF85B780688A
:1020300085BF0895089508950C941B1008950C947D
:102040001E100E94131082EE92E10E94191F0E943E
:102050001A100C941C100C94CC14089508950E942E
:102060002D100C942E100E94E5120C9452060E9422
:102070004D200E94A1120E94E6140E9420140E948A
:1020800033100E940C1780E00E946A170E94F0141F
:102090000C941F109F92AF92BF92CF92DF92EF925B
:1020A000FF920F931F93CF93DF93CDB7DEB72A979D
:1020B0000FB6F894DEBF0FBECDBF0E944214C82EEB
:1020C00081110E9400108BECA82E82E0B82E10E047
:1020D00000E0902E802F0E940F13E82EF501F19062
:1020E0005F01F81609F445C08091DD0281FD0E9470
:1020F00015138F2D8E25D12CFF24F394982F9F211B
:1021000099F10E942B10882399F0DE829F82EF20A4
:1021100081E009F480E088870E9456208160782F52
:102120009A8789874E815F8168858A850E946D06BE
:10213000F801E553FD4F8081F826F08281E0C1105F
:1021400001C080E02A960FB6F894DEBF0FBECDBF67
:10215000DF91CF911F910F91FF90EF90DF90CF9083
:10216000BF90AF909F900895D394FF0CF6E0DF12DC
:10217000C5CF0F5F1F4F0A30110509F0AACF8FEFAF
:1021800089838A831B820E9456208160782F9D83D9
:102190008C8349815A816B818D810E946D06CECFDF
:1021A000CF930E944A10C82F0E94CC140E94EF19AE
:1021B000C1110E94B618CF910C946206CF93DF93A1
:1021C0000E94C711EC01811523E5920790F5811556
:1021D00032E5930708F096C081159042C8F4C11506
:1021E00081E0D80788F4C53AD10548F4C430D10558
:1021F00058F4C130D10541F0D0E0C0E005C0CE01B7
:10220000805E91090897C0F7CE01DF91CF910895C4
:10221000C11591E5D90708F070C0C11520E5D207B6
:1022200008F04EC0C11530E4D30730F3DF70D06A38
:10223000EBCF811546E59407F0F4C11585E5D80785
:1022400008F075C0C11594E5D90708F06BC0CE0140
:102250008370992721E030E002C0220F331F8A9556
:10226000E2F7C695C69590E2C99FE0011124C22B02
:10227000D32BDA68C9CF81152AE5920778F4811546
:1022800039E5930708F05EC0811548E5940708F426
:10229000B3CFD82FCC27C06FD06AB6CF9056811558
:1022A000904208F0A9CF8D2F8F710E945E1290E0AE
:1022B000982F882788279F719C012C2BE90140C00B
:1022C000CE01E4E096958795EA95E1F783702C2F8F
:1022D00026952695237040E2249F90011124382BE7
:1022E0008C2F8370C1E0D0E002C0CC0FDD1F8A9537
:1022F000E2F7C22BD32BDC6887CFDC2FCC27C16F52
:10230000D06A82CF8370992721E030E002C0220F8B
:10231000331F8A95E2F7C695C69580E2C89FE00113
:102320001124E7CFDC2FCC27C46FD06A6DCF8C2F60
:102330000E945E12C82FD0E0DC2FCC27CC27DF71A3
:10234000D06262CF8F700E945E1234E0D695C7953E
:102350003A95E1F7CF709C2FEC01D06955CF972FBC
:1023600070E026E0929F600D711D1124FB019CE33B
:10237000899FE00DF11D1124EE0FFF1FE455FF4F63
:102380008591949108950E94AF110C94DE108238CB
:102390009105B1F1B0F48133910509F475C048F4A9
:1023A0008932910509F469C08A32910509F473C034
:1023B00008958533910509F459C08933910501F1D8
:1023C0000895833E9105A9F138F4803E9105F9F016
:1023D000823E910549F10895863E9105A9F1873E17
:1023E0009105C9F1843E910519F52091620321FF01
:1023F0001FC08091610384FD14C087EE90E00895B2
:10240000209161032370A1F080EE90E00895209167
:10241000610320FD47C03091620330FF09C024FFF3
:1024200044C090E080E004C02091610322FDF7CF1A
:1024300008952091610322FD3BC03091620330FD7D
:10244000E3CF24FFF5CFEDCF2091610323FFF0CF41
:1024500024FDE7CFD2CF2091610323FD2CC0309122
:10246000620331FFEECF84EE90E008952091610386
:1024700025FFDECF89E290E008952091610325FFDA
:10248000D7CF85E390E008952091610326FFD0CF58
:102490008AE290E008952091610326FFC9CF81E38D
:1024A00090E0089589E390E0089583EE90E0089528
:1024B00082EE90E0089586EE90E008959091610399
:1024C00092FF06C0282F28712830F9F4877F846096
:1024D00093FF06C0282F28712831F1F4877E84618C
:1024E0002091620320FF06C0382F38713830D9F4AC
:1024F000877F816021FF06C0282F28712831D1F401
:10250000877E816194FD877E0895282F2471243071
:10251000F9F68B7F8860DCCF282F2471243101F7F6
:102520008B7E8861DDCF382F3171313019F78E7F86
:102530008860E0CF282F2171213121F78E7E8861BC
:10254000E1CF10925D0310925E0310925F03109230
:1025500060030895CF92DF92EF92FF926B017C01AE
:102560000E94CC1481110EC00E946220C61AD70AA4
:10257000E80AF90AC0925D03D0925E03E0925F031D
:10258000F0926003FF90EF90DF90CF9008950F934B
:102590001F930E94CC14882321F01F910F910C945B
:1025A00062200E94622000915D0310915E032091E1
:1025B0005F0330916003600F711F821F931F1F9193
:1025C0000F91089580E0089508950E94540F81119D
:1025D00002C00E94F90F0E945F0F8093DD020E94EB
:1025E000670F90936203809361030E94E4120E943C
:1025F000630F682F70E090E080E00E94CF09609147
:102600007702709178028091790290917A020C940D
:10261000070A08950C94091308950C940C13E82FDD
:10262000F0E0E259FC4F80810895089580EA8A9590
:10263000F1F7089500C008950C94161308950C94B2
:102640001E13EF92FF920F931F93CF93DF9300D04F
:1026500000D00F92CDB7DEB70E94CC14F82E609157
:102660007803882309F448C085E0E82E8E010F5FC7
:102670001F4FF8018E2D11928A95E9F7862F90E071
:10268000B80182599C4F0E94FE148823F9F0809172
:10269000630390E045E050E0B80182599C4F0E94EE
:1026A000622721E02093DE02892BD1F4F12C0E94D5
:1026B000DD058F2D0F900F900F900F900F90DF91F1
:1026C000CF911F910F91FF90EF9008958091DE02BE
:1026D000882361F3F8011192EA94E9F71092DE027F
:1026E000A0916303B0E0A259BC4F85E0F8010190CE
:1026F0000D928A95E1F7DBCF70E062597C4F8091B3
:10270000630390E082599C4F0E9486150E941F131C
:10271000D0CFF894E82FE295EF70F0E031A1282FA8
:102720002F7081E090E001C0880F2A95EAF7982F7A
:102730009095932391A392A1892B82A378940895D5
:10274000CF93DF93CCE0D2E089918F3F11F00E94CC
:10275000891382E0C131D807B9F7C6E0D2E0899188
:102760008F3F11F00E94891382E0CC30D807B9F76F
:10277000DF91CF910895CF92DF92EF92FF920F9366
:102780001F93CF93DF93EC01D62E062F10E0C801E4
:10279000845F9D4F7C01FC0180818F3F09F445C01F
:1027A000F894E82FE295EF70F0E091A18F7021E0AE
:1027B00030E001C0220F8A95EAF7892F822B81A38E
:1027C00082A12095282322A378940E941A13E6E080
:1027D000F2E04CE052E031E0C12C21912F3F71F149
:1027E000A22FA295AF70B0E090968C9190E02F70E0
:1027F00002C0959587952A95E2F780FD1FC0832F2B
:10280000C82A330F4E175F0741F7F70180818F3FCA
:1028100011F00E94891361E0C11001C060E08D2DAC
:102820000E941C13C00FD11FC882DF91CF911F914E
:102830000F91FF90EF90DF90CF90089580E0E0CF70
:10284000809144018091440195E0811190E0909342
:10285000780385E0891B809363030E94A0138AE0BC
:10286000EEE6F3E0DF01982F1D929A95E9F7E4E692
:10287000F3E0DF011D928A95E9F785E00E94951447
:102880000C94DB05EF92FF920F931F93CF93DF938E
:10289000CDB7DEB72A970FB6F894DEBF0FBECDBF17
:1028A0008E010F5F1F4F8AE0F80111928A95E9F7B8
:1028B000F12C6F2DC8010E94BB13F394F5E0FF12B9
:1028C000F8CF4AE050E0B80184E693E00E94622726
:1028D0007C0121E0892B09F420E0E114F10441F0AE
:1028E0008AE0F801A4E6B3E001900D928A95E1F741
:1028F0006091780370E062597C4F45E084E693E094
:102900000E94961481E090E0EF2811F40E942113B8
:102910002A960FB6F894DEBF0FBECDBFDF91CF91E0
:102920001F910F91FF90EF9008950895FF920F93DC
:102930001F93CF93DF93F82E092F162FD72FC42F75
:10294000222349F081E08093E1020E945620909377
:10295000E0028093DF028091E1028823A1F0809160
:10296000DF029091E0020E946E20059760F0EF2D4B
:10297000F02FA12FBD2FCE0FDF2FD11DEC17FD079C
:1029800041F41092E102DF91CF911F910F91FF90DE
:10299000089581918D93F2CF8091E402811107C057
:1029A0000E942627882351F081E08093E40281E091
:1029B0009091E402913009F080E0089582E08093E4
:1029C000E4020E942127F3CF0C94CC140E94E4145B
:1029D000809344010E94CC1481110C943415089505
:1029E0000E94CC14811102C00C943615089581E028
:1029F0009091E5029A3008F080E008950F931F93BC
:102A0000CF93DF93EC018B018091E5028A30B8F41B
:102A1000B801CE010E948415C82F811122C0809177
:102A2000E5028F3FB9F40E9456209093E302809311
:102A3000E2028C2FDF91CF911F910F910895809129
:102A4000E2029091E3020E946E20843F914000F7E1
:102A5000C0E0EFCF8F5F8093E5028A3020F7C1E0BE
:102A6000E8CF1092E502E5CF0C94B61D0C94B91D89
:102A7000DF92EF92FF920F931F93CF93DF93790131
:102A8000C82F880FDD0B41155105A9F0FE0193E019
:102A9000EE0FFF1F9A95E1F7EB5BFE4F818192816C
:102AA0008A519D4F208130E04217530708F49A0164
:102AB000A9010E946F27CE010E94A31ED82E882351
:102AC000D1F001151105B9F083E0CC0FDD1F8A9517
:102AD000E1F7FE01EB5BFE4F438150E00417150761
:102AE00008F4A801CB5BDE4F6C817D816A517D4F7C
:102AF000C7010E946F278D2DDF91CF911F910F91FC
:102B0000FF90EF90DF9008950C949D160C94B916E9
:102B10000F931F93CF93DF9300D000D0CDB7DEB7D4
:102B20006091FD027091FE028091FF02909100037E
:102B30000E947D2011E0643671058105910518F130
:102B40000E94C7126E5F7F4F8F4F9F4F69837A83BA
:102B50008B839C8310E000E030E020E044E050E014
:102B6000BE016F5F7F4F82E00E943815182F8823C7
:102B700051F00E9462206093FD027093FE028093E8
:102B8000FF0290930003812F0F900F900F900F90F2
:102B9000DF91CF911F910F910895AF92BF92CF9285
:102BA000DF92EF92FF920F931F93CF93DF9300D0AA
:102BB00000D000D0CDB7DEB77B01C0901102D0901D
:102BC000120201E010E09E012A5F3F4F50E040E01A
:102BD00070E060E080E00E943815182F882309F427
:102BE00048C056018FEFA81AB80A6091F902709197
:102BF000FA028091FB029091FC020E947D206436D3
:102C000071058105910568F105E010E09E012F5FD7
:102C10003F4F50E040E070E060E081E00E943815F6
:102C2000D82E65E070E0C5010E940D1711E09E816D
:102C3000981310E01D2141F10E9462206093F90277
:102C40007093FA028093FB029093FC0285E0FE01F0
:102C50003196A4EFB2E001900D928A95E1F711E070
:102C600013C065E070E0C5010E940D179E818913B5
:102C7000CBCF85E0F6013196DE01119601900D92E1
:102C80008A95E1F71111E2CF85E0E4EFF2E0D70198
:102C900001900D928A95E1F7812F26960FB6F89450
:102CA000DEBF0FBECDBFDF91CF911F910F91FF907F
:102CB000EF90DF90CF90BF90AF900895AF92BF920A
:102CC000CF92DF92EF92FF920F931F93CF93DF93F8
:102CD0007C015B016A010E94F71401E010E0882387
:102CE00011F00AE010E0C1E0D0E0F894B501C701AE
:102CF000F60109957894811104C021960C171D07DF
:102D00005CF4DF91CF911F910F91FF90EF90DF90D6
:102D1000CF90BF90AF900895CC9F9001CD9F300D84
:102D2000300D112490E080E045E34A95F1F7000072
:102D3000019682179307C1F7D8CF0F931F93CF93B4
:102D4000DF93EC018B014DEC55E10E945E16882368
:102D500051F048E855E1B801CE01DF91CF911F91C4
:102D60000F910C945E1680E0DF91CF911F910F912F
:102D700008950F931F93CF93DF93F894C09111029E
:102D8000D0911202CE01019625E0FB01DC010190F9
:102D90000D922A95E1F765E070E00E940D17888397
:102DA0007894F8946E817F81888599850091F002EE
:102DB0001091F1022091F2023091F3026017710735
:102DC0008207930751F06093F0027093F1028093B1
:102DD000F2029093F3020E94AA127894DF91CF91AD
:102DE0001F910F9108950E9407220E9437100C94A2
:102DF00013220E9417220E94D0100C9431220E94AC
:102E0000F61F0E94EE210E9421100E94F3160E94DC
:102E1000F9160E942F10FBCF0895FC01680F791F4F
:102E20008FEF91E36E177F0709F4089521918227B0
:102E300028E030E087FF06C0880F8927215031093C
:102E4000C9F7F0CF880FFACFCF92DF92EF92FF92BF
:102E50000F931F93CF93DF936C017B0164E670E0C7
:102E600088E70E94541CEC0197FD12C010E000E0BE
:102E7000F601E00FF11F849164E670E00E94CE1C21
:102E8000EC01892B29F40F5F1F4F0E151F0581F7E9
:102E90000E94511DCE01DF91CF911F910F91FF90A4
:102EA000EF90DF90CF9008950895E9E7F3E080E098
:102EB00092E0DF019C011D9221503040E1F7F09338
:102EC0008005E0937F058FEF9FEF90932D03809314
:102ED0002C0308950E9454170E940B058093280329
:102EE00080FD0FC080E8809327030E944E1C6DE098
:102EF00070E083EA92E00E942417892B21F080E0A1
:102F0000089580E2F0CF8091280363E070E081FDB6
:102F100026C080EA92E00E942417892B81F76DE099
:102F200070E080E992E00E942417892B41F70E940B
:102F30006220605A75418F4F9F4F60937B0570935D
:102F40007C0580937D0590937E050E94551781E056
:102F500080932B0380932A031092290308958DE90F
:102F600092E0D9CF2091270336E0839FC00111243E
:102F7000629F800D911D1124811522E0920714F0AB
:102F800090E080E087589C4F9093800580937F0568
:102F9000089520917F05309180052357334040915B
:102FA0002703642F70E0C9010E943F27481B463069
:102FB00010F4240F311D211582E0380710F030E0A5
:102FC00020E027583C4F3093800520937F050895DB
:102FD0001F93CF93DF93162F8A3031F481E0DF9176
:102FE000CF911F910C9462188D3011F480E0F7CFCF
:102FF000C0917F05D091800596E0FE01A1E0B3E08D
:1030000001900D929A95E1F7803EC8F086E0FE01AE
:1030100011928A95E9F711111EC0C0917F05D091D8
:10302000800546E050E0BE0181E093E00E94622707
:10303000892BF9F4DF91CF911F910C94C917F6E019
:103040008F9FB001112460557D4F46E050E0CE01C6
:103050000E945927E0CFE0917F05F09180059F0104
:103060002A5F3F4F2E173F07C1F2808180958193E1
:10307000F9CFC957D340CE0125E0969587952A957B
:10308000E1F721E030E0A90102C0440F551F8A9505
:10309000E2F7CA0140912C0350912D03842B952B0C
:1030A000259645E0D695C7954A95E1F702C0220FCF
:1030B000331FCA95E2F7822B932B90932D038093B5
:1030C0002C03B8CFCF93382FE0917F05F091800586
:1030D000E957F34020912703622F70E0CF010E944F
:1030E0003F27281B822F332369F066E00E94332795
:1030F000C82FC15010F4CF91089560E080E20E9483
:10310000E817F7CF9F01280F311D2115324018F025
:1031100080E0F0E0E0E08E0F9F2F911D87589C4FDC
:103120009093800580937F05E6CFFF920F931F93C6
:10313000CF93DF93EC01F62EFC0101900020E9F71C
:103140008F0101501109C017D10730F0DF91CF91E5
:103150001F910F91FF9008956F2D89910E94E8179C
:10316000F2CF0E94951881E00C94621880912B0395
:10317000811103C080912A0308950E946220605A41
:1031800075418F4F9F4F60937B0570937C058093B3
:103190007D0590937E0580912A038111EBCF62E03B
:1031A00070E08EE892E00E942417892B19F781E0E5
:1031B00080932A03DFCF2F923F925F926F927F928C
:1031C0008F929F92AF92BF92CF92DF92EF92FF9237
:1031D0000F931F93CF93DF9380912B03882369F084
:1031E00020912C0330912D032115310531F0809170
:1031F000290361E070E0882399F0DF91CF911F915E
:103200000F91FF90EF90DF90CF90BF90AF909F9085
:103210008F907F906F905F903F902F9008958F5F79
:10322000082F10E01B01082E02C0220C331C0A9448
:10323000E2F7A90142215321452B89F390912803FC
:1032400090FD44C08295880F807680935F0198013D
:10325000369527953695279520936201815E809358
:1032600060011092630124E630E047E050E06DE534
:1032700071E088E70E94FD1C892B09F0BECFA801F0
:1032800025E0440F551F2A95E1F78091280380FD22
:103290002BC047585C4F04E610E020E230E060E4C9
:1032A00088E70E94241D892B09F0A7CF0E94B61839
:1032B000E101C095D09580912C0390912D03C823F6
:1032C000D923D0932D03C0932C0397CF880F880F59
:1032D000880F80935F0110926201895F8093600183
:1032E00083E080936301BFCFE7E0F3E080E2DF019A
:1032F0001D928A95E9F7A7E1B2E003E112E08BE1C4
:10330000C82E82E0D82E97E0592E772473948D91A1
:10331000E80129918E01240F352F311D27583C4F8C
:10332000E82FF0E0E95FFC4F90E080E0652C681A40
:10333000872C082E01C0880C0A94EAF77901A12C89
:10334000E701B9907E01B820662D6A196770962E44
:10335000062E000C770BDB2D01C0DD0F9A94EAF7E7
:103360007195619571096770772701C0B6946A9568
:10337000EAF7BD2A6081962E9B289082A39468E08C
:10338000A612DECF019631968830910579F6CA16DD
:10339000DB0609F0BCCF04E610E020E230E047E0B5
:1033A00053E07DCF80912A0390912B03911103C0AC
:1033B00091E089270895882369F062E070E08CE845
:1033C00092E00E942417892B19F080912A03089516
:1033D00010922A0380912A03EBCF0C9415050F93CA
:1033E0001F9380912B03882389F180917905909117
:1033F0007A050E946E20C29760F00E94562090933A
:103400007A058093790560E080E00E94B2170E94FF
:10341000ED190E94DB1880912A038823B9F00E94DD
:10342000622000917B0510917C0520917D053091F3
:103430007E05601B710B820B930B6F3F7F4F8F4F8D
:103440009F4720F41F910F910C94D2191F910F9157
:103450000895CF93DF93EC01FB018281882309F467
:1034600033C1C430FDE5DF07C0F5CB3F9CE5D9078C
:1034700030F49E0122503C4524313105B0F50E94C4
:10348000670F9093620380936103C1318CE5D80785
:1034900009F4EEC008F069C0C930ECE5DE0709F4B4
:1034A000D5C0C8F5C5308CE5D80709F4C7C000F50C
:1034B000C330ECE5DE0709F4B9C008F0BBC0C23088
:1034C000DC4509F4ADC080916103909162030E94D4
:1034D000750F0E947A0980E008C0C236EDE5DE076C
:1034E00071F2C63AFDE5DF0751F2DF91CF91089501
:1034F000809161038062C7309CE5D90709F493C0CD
:10350000809161038061C830DC4508F48CC08091F3
:103510006103806488C0809161038B7FCD30FCE5BE
:10352000DF0709F480C098F4809161038E7FCB306F
:103530009CE5D90709F477C0809161038C60CC3099
:10354000DC4508F470C0809161038D7F6CC0809170
:1035500061038F7ECF30FCE5DF0709F464C008F417
:103560007BC0809161038F7D5EC0CE3F9CE5D90713
:1035700009F47AC050F5C531FCE5DF0709F486C0CF
:1035800098F480916103837FC3319CE5D90709F4E6
:103590004AC008F471C00E947A0990916103892F92
:1035A00097FB87F980583FC0CC3FFCE5DF0709F463
:1035B00049C008F055C0809162038160CB3FDC4573
:1035C00009F081CF809362037ECFC230EDE5DE0744
:1035D00009F468C0A8F4C1158DE5D80709F452C0F4
:1035E000809162038360C130DD4560F380916203A6
:1035F000982F909591708E7F892B90FB81F9E2CF67
:10360000C236EDE5DE0709F451C0C63AFDE5DF0735
:1036100009F453C0C330DD4509F055CF80E043C005
:10362000809161038160809361034DCF809161033C
:103630008260F9CF809161038460F5CF809161034E
:103640008860F1CF809162038260BCCF0E947A09CA
:10365000809161038068E7CF80916103877FE3CF2A
:10366000809162038E7FAECF809162038D7FAACF5F
:10367000809161038F7BD7CF0E947A09809161038B
:103680008F77D1CF809162038C7F9CCF8091610333
:1036900082FB992790F921E0922790FB82F990FB19
:1036A00083F9C1CF81E00E94FB0F0DCF90916103A0
:1036B000892F8F7E94FF8061B6CF90916103892F0F
:1036C0008E7F90FF8160AFCF81E00FCFCF93DF93EC
:1036D000EB0186319C4511F50E94730E9A81992366
:1036E00099F08A7A91E009F490E090932E03811189
:1036F00009C089E20E944E0E0E94B30E80E0DF9165
:10370000CF91089585E3F6CF80912E03811104C0F7
:1037100089E20E94550EF0CF85E3FBCF81E0EFCF29
:103720000F931F93CF93DF93C42FD22FFC0182817D
:103730008823C9F0409331030E94562090933003B0
:1037400080932F0380E28C0F883008F050C0C77040
:1037500081E001C0880FCA95EAF7DF91CF911F91F0
:103760000F910C94220710913103141335C08091EE
:103770002F03909130030E946E208436910560F5EE
:10378000C0E2CD0F1D17B9F080E2810F883040F400
:10379000177081E001C0880F1A95EAF70E94290787
:1037A000C83048F481E09D2F977001C0880F9A952A
:1037B000EAF70E942207802F0E941A07C830B8F447
:1037C000D77081E001C0880FDA95EAF7DF91CF91D9
:1037D0001F910F910C94290780E28C0F883038F4E8
:1037E000C77081E001C0880FCA95EAF7EFCFDF917B
:1037F000CF911F910F9108950F939C01CB01243F0E
:103800004CE5340759F1A8F4293DFCE53F0701F1E7
:103810002A3D4CE53407D1F1283D3C4591F406E2C0
:1038200021EE41EE68ED7CE50E94901B80E00F9157
:103830000895263FFCE53F07E9F0B0F0273F3C45FF
:10384000F9F0FC018281882339F110923103EFCF26
:1038500007E225EE45EE69ED7CE5E6CF06E221EED6
:1038600040EE64EF7CE5E0CF07E225EE44EE65EF45
:103870007CE5DACF06E221EE42EE66EF7CE5D4CFBE
:1038800007E225EE46EE67EF7CE5CECF08E221E0C9
:1038900045EE6AED7CE5C8CF81E0C9CF1092B90052
:1038A0008CE08093B80008959F92AF92BF92CF9220
:1038B000DF92EF92FF920F931F93CF93DF93B82E77
:1038C000EB010E9456206C01EE24E394F12CC431EC
:1038D000D10560F025E0E22EF12CCF3FDC0731F07E
:1038E000CE0164E170E00E943F277B0184EAA82EAC
:1038F00094E8992E1092BC00A092BC000E94562021
:103900008C018091BC0087FF0DC08091B900887F39
:10391000883039F18091B900887F803111F10FEF43
:103920001FEF09C00E945620801B910B8E159F052A
:1039300040F30EEF1FEFCF3FDC07E1F2C6010E941C
:103940006E208C179D07B0F2C801DF91CF911F91B7
:103950000F91FF90EF90DF90CF90BF90AF909F902E
:103960000895B092BB009092BC000E9456208C013A
:103970008091BC0087FF0AC08091B900887F8831A0
:1039800011F0803461F610E000E0DECF0E94562096
:10399000801B910B8E159F0558F3CBCF0F931F9370
:1039A000CF93DF93EB018093BB0084E88093BC004E
:1039B0000E9456208C018091BC0087FF11C020918D
:1039C000B900287F81E090E0283211F490E080E097
:1039D000919581959109DF91CF911F910F91089554
:1039E000CF3FDC0741F30E945620801B910B8C17C0
:1039F0009D0708F38EEF9FEFEECFCF92DF92EF920D
:103A0000FF920F931F93CF93DF936B018A0179018C
:103A1000B9010E94541CE6010C0D1D1DC017D107F1
:103A200061F424E92093BC00DF91CF911F910F91A5
:103A3000FF90EF90DF90CF90089597FDF2CFB70100
:103A400089910E94CE1CEACFCF92DF92EF92FF9233
:103A50000F931F93CF93DF93C62F6A017901B801AB
:103A60000E94541C97FD0CC0B8018C2F0E94CE1CE4
:103A7000E601EC0CFD1CCE15DF0511F097FF0CC024
:103A800024E92093BC00DF91CF911F910F91FF900B
:103A9000EF90DF90CF900895B80189910E94CE1CDD
:103AA000EACF84E98093BC0008958EE14A9B02C06E
:103AB0008150E1F74A9BFECF08955A9880E28A959B
:103AC000F1F75A9A0895FC013BE03A95F1F798E036
:103AD00020E080E031E040E14A95F1F7880F4A9B11
:103AE00002C08160232742E04A95F1F7000040E1DF
:103AF0004A95F1F7915079F790E19A95F1F799B1DC
:103B000032E03A95F1F7000040E14A95F1F792FB77
:103B1000992790F992272081920F90830895EF9230
:103B2000FF920F931F93CF93DF930F92CDB7DEB722
:103B300019828C017C01E60EF11C0E151F0561F443
:103B400081E09981911180E00F90DF91CF911F91D9
:103B50000F91FF90EF9008950E94551DCE010196A0
:103B60000E94631DF80181938F01E7CF529A5A9A00
:103B7000089552985A9AEA9AE9E6F0E080818F7C9B
:103B8000808308956150770B91E001C0990F6A9589
:103B9000EAF720E031E0911108C0222391F05A9A0F
:103BA00080E28A95F1F75A980895492F482339F011
:103BB0005A9A232740E24A95F1F79695ECCF5A9806
:103BC000F9CF5A98EDCFFF920F931F93CF93DF93C6
:103BD000EC018C01060F111DC017D10731F4DF91E4
:103BE000CF911F910F91FF900895F9900E945D1D54
:103BF00068E08F2D0E94C21DEFCF1F920F920FB66B
:103C00000F9211240F931F932F933F934F935F9322
:103C10006F937F938F939F93AF93BF93EF93FF9394
:103C2000CF93DF930F92CDB7DEB719820E94551D57
:103C3000CE0101960E94631D082F069506950695F4
:103C4000282F22952570902F9570290F922F937011
:103C500026952695920F982797708981982B09F0C1
:103C60005CC0043008F059C080E18A95F1F75A9A97
:103C7000529A82E08A95F1F700C05A9888E0089F2E
:103C800080011124D801AB5BBE4F1696ED91FC91DB
:103C900017973097A9F06091110270911202149653
:103CA0002D913C911597260F371F11968D919C9160
:103CB0001297680F791F13964C9113978C91099561
:103CC000F801EB5BFE4F6381662351F020911102F6
:103CD0003091120284819581820F931F0E94E31D0F
:103CE0000E945D1D80E18A95F1F75A9852985A9A80
:103CF00080E18A95F1F7F801EB5BFE4F6081662366
:103D000051F0209111023091120281819281820F33
:103D1000931F0E948F1D0E94551D0F90DF91CF9120
:103D2000FF91EF91BF91AF919F918F917F916F9193
:103D30005F914F913F912F911F910F910F900FBE67
:103D40000F901F9018950F931F93CF93DF93EC0163
:103D500004970CF04CC0F894529A5A9885E08A95D2
:103D6000F1F700009C2F969595708C2F8570980F19
:103D7000892F83709695969523E0CC0FDD1F2A95A9
:103D8000E1F7980F8E01092B0E945D1D00C068E0CD
:103D9000802F0E94C21D80E18A95F1F752985A9AAD
:103DA0004A9B1EC087E090E04A991CC0FE01EB5B75
:103DB000FE4F63816623F9F02091110230911202C7
:103DC00084819581820F931F0E948F1D811113C0E2
:103DD000529A5A9A7894DF91CF911F910F9108953A
:103DE00000C0DECF019729F4529A5A9A789480E065
:103DF000F2CF00C0D9CF0E94551D80E28A95F1F71D
:103E00005A98529A80E18A95F1F7CB5BDE4F688130
:103E1000662351F0209111023091120289819A811A
:103E2000820F931F0E94E31D0E945D1D789481E024
:103E3000D2CF90931D0280931C0208959093380373
:103E40008093370308950E94CC14811103C08091A0
:103E500032030895E0913703F0913803309721F051
:103E60000190F081E02D099480E00895E0913703FE
:103E7000F0913803309721F00280F381E02D09940E
:103E8000089520913503309136032817390771F0D2
:103E90009093360380933503E0913703F091380314
:103EA000309721F00680F781E02D09940895209144
:103EB0003303309134032817390771F0909334039A
:103EC00080933303E0913703F0913803309721F06A
:103ED0000084F185E02D099408959C012E5F3F4FE9
:103EE000AC01485F5F4F80E02417350709F408955F
:103EF000F90191919F019923B9F38F5FF5CF662363
:103F000049F0FC01329608962191261729F0E8170E
:103F1000F907D1F780E0089581E008959C01FC0144
:103F200032969FEF80E04191461751F09F3F19F480
:103F3000411101C0982F8F5F8630A9F79F3F09F488
:103F40000895290F311D97FD3A95F901628308956F
:103F5000FC01329608962191261303C0DF011197C8
:103F60001C92E817F907B9F708950C948E1F0C946A
:103F7000A81F029626E0FC0111922A95E9F7089500
:103F800008950C94C01F811105C081E0809339030E
:103F90000C94C11F82E0FACF83E0809339030C9424
:103FA000C11F0C94C31F81E0809339030C94C11F7F
:103FB0000C94D31F089508950C94DB1F0895089561
:103FC0000C94DA1FCF930E94DE1F0E9442140E94BD
:103FD000DF1FC0E08C2F0E940F13811105C0CF5F3F
:103FE000CA30C1F7CF91089581E0FCCF08951F92A8
:103FF0001FB61F9211248F939F93AF93BF9380910D
:104000003A03811113C08091810590918205A0919E
:104010008305B09184054196A11DB11D8093810552
:1040200090938205A0938305B0938405BF91AF91CF
:104030009F918F911F901FBE1F90189580918905A9
:10404000843031F10E94410610923A0388E190E0F9
:1040500020E40FB6F894A895809360000FBE2093DB
:10406000600083B7817F846083BF83B7816083BF33
:104070007894889583B78E7F83BF0FB6F894A89500
:1040800080916000886180936000109260000FBE94
:1040900008950E947A090C94470682E084BD93E05B
:1040A00095BD9AEF97BD80936E0008952FB7F89451
:1040B0008091810590918205A0918305B09184053E
:1040C0002FBF08952FB7F8946091810570918205F4
:1040D00080918305909184052FBF08959C014FB76F
:1040E000F8948091810590918205A0918305B0910B
:1040F00084054FBF821B930B0895CF92DF92EF92FE
:10410000FF922FB7F894C0908105D0908205E0907F
:104110008305F09084052FBFA7019601261B370B5E
:10412000480B590BCA01B901FF90EF90DF90CF9077
:10413000089578941F921FB61F9211248F939F9316
:10414000AF93BF938091810590918205A0918305E3
:10415000B09184050196A11DB11D809381059093B6
:104160008205A0938305B0938405BF91AF919F9181
:104170008F911F901FBE1F90189587E797E7909328
:1041800001088093000888E19AE00FB6F894A8959A
:10419000809360000FBE90936000FFCF8091430337
:1041A000089508950895CF93DF93EC0181E0809303
:1041B000E9008FEF9091E800815095FD06C095EDE4
:1041C0009A95F1F700008111F5CF8091E80085FF05
:1041D00014C050E040E068E070E0CE010E94902200
:1041E0008091E8008E778093E80088E0FE01ABE3E1
:1041F000B3E001900D928A95E1F7DF91CF91089598
:104200000895089580918805811109C00E94202495
:104210000E947D248091E20084608093E2000895F2
:104220001092880508950C94D31F6091850581E054
:10423000611101C080E00C94CC1F9091890581E050
:10424000943009F080E0609185050C94D11F42E024
:1042500061EC81E00E949C239091890581E094307B
:1042600009F080E0609185050C94C31F80918B0557
:10427000833009F460C030F48130C9F1823009F430
:104280009CC008958A3009F488C08B3009F46EC050
:10429000893009F04FC080918A05813209F04AC007
:1042A00080918E0590918F05892B09F043C08091F4
:1042B000E800877F8093E8008091E80082FF36C0A5
:1042C0009091F3008091F200029731F48091F10017
:1042D000813011F0863021F48091F1008093430306
:1042E0008091E8008B778093E8000C94D023809134
:1042F0008A05813AF9F48091E800877F8093E8008D
:1043000080918E0590918F05892B61F468E08BE395
:1043100093E070E00E94DF228091E8008B77809329
:10432000E800089560E090E080E0F3CF8091890597
:104330008111C2CF089580918A05813AD9F7809181
:104340008E0590918F05892BA9F78091E800877FD2
:104350008093E8008091E80080FFFCCF809170019D
:104360008093F1008091E8008E77BDCF80918A051F
:10437000813201F780918E0590918F05892BD1F6BE
:104380008091E800877F8093E8000E94D02380918D
:104390008C05809370010C947A0980918A05813292
:1043A00049F68091E800877F8093E8000E94D0233F
:1043B00080918D0580934403089580918A05813A08
:1043C00009F0B8CF8091E800877F8093E800809162
:1043D000E80080FFFCCF80914403C2CF84B7877F81
:1043E00084BF0FB6F894A89580916000886180938F
:1043F0006000109260000FBE80E890E00FB6F89465
:1044000080936100909361000FBE0C94D81F0E94AE
:1044100020240E947D24E2EEF0E08081846080838D
:1044200078940C94062784E691E00C941E1F8091EA
:1044300089058530A9F480918905853011F00C94A7
:1044400049200E941E20809187058823A1F30E94A5
:10445000E21F882381F30E947A220E947A09EBCF1F
:10446000089508950C943422292F332723303105E1
:10447000C9F058F42130310599F122303105A9F104
:1044800090E080E030E020E01DC02132310509F1EC
:1044900022323105A9F780E490E02AE438E0672B66
:1044A00079F710C099278130910581F0009729F0A4
:1044B000029731F7E0EFF7E002C0E2E1F8E0849123
:1044C00090E09F01FA01318320830895E0E0F8E055
:1044D000F6CF89E090E028E238E0672B89F6F2CF4A
:1044E00082E190E028E338E0EDCF82E290E026E13F
:1044F00038E0E8CF80E189BD82E189BD09B400FEE2
:10450000FDCF8091D8008F7D8093D8008091E0000E
:1045100082608093E0008091E00081FDFCCF0895EF
:10452000AF92BF92CF92DF92FF920F931F93CF93E0
:10453000DF936C01EB018A010E94EF23F82E8111B9
:1045400023C00115110539F0F80180819181C81B44
:10455000D90BC80ED91EB12CA12C2097A9F080919F
:10456000E80085FD22C08091E8008E778093E80006
:1045700001151105A1F0F80180819181A80EB91EE5
:10458000B182A08285E0F82E8F2DDF91CF911F910F
:104590000F91FF90DF90CF90BF90AF9008950E9451
:1045A000EF238823D1F2F82EEFCFF60181916F012E
:1045B0008093F1002197FFEFAF1ABF0ACECFFC0125
:1045C000809190059091910586179707A0F061154D
:1045D000710529F49091E8009E779093E80090E0AF
:1045E0006115710551F4911108C08091E80082FFB6
:1045F00034C080E00895BC01F2CF80918905882302
:10460000C1F18530C1F18091E80083FD30C0809117
:10461000E80082FDEACF8091E80080FFE1CF809141
:10462000F3002091F200382F6115710519F0283040
:10463000310558F091E02830310509F090E02091E3
:10464000E8002E772093E800CBCF81918093F10092
:10465000615071092F5F3F4FE7CF80918905882313
:1046600041F0853041F08091E80083FFBECF81E0CA
:10467000089582E0089583E00895FC0180919005FB
:104680009091910586179707A0F06115710529F49F
:104690008091E8008E778093E80090E061157105C5
:1046A00051F4911108C08091E80082FF35C080E08C
:1046B0000895BC01F2CF809189058823C9F1853026
:1046C000C9F18091E80083FD31C08091E80082FD4E
:1046D000EACF8091E80080FFE1CF8091F300209144
:1046E000F200382F6115710519F02830310558F0A6
:1046F00091E02830310509F090E08091E8008E7754
:104700008093E800CBCF84918093F1003196615083
:1047100071092F5F3F4FE6CF80918905882341F0D3
:10472000853041F08091E80083FFBDCF81E008959E
:1047300082E0089583E00895982F973028F08F70D5
:104740008093E90081E008959093E900242F762F6B
:1047500050E0981731F07091EC002091ED005091ED
:10476000F00021FD02C09F5FE8CF3091EB003E7F5B
:104770003093EB003091ED003D7F3093ED003091B0
:10478000EB0031603093EB007093EC002093ED0070
:104790005093F0002091EE0027FDE5CF80E00895D2
:1047A00080918A0587FF13C08091E80082FF06C0D0
:1047B0008091E8008B778093E80004C080918905A0
:1047C0008111F2CF0895809189058823D9F38091D2
:1047D000E80080FFF8CF8091E8008E77ECCF209141
:1047E000E4003091E50095E6A9012091EC00822FCC
:1047F000817020FF06C08091E80080FF06C080E045
:1048000008952091E80022FD1AC08091890588232F
:1048100089F0853089F08091EB0085FD0FC02091F3
:10482000E4003091E50042175307F9F29150E1F6A8
:1048300084E0089582E0089583E0089581E008957A
:104840000E948E240E949624E0EEF0E08081816038
:104850008083E8EDF0E080818F77808319BCA7ED3D
:10486000B0E08C918E7F8C9380818F7E80831092BC
:10487000880508950F931F93CF93DF930E948E2492
:104880000E949624C8EDD0E088818F778883888144
:104890008068888388818F7D888319BC1092890500
:1048A00010928505109287051092860500EE10E0A3
:1048B000F80180818B7F808388818160888342E0DA
:1048C00060E080E00E949C23E1EEF0E080818E7F3A
:1048D0008083E2EEF0E08081816080838081886067
:1048E0008083F80180818E7F8083888180618883C6
:1048F000DF91CF911F910F910895E8EDF0E0808155
:104900008F7E8083E7EDF0E080818160808384E0AA
:1049100082BF81E0809388050C943A24E8EDF0E0B2
:1049200080818E7F80831092E20008951092DA00D9
:104930001092E10008951F920F920FB60F9211246A
:104940002F933F934F935F936F937F938F939F9397
:10495000AF93BF93EF93FF938091E10082FF0BC071
:104960008091E20082FF07C08091E1008B7F8093FD
:10497000E1000E9405278091DA0080FF19C0809134
:10498000D80080FF15C08091DA008E7F8093DA0016
:104990008091D90080FF96C080E189BD82E189BD08
:1049A00009B400FEFDCF81E0809389050E940221B9
:1049B0008091E10080FF19C08091E20080FF15C066
:1049C0008091E2008E7F8093E2008091E20080611E
:1049D0008093E2008091D80080628093D80019BC57
:1049E00085E0809389050E9415218091E10084FF74
:1049F0002BC08091E20084FF27C080E189BD82E165
:104A000089BD89B5982F917080FFFBCF8091D80028
:104A10008F7D8093D8008091E1008F7E8093E100AC
:104A20008091E2008F7E8093E2008091E2008160BD
:104A30008093E20080918505882309F449C084E0D1
:104A4000809389050E941D218091E10083FF29C088
:104A50008091E20083FF25C08091E100877F8093F1
:104A6000E10082E080938905109285058091E10044
:104A70008E7F8093E1008091E2008E7F8093E20040
:104A80008091E20080618093E20042E060E080E09B
:104A90000E949C238091F00088608093F0000E9427
:104AA0001321FF91EF91BF91AF919F918F917F91D2
:104AB0006F915F914F913F912F910F900FBE0F908B
:104AC0001F90189519BC109289050E94102170CF73
:104AD0008091E30087FD93E090938905B3CF1F9207
:104AE0000F920FB60F9211242F933F934F935F9322
:104AF0006F937F938F939F93AF93BF93CF93DF93E6
:104B0000EF93FF93D091E900DF708091EC00C82F04
:104B1000C17080FDC0E81092E9008091F000877FAD
:104B20008093F00078940E94B3251092E900809160
:104B3000F00088608093F000CD2BCF70C093E90027
:104B4000FF91EF91DF91CF91BF91AF919F918F91A5
:104B50007F916F915F914F913F912F910F900FBE79
:104B60000F901F9018951F93CF93DF93CDB7DEB7AB
:104B7000AA970FB6F894DEBF0FBECDBF8AE895E0C6
:104B80002091F100FC012193CF01F5E082399F07CC
:104B9000B9F70E9436218091E80083FF1EC1809101
:104BA0008A0590918B059A3008F017C1E92FF0E043
:104BB000EB55F54D0C945327803899F0823809F065
:104BC0000CC180918E058F70873008F006C18093EC
:104BD000E9008091EB0085FB882780F91092E900BD
:104BE00006C0809186059091870591118260909111
:104BF000E800977F9093E8008093F1001092F10015
:104C00008091E8008E77E5C0882309F4D3C0823014
:104C100009F0E3C080918C058111D6C080918E058A
:104C20008F702FEF280F263008F0D7C08093E9004F
:104C30002091EB0020FFC8C0933031F48091EB004D
:104C400080628093EB00C0C09091EB0090619093E4
:104C5000EB0021E030E001C0220F8A95EAF72093B3
:104C6000EA001092EA008091EB008860EACF81119F
:104C7000B4C010918C051F778091E3008078812B60
:104C80008093E3008091E800877F8093E8000E9492
:104C9000D0238091E80080FFFCCF8091E300806802
:104CA0008093E30082E0111183E08093890595C031
:104CB0008058823008F091C080918C0590918D05CC
:104CC0008C3D23E09207A1F583E08A838AE2898301
:104CD0004FB7F894DE01139620E03EE051E2E32F57
:104CE000F0E050935700E49120FF03C0E295EF708D
:104CF0003F5FEF708E2F90E0EA30C0F0C7968D9343
:104D00009D932F5F243159F74FBF8091E800877F33
:104D10008093E8006AE270E0CE0101960E94DF22F3
:104D20008091E8008B778093E80057C0C096E7CF6A
:104D300060918E0570918F05AE014F5F5F4F0E94AD
:104D40003222BC01892B09F448C09091E800977F7A
:104D50009093E80089819A810E943D23E1CF8038B9
:104D6000E1F58091E800877F8093E80080918505D8
:104D70008093F10045CF811130C090918C05923025
:104D800060F58091E800877F8093E8009093850527
:104D90000E94D02380918505882311F084E005C00E
:104DA0008091E30087FDFACF81E0809389050E941E
:104DB000272113C080918C05813079F481E09330F4
:104DC00009F080E0809387051092E9008091E80067
:104DD000877F8093E8000E94D0238091E80083FFC2
:104DE0000AC08091E800877F8093E8008091EB0003
:104DF00080628093EB00AA960FB6F894DEBF0FBED8
:104E0000CDBFDF91CF911F9108950895CF938091E9
:104E100089058823A1F0C091E900CF709091EC0042
:104E2000892F817090FD80E8C82B1092E900809155
:104E3000E80083FD0E94B325CF70C093E900CF91B5
:104E400008950E942024109289050895E8EDF0E06D
:104E50008081806180838AE18A95F1F700C080912A
:104E6000D90081700895991B79E004C0991F9617A5
:104E700008F0961B881F7A95C9F780950895AA1B9C
:104E8000BB1B51E107C0AA1FBB1FA617B70710F035
:104E9000A61BB70B881F991F5A95A9F78095909567
:104EA000BC01CD010895EE0FFF1F0590F491E02D98
:104EB0000994FB01DC0102C005900D924150504065
:104EC000D8F70895FB01DC0104C08D910190801991
:104ED00021F441505040C8F7881B990B0895FB01FD
:104EE000DC0102C001900D9241505040D8F7089566
:104EF000FB01DC0101900D920020E1F70895AEE086
:104F0000B0E0E5E8F7E20C946E2A0D891E898F89DE
:104F1000988D26E02C831A83098397FF02C080E0D6
:104F200090E801979E838D83AE01455E5F4F698D4A
:104F30007A8DCE0101960E94AF274D815E8157FD8B
:104F40000AC02F813885421753070CF49A01020FCB
:104F5000131FF80110822E96E4E00C948A2AABE02D
:104F6000B0E0E5EBF7E20C94602A7C013B018A019A
:104F7000FC0117821682838181FFB9C19AE0292E34
:104F8000CE0101965C01F7019381F30193FD8591B8
:104F900093FF81913F01882309F446C1853239F49A
:104FA00093FD859193FF81913F01853229F4B701EB
:104FB00090E00E949029E7CF912C412C512CFFE1E9
:104FC000F51538F08B3209F188F4803201F1833223
:104FD00021F157FC3AC020ED280F2A3040F556FE4B
:104FE0001FC0929C200D1124922E06C08D3291F08C
:104FF000803379F7689450F8F30193FD859193FF1E
:1050000081913F018111DBCF20C0689451F86894F1
:1050100052F8F2CF689453F8EFCF689454F8ECCF7D
:10502000429C200D1124422E689455F8E5CF8E3213
:1050300029F456FCF9C0689456F8DECF8C3619F482
:10504000689457F8D9CF8836B9F2982F9F7D955438
:105050009330C0F08336A1F18337C1F1833509F075
:105060005BC0F801C190D1908F01692D70E056FCB2
:1050700002C06FEF7FEFC6010E947A294C0168944D
:1050800057F80AC00C5F1F4F2FE3298388248394AD
:10509000912C6501E89457F853FC04C04814190496
:1050A00009F018F5342C8114910431F5332009F4FA
:1050B0006ACFB70180E290E00E9490293A94F6CF3F
:1050C000F801808189830E5F1F4FE0CFF801C19006
:1050D000D1908F01692D70E056FC02C06FEF7FEF19
:1050E000C6010E9485294C01D5CFB70180E290E02E
:1050F0000E9490294A94D2CFF60157FC859157FE21
:1051000081916F01B70190E00E94902931103A948B
:10511000F1E08F1A9108C7CF843619F0893609F06B
:1051200074C0F80157FE6AC06191719181919191AB
:105130008F01252D2F76D22E97FF09C0909580954F
:10514000709561957F4F8F4F9F4F6894D7F82AE0F5
:1051500030E0A5010E94C029C82ECA188C2C5D2CF5
:10516000D6FE0CC0E89450F8C91440F4D4FE05C033
:10517000D2FC03C0FD2DFE7E5F2E892C54FE8FC015
:10518000FE01EC0DF11D8081803309F081C0252DD9
:10519000297E522E852D8870382E53FC8FC050FEEC
:1051A00089C09C2C841418F44C0C942C981854FE30
:1051B0008BC0B70180E390E00E94902952FE09C0A5
:1051C00088E790E051FE02C088E590E0B7010E94B8
:1051D0009029C91408F484C0CA94D12C9FEFC91A2D
:1051E000D90ACA0CDB1CF60182916F01B70190E06D
:1051F0000E949029AC14BD04B1F758CF6191719110
:10520000072E000C880B990B93CFD52CE894D4F87B
:105210002AE030E0853739F1952D997FD92E8F36E8
:1052200001F148F48835A9F0F701868197812B9622
:10523000E2E10C947C2A803749F08837A9F7D4FE44
:1052400002C06894D2F820E130E00DC06894D4F830
:10525000F6CF54FE03C0E92FE660DE2E20E132E0F7
:1052600002C028E030E0F801D7FE0DC061917191D5
:10527000819191918F01A5010E94C029C82ECA1861
:10528000E894D7F86BCF6191719190E080E0F2CF14
:1052900052FC02C083947ECF839483947BCF852D70
:1052A000867809F477CFF6CFB70180E290E00E94CC
:1052B000902983948414C0F3312C79CF342C38187E
:1052C000841408F474CFF8CF852D867809F481CF43
:1052D0008BE251FE80E257FC8DE2B70190E077CF80
:1052E000B70180E390E00E9490299A9472CF8FEFEB
:1052F0009FEF9DCFFC010590615070400110D8F7E1
:10530000809590958E0F9F1F0895FC01615070400D
:1053100001900110D8F7809590958E0F9F1F0895EA
:105320000F931F93CF93DF93182F092FEB018B81DE
:1053300081FD09C01FEF0FEF812F902FDF91CF91DB
:105340001F910F91089582FF14C02E813F818C819F
:105350009D81281739073CF4E881F981CF01019636
:105360009983888310838E819F8101969F838E838A
:10537000E3CFE885F985812F0995892BA1F3DACF51
:10538000FA01AA27283051F1203181F1E8946F9376
:105390006E7F6E5F7F4F8F4F9F4FAF4FB1E03ED01C
:1053A000B4E03CD0670F781F891F9A1FA11D680FBA
:1053B000791F8A1F911DA11D6A0F711D811D911DED
:1053C000A11D20D009F468943F912AE0269F112462
:1053D0003019305D3193DEF6CF010895462F4770C6
:1053E000405D4193B3E00FD0C9F7F6CF462F4F7021
:1053F000405D4A3318F0495D31FD4052419302D07F
:10540000A9F7EACFB4E0A695979587957795679524
:10541000BA95C9F700976105710508959B01AC0124
:105420000A2E06945795479537952795BA95C9F74B
:10543000620F731F841F951FA01D0895F999FECF59
:1054400092BD81BDF89A992780B50895A8E1B0E092
:1054500042E050E00C94522A262FF999FECF92BDDB
:1054600081BDF89A019700B4021639F01FBA20BD29
:105470000FB6F894FA9AF99A0FBE08950396272F5B
:105480000E942D2A0E942C2A252F0E942D2A242F8B
:105490000C942D2A0196272F0E942D2A0C942C2A39
:1054A000DC01CB01FC01F999FECF06C0F2BDE1BDE4
:1054B000F89A319600B40D9241505040B8F70895D3
:1054C0002F923F924F925F926F927F928F929F9214
:1054D000AF92BF92CF92DF92EF92FF920F931F9302
:1054E000CF93DF93CDB7DEB7CA1BDB0B0FB6F894B3
:1054F000DEBF0FBECDBF09942A88398848885F84F3
:105500006E847D848C849B84AA84B984C884DF8063
:10551000EE80FD800C811B81AA81B981CE0FD11D47
:105520000FB6F894DEBF0FBECDBFED010895F8941D
:10553000FFCF6E076E079F079F07CE07CE07CE07E8
:10554000CE073208BE08CD08CD08DC250426ED269E
:0E5550000426ED2637265826ED26AF26BB266C
:10555E00808182838485868788898A8B8C8D8E8FC5
:10556E009091929394A0A1A2A3A4A5A6A7A8A9AA3C
:10557E00ABACADAEAFB0B1B2B3B4C0C1C2C3C4C5B3
:10558E00C6C7C8C9CACBCCCDCECFD0D1D2D3D4000A
:10559E006400C102010000000100000000000000D4
:1055AE0005010000000406000000000000002100BC
:1055BE007F220003CE20D3200021D1200121D22032
:1055CE00014C617965723A2044656661756C7400B0
:1055DE004C617965723A205261697365004C61794C
:1055EE0065723A204C6F776572004C617965723A3C
:1055FE002041646A757374004C617965723A205566
:10560E006E6465662D256C640025647825642C20F7
:10561E006B253264203A2025630020202020616211
:10562E00636465666768696A6B6C6D6E6F707172C4
:10563E00737475767778797A313233343536373804
:10564E00393052454254202020202020203B272054
:10565E002C2E2F202020F6F7313332366697C634A3
:0C566E0035E602000810181810080000B3
:00000001FF
