:100000000C943E0C0C945B0C0C945B0C0C945132D5
:100010000C945B0C0C945B0C0C945B0C0C945B0CC4
:100020000C945B0C0C945B0C0C94AD1D0C94691D32
:100030000C94D9290C945B0C0C945B0C0C945B0C09
:100040000C945B0C0C945B0C0C945B0C0C945B0C94
:100050000C945B0C0C94861E0C945B0C0C945B0C47
:100060000C945B0C0C945B0C0C945B0C0C945B0C74
:100070000C945B0C0C945B0C0C945B0C0C945B0C64
:100080000C945B0C0C945B0C0C945B0C0C945B0C54
:100090000C945B0C0C945B0C0C945B0C0C945B0C44
:1000A0000C945B0C0C945B0C0C945B0C29001E00F4
:1000B0001F002000210022002B0014001A0008005D
:1000C00015001700E10004001600070009000A00EF
:1000D000E0001D001B000600190005000000E20002
:1000E000E30021522C00A8002A002700260025004A
:1000F000240023003100130012000C0018001C0023
:10010000340033000F000E000D000B0028003800F3
:10011000370036001000110000004F00500022523E
:100120002C00207835003A003B003C003D003E00AA
:1001300001003F0040004100420043000100440034
:10014000450000002D002E0201000000000000000C
:100150002D022E000000010001000100010000003E
:100160004C0030002F0000000000000000000000E4
:100170000000000029780000E50027782578237822
:100180002A78000001002878267824782178000059
:1001900000005100520001000100000035003A004B
:1001A0003B003C003D003E0001003F00400041009C
:1001B0004200430001004400450000002D002E02D3
:1001C00001000000000000002D022E0000000100D0
:1001D00001000100010000004C0030022F0200006D
:1001E00000000000000000000000520000000000BD
:1001F000000000004F00510050000000010000000E
:1002000000000000000000000000000000000100ED
:1002100001000000000000000000000000000000DD
:1002200000000000000000000000000000000000CE
:1002300000000000000000000000000000000000BE
:1002400000000000000001000100010001000000AA
:10025000000000000000000000000000000000009E
:10026000000000000000000000000000000000008E
:10027000000000000000000000000000000000007E
:1002800000000100010001000100000000DA02810D
:10029000FFD9F1DB20A4A62EAF00A0C000A1C800AA
:1002A000AED580A81FD300408D14200000000000B0
:1002B000000000000000000000000000000000003E
:1002C000000000000000000000000000000000002E
:1002D000000000000000000000000000000000001E
:1002E0000000808080404020201008040204081094
:1002F000102020404080800000000000000000002E
:1003000000000000000000000000000000000000ED
:1003100000000000000000000000000000000000DD
:10032000808080804040404020202020000000004D
:1003300000000000000000000000000000000000BD
:1003400000000000000000000000000000000000AD
:100350000000003FC1010102020404040402020182
:10036000010100000000000080000040808040008B
:1003700000303000000000010264180412C2CA24D8
:1003800088F0808040404040202020201010101035
:100390000808080804040404020202020101010121
:1003A000000000000000000000000000000000004D
:1003B000000000000000000000000000000000003D
:1003C000000000000000000000000000000000002D
:1003D0000000E0180601000000000000000000001E
:1003E00000808383404040402021212010101010C5
:1003F00008080808040404040202020201010101C1
:1004000000000000000000000000000000000000EC
:1004100000000000000000000000000000000000DC
:1004200000000000000000000000000000000000CC
:1004300000000000000000000000000000000000BC
:1004400080808080404040402020202010101010EC
:10045000080F0808040404040204081010202040B7
:100460004041422498C088888C9C1C1E0E060000C7
:10047000000000000000000000000000000000007C
:10048000000000000000000000000000000000006C
:10049000000000000000000000000000000000005C
:1004A000000000000000000000000000000000004C
:1004B000000000000000000000000000000000003C
:1004C000000000000000000000000000000000002C
:1004D000000000000000000000000000000000001C
:1004E000000000000000000000000000000000000C
:1004F00000000000000000000000000000000000FC
:1005000000000000000000000000000000000000EB
:1005100000000000000000000000000000000000DB
:1005200000000000000000000000000000000000CB
:1005300000000000000000000000000000000000BB
:1005400000000000000000000000000000000000AB
:10055000000000000000000000000000000080809B
:100560008040402020100804020408101020204081
:10057000408080000000000000000000000000003B
:10058000000000000000000000000000000000006B
:10059000000000000000000000000000808080805B
:1005A00040404040202020200000000000000000CB
:1005B000000000000000000000000000000000003B
:1005C0000000000000000000000000000000003FEC
:1005D000C10101020204844444428201010100007D
:1005E00000000000800000408080400000303000AB
:1005F0000000000102040408081020408080808070
:10060000404040402020202010101010080808080A
:1006100004040404020202020101010100000000BE
:1006200000000000000000000000000000000000CA
:1006300000000000000000000000000000000000BA
:100640000000000000000000000000000000E018B2
:10065000060100000C03000218190005FE808383C8
:1006600040404040202121201010101008080808A8
:10067000040404040408304080800000018698606F
:10068000000000000000000000000000000000006A
:10069000000000000000000000000000000000005A
:1006A000000000000000000000000000000000004A
:1006B000000000000000000000000000808080803A
:1006C000404040402020202010101010080F080843
:1006D00004040404020202020101010100000000FE
:1006E0000000000000000000000000000000000604
:1006F0000F0F07030361F0F8FC600101013C78F87B
:10070000F070000000000000000000000000000089
:1007100000000000000000000000000000000000D9
:1007200000000000000000000000000000000000C9
:1007300000000000000000000000000000000000B9
:1007400000000000000000000000000000000000A9
:100750000000000000000000000000000000000099
:100760000000000000000000000000000000000089
:100770000000000000000000000000000000000079
:100780000000000000000000000000000000000069
:100790000000000000000000000000000000000059
:1007A0000000000000000000000000000000000049
:1007B0000000000000000000000000000000000039
:1007C0000000000000000000000000000000000029
:1007D00000000000000000000000808080404020F9
:1007E00020100804020408101020204040808000DF
:1007F00000000000000000000000000000000000F9
:1008000000000000000000000000000000000000E8
:1008100000000000000000008080808040404040D8
:100820002020202000000000000000000000000048
:1008300000000000000000000000000000000000B8
:1008400000000000000000000000003FC1010102A4
:1008500002048444444282010101000000000000BF
:100860008000004080804000003030000000000127
:100870000264180412C2CA2488F0808040404040BC
:100880002020202010101010080808080404040478
:10089000020202020101010100000000000000004C
:1008A0000000000000000000000000000000000048
:1008B0000000000000000000000000000000000038
:1008C00000000000000000000000E0180601000029
:1008D0000C03000218190005FE808383404040404D
:1008E0002021212010101010080808080404040416
:1008F00002020202010101010000000000000000EC
:1009000000000000000000000000000000000000E7
:1009100000000000000000000000000000000000D7
:1009200000000000000000000000000000000000C7
:1009300000000000000000008080808040404040B7
:100940002020202010101010080F080804040404B0
:10095000020202020101010100000000000000008B
:100960000000000000000000000000000000000087
:100970000000000000000000000000000000000077
:100980000000000000000000000000000000000067
:100990000000000000000000000000000000000057
:1009A0000000000000000000000000000000000047
:1009B0000000000000000000000000000000000037
:1009C0000000000000000000000000000000000027
:1009D0000000000000000000000000000000000017
:1009E0000000000000000000000000000000000007
:1009F00000000000000000000000000000000000F7
:100A000000000000000000000000000000000000E6
:100A100000000000000000000000000000000000D6
:100A200000000000000000000000000000000000C6
:100A300000000000000000000000000000000000B6
:100A400000000000000000000000000000000000A6
:100A50000000008080404040202020202018040218
:100A600001020408102020404080800000000000A7
:100A70000000000000000000000000000000000076
:100A80000000000000000000000000000000000066
:100A900000000000808080804040404020202020D6
:100AA0000000000000000000000000000000000046
:100AB0000000000000000000000000000000000036
:100AC000000000000000003FC10101020204040414
:100AD000040202010000000000000000800000404D
:100AE0008080400000303000000000010204040853
:100AF00008102040808080804040404020202020FE
:100B0000101010100808080804040404020202026D
:100B100001010101000000000000000000000000D1
:100B200000000000000000000000000000000000C5
:100B300000000000000000000000000000000000B5
:100B4000000000000000E0180601000000000000A6
:100B5000000000000080838340404040202121208D
:100B60001010101008080808040404040408304099
:100B700080800000018698600000000000000000F6
:100B80000000000000000000000000000000000065
:100B90000000000000000000000000000000000055
:100BA0000000000000000000000000000000000045
:100BB00000000000808080804040404020202020B5
:100BC00010101010080F0808040404040204081090
:100BD0001020204040414224180000000000000086
:100BE0000000000000000000000000000000000005
:100BF00000000101010000000000000000000000F2
:100C000000000000000000000000000000000000E4
:100C100000000000000000000000000000000000D4
:100C200000000000000000000000000000000000C4
:100C300000000000000000000000000000000000B4
:100C400000000000000000000000000000000000A4
:100C50000000000000000000000000000000000094
:100C60000000000000000000000000000000000084
:100C70000000000000000000000000000000000074
:100C80000000000000000000000000000000000064
:100C90000000000000000000000000000000000054
:100CA0000000000000000000000000000000000044
:100CB0000000000000000000000000000000000034
:100CC0000000000000000000000000000000000024
:100CD0000000808040404020100804020102040807
:100CE0001020408080000000000000000000000094
:100CF00000000000000000000000000000000000F4
:100D000000000000000000000000000000000000E3
:100D10008080808040404040202020200000000053
:100D200000000000000000000000000000000000C3
:100D300000000000000000000000000000000000B3
:100D40000000003FC1010102020404040402020188
:100D50000101000000000000000000800000800091
:100D60000060600000010204040808101020204008
:100D700080808080404040402020202010101010B3
:100D80000808080804040404020202020101010127
:100D90000000000000000000000000000000000053
:100DA0000000000000000000000000000000000043
:100DB0000000000000000000000000000000000033
:100DC0000000C0300C030000000000000000000024
:100DD00000808686404040402122222011111010C0
:100DE0000808080804040404040830408080000057
:100DF0000186986000000000000000000000000074
:100E000000000000000000000000000000000000E2
:100E100000000000000000000000000000000000D2
:100E200000000000000000000000000000000000C2
:100E300080808080404040402020202010101010F2
:100E4000080F0808040404040204081010202040BD
:100E50004041422418000000000000000000000093
:100E60000000000000000000000000000000010180
:100E70000100000000000000000000000000000071
:100E80000000000000000000000000000000000062
:100E90000000000000000000000000000000000052
:100EA0000000000000000000000000000000000042
:100EB0000000000000000000000000000000000032
:100EC0000000000000000000000000000000000022
:100ED0000000000000000000000000000000000012
:100EE0000000000000000000000000000000000002
:100EF00000000000000000000000000000000000F2
:100F000000000000000000000000000000000000E1
:100F100000000000000000000000000000000000D1
:100F200000000000000000000000000000000000C1
:100F300000000000000000000000000000000000B1
:100F400000000000000000000000000000008080A1
:100F50008080404020100804020408102040808057
:100F60000000000000000000000000000000000081
:100F70000000000000000000000000000000000071
:100F80000000000000000000000000008080808061
:100F900040404040202020200000000000000000D1
:100FA0000000000000000000000000000000000041
:100FB0000000000000000000000000000000007EB3
:100FC0008202020404080808080404020101000067
:100FD0000000000000000080000080000060600051
:100FE0000101020404080810102020408080808045
:100FF0004040404020202020101010100808080811
:1010000004040404020202020101010100000000C4
:1010100000000000000000000000000000000000D0
:1010200000000000000000000000000000000000C0
:101030000000000000000000000000000000C030C0
:101040000C03000000000000000000000080868605
:1010500040404040212222201111101008080808A9
:101060000404040404083040808000000186986075
:101070000000000000000000000000000000000070
:101080000000000000000000000000000000000060
:101090000000000000000000000000000000000050
:1010A0000000000000000000000000008080808040
:1010B000404040402020202010101010080F080849
:1010C000040404040204081010202040404142247B
:1010D00018000000000000000000000000000000F8
:1010E00000000000000000000000010101000000FD
:1010F00000000000000000000000000000000000F0
:1011000000000000000000000000000000000000DF
:1011100000000000000000000000000000000000CF
:1011200000000000000000000000000000000000BF
:1011300000000000000000000000000000000000AF
:10114000000000000000000000000000000000009F
:10115000000000000000000000000000000000008F
:10116000000000000000000000000000000000007F
:10117000000000000000000000000000000000006F
:10118000000000000000000000000000000000005F
:10119000000000000000000000000000000000004F
:1011A000000000000000000000000000000000003F
:1011B000000000000000000000000000000000002F
:1011C000000000000000000000008080808040409F
:1011D0002010080402040810204080800000000055
:1011E00000000000000000000000000000000000FF
:1011F00000000000000000000000000000000000EF
:1012000000000000000000008080808040404040DE
:10121000202020200000000000000000000000004E
:1012200000000000000000000000000000000000BE
:10123000000000000000000000001C34C40404048E
:10124000080808080804040201010000000000006A
:101250008000004080804000003030000101020228
:1012600004040408081020408080808040404040F2
:10127000202020201010101008080808040404047E
:101280000202020201010101000000000000000052
:10129000000000000000000000000000000000004E
:1012A000000000000000000000000000000000003E
:1012B00000000000000000000000E018060100002F
:1012C0000000000000000000008083834040404098
:1012D000202121201010101008080808040404041C
:1012E0000408304080800000018698600000000003
:1012F00000000000000000000000000000000000EE
:1013000000000000000000000000000000000000DD
:1013100000000000000000000000000000000000CD
:1013200000000000000000008080808040404040BD
:101330002020202010101010080F080804040404B6
:1013400002040810102020404041422418000000F0
:10135000000000000000000000000000000000008D
:10136000000000000000010101000000000000007A
:10137000000000000000000000000000000000006D
:10138000000000000000000000000000000000005D
:10139000000000000000000000000000000000004D
:1013A000000000000000000000000000000000003D
:1013B000000000000000000000000000000000002D
:1013C000000000000000000000000000000000001D
:1013D000000000000000000000000000000000000D
:1013E00000000000000000000000000000000000FD
:1013F00000000000000000000000000000000000ED
:1014000000000000000000000000000000000000DC
:1014100000000000000000000000000000000000CC
:1014200000000000000000000000000000000000BC
:1014300000000000000000000000000000000000AC
:10144000000000808040404020202020201804021E
:1014500001020408102020404080800000000000AD
:10146000000000000000000000000000000000007C
:10147000000000000000000000000000000000006C
:1014800000000000808080804040404020202020DC
:10149000000000000000000000000000000000004C
:1014A000000000000000000000000000000000003C
:1014B0000000000000060D31C1010101020202041A
:1014C0000402020100000000000000008000004053
:1014D0008080400000303000000000010204040859
:1014E0000810204080808080404040402020202004
:1014F0001010101008080808040404040202020274
:1015000001010101000000000000000000000000D7
:1015100000000000000000000000000000000000CB
:1015200000000000000000000000000000000000BB
:10153000000000000000E0180601000000000000AC
:101540000000000000808383404040402021212093
:10155000101010100808080804040404040830409F
:1015600080800000018698600000000000000000FC
:10157000000000000000000000000000000000006B
:10158000000000000000000000000000000000005B
:10159000000000000000000000000000000000004B
:1015A00000000000808080804040404020202020BB
:1015B00010101010080F0808040404040204081096
:1015C000102020404041422418000000000000008C
:1015D000000000000000000000000000000000000B
:1015E00000000101010000000000000000000000F8
:1015F00000000000000000000000000000000000EB
:1016000000000000000000000000000000000000DA
:1016100000000000000000000000000000000000CA
:1016200000000000000000000000000000000000BA
:1016300000000000000000000000000000000000AA
:10164000000000000000000000000000000000009A
:10165000000000000000000000000000000000008A
:10166000000000000000000000000000000000007A
:10167000000000000000000000000000000000006A
:101680000000000000000000000000000001010157
:10169000010101010101020202020202020202032F
:1016A00003030303030303040404040404040505FF
:1016B00005050506060606060707070707080808C2
:1016C00008090909090A0A0A0B0B0B0C0C0C0D0D71
:1016D0000D0E0E0E0F0F0F10101111111212131309
:1016E0001414151516161717181819191A1A1B1B82
:1016F0001C1D1D1E1E1F20202122222324242526DE
:1017000026272829292A2B2C2D2D2E2F3031323215
:10171000333435363738393A3B3C3D3E3F40414221
:10172000434445464748494A4C4D4E4F5051535407
:10173000555658595A5B5D5E5F61626465666869BB
:101740006B6C6D6F7072737577787A7B7D7E80823B
:10175000838587888A8C8E8F91939596989A9C9E84
:10176000A0A2A3A5A7A9ABADAFB1B3B5B7BABCBE94
:10177000C0C2C4C6C9CBCDCFD1D4D6D8DBDDDFE261
:10178000E4E7E9EBEEF0F3F5F8FAFDFF00AF00AEA9
:1017900005010980A101850319012AB70015012659
:1017A000B700950175108100C0050C0901A10185E4
:1017B0000419012AA002150126A0029501751081C5
:1017C00000C005010906A101050719E029E7150078
:1017D00025019508750181029501750881010507AC
:1017E000190029FF150026FF0095067508810005E0
:1017F0000819012905950575019102950175039157
:1018000001C009023B00020100A0FA090400000126
:101810000301010009211101000122400007058197
:10182000030800010904010001030000000921115F
:10183000010001223200070582032000011201008D
:10184000020000000883794C4C00010102000110E5
:10185000034C0069006C007900350038004C000032
:101860000014034B00650079006300610070007391
:1018700000730073000000040309040011241FBE5C
:10188000CFEFDAE0DEBFCDBF12E0A0E0B1E0E0ECE8
:10189000F9E602C005900D92AA3AB107D9F728E0FF
:1018A000AAEAB2E001C01D92AF33B207E1F70E948D
:1018B000002A0C947B340C940000CF93DF9340916A
:1018C0003D0850913E084D5356409A0124583D4FD3
:1018D00021303240C0F020E032E0241B350B609113
:1018E0003B0670913C06FC01CA01240F351FC1E084
:1018F000D0E08217930750F070933C0660933B064C
:10190000DF91CF9108952CE732E0E9CF4491DC01DB
:10191000A35CB94F5C91451781F04C93AC01A5E0F5
:1019200056954795AA95E1F7DE0102C0AA0FBB1FA5
:101930004A95E2F7AD016A2B752B01963196D9CF06
:1019400090913506937061F081110BC09460909373
:1019500035061092500180913406816080933406E0
:1019600008958F3010F09863F2CF880F880F982B6E
:10197000EECF90913506937059F0809336066093C0
:101980003706409338068091340681608093340690
:101990000895E8EDF0E080818E7F80831092E20070
:1019A0001092DA001092E100A0EEB0E08C9181601C
:1019B0008C9380818F77808319BCA7EDB0E08C91E8
:1019C0008E7F8C9380818F7E80831092F1050895A5
:1019D0002091E4003091E50095E6A9012091EC000A
:1019E000822F817020FF06C08091E80080FF06C032
:1019F00080E008952091E80022FD1AC08091FE0544
:101A0000882389F0853089F08091EB0085FD0FC037
:101A10002091E4003091E50042175307F9F291500C
:101A2000E1F684E0089582E0089583E0089581E07E
:101A300008958091000687FF13C08091E80082FF1F
:101A400006C08091E8008B778093E80004C0809105
:101A5000FE058111F2CF08958091FE058823D9F308
:101A60008091E80080FFF8CF8091E8008E77ECCF7E
:101A7000982F9093E900242F762F50E0891731F0AA
:101A80007091EC002091ED005091F00021FD07C015
:101A90009F5F973071F78093E90081E0089530915E
:101AA000EB003E7F3093EB003091ED003D7F3093B3
:101AB000ED003091EB0031603093EB007093EC005F
:101AC0002093ED005093F0002091EE0027FDE0CF31
:101AD00080E00895B0E0A0E0E0E7FDE00C948B33F7
:101AE000C8EDD0E088818F7E8883E7EDF0E08081CB
:101AF0008160808384E082BF81E08093F1058881EA
:101B00008E7F888302EE10E0F80110821092DA00D6
:101B100081EEC82ED12CF601108288818F778883C0
:101B200088818068888388818F7D888319BC109222
:101B3000FE051092FF051092FD051092FC0590EE37
:101B4000E92EF12CF70180818B7F80838881816071
:101B5000888342E060E080E00E94380DF6018081D9
:101B60008E7F8083F801808181608083808188609E
:101B70008083F70180818E7F808388818061888364
:101B8000CDB7DEB7E8E00C94A733FC0180910606E0
:101B90009091070686179707A0F06115710529F443
:101BA0009091E8009E779093E80090E061157105B0
:101BB00051F4911108C08091E80082FF34C080E0A8
:101BC0000895BC01F2CF8091FE058823C1F18530D4
:101BD000C1F18091E80083FD30C08091E80082FD72
:101BE000EACF8091E80080FFE1CF8091F30020915F
:101BF000F200382F6115710519F02830310558F0C1
:101C000091E02830310509F090E02091E8002E772E
:101C10002093E800CBCF81918093F100615071094E
:101C20002F5F3F4FE7CF8091FE05882341F085303D
:101C300041F08091E80083FFBECF81E0089582E00B
:101C4000089583E0089508958091F3050895CF9253
:101C5000DF92EF92FF922FB7F894C090ED05D090ED
:101C6000EE05E090EF05F090F0052FBFA70196017B
:101C7000261B370B480B590BCA01B901FF90EF9097
:101C8000DF90CF9008952FB7F8946091ED05709193
:101C9000EE058091EF059091F0052FBF08959C010E
:101CA000FC0132969FEF80E04191461751F09F3F33
:101CB00019F4411101C0982F8F5F8630A9F79F3F1B
:101CC00009F40895290F311D97FD3A95F9016283B2
:101CD0000895A3E0B0E0EFE6FEE00C94913320918C
:101CE000EA053091EB0528173907A1F09093EB0531
:101CF0008093EA05E091E805F091E905309751F00D
:101D000024E029839B838A830680F781E02DCE011E
:101D1000019609952396E2E00C94AD33A3E0B0E080
:101D2000E4E9FEE00C9491332091E6053091E7055B
:101D300028173907A1F09093E7058093E605E09115
:101D4000E805F091E905309751F023E029839B8362
:101D50008A830680F781E02DCE01019609952396AE
:101D6000E2E00C94AD33FC01680F791F8FEF91E333
:101D70002191822728E030E087FF09C0880F89275A
:101D800021503109C9F7E617F70791F70895880F31
:101D9000F7CFFA01811101C0FB0109950895E5E330
:101DA000F6E0248130E1231B08F420E024838091B5
:101DB00034068160809334060895E5E3F6E02481DB
:101DC00030E1230F08F42FEF2483809134068160E3
:101DD000809334060895E5E3F6E0438120E1421B59
:101DE00008F440E08181628190E00E94B90C08957E
:101DF000E5E3F6E0438120E1420F08F44FEF8181F3
:101E0000628190E00E94B90C0895E5E3F6E06281FA
:101E100020E1621B08F460E08181438190E00E9430
:101E2000B90C0895E5E3F6E0628120E1620F08F461
:101E30006FEF8181438190E00E94B90C0895E5E342
:101E4000F6E08181438162818850990B0E94B90C30
:101E50000895E5E3F6E0818190E043816281089690
:101E60000E94B90C0895809135068695869581501B
:101E700009F48EE00E94A00C0895809135068695A5
:101E800086958F5F8F3008F081E00E94A00C089546
:101E900080934B0180913506837080934A010E94A4
:101EA000001583E0809350010895EF92FF920F9305
:101EB0009701201B31092F3F310519F010F02FEF4A
:101EC00030E02095382F320F08F43FEF832F0F9129
:101ED000FF90EF900895EF92FF920F939701201BD0
:101EE00031092F3F310519F010F02FEF30E0322F7C
:101EF0003095482F430F08F44FEF842F620F0F9156
:101F0000FF90EF900895EF92FF920F93972F09346F
:101F100038F4B701601B71096F3F710519F010F0BB
:101F20006FEF70E0485F5F4F4131510540F0A9010C
:101F3000485F5F4F4131510510F06FEF70E06095E1
:101F4000482F460F08F44FEF842F37FF02C02D5F54
:101F50003F4F359527953595279560913606620F49
:101F6000792F0F91FF90EF900895EF92FF920F93CA
:101F70001F930E0D1F2D111DF90137FF03C0F195A1
:101F8000E195F10924E0EE0FFF1F2A95E1F7EF3FFD
:101F9000F10519F014F0EFEFF0E09A0157FF03C0DC
:101FA00031952195310994E0220F331F9A95E1F77D
:101FB0002E173F070CF4F901E00FF11FEF3FF10579
:101FC00019F010F0EFEFF0E0E095282F3E2F230FEF
:101FD00008F42FEF822F1F910F91FF90EF9008953B
:101FE000EF92FF920F93970195E0099F200D311D0D
:101FF00011242F3F310519F010F02FEF30E020951C
:10200000382F320F08F43FEF832F0F91FF90EF909E
:10201000089522E8241B08F420E0620F08954095FB
:10202000282F429F412D1124842F08950E948E1540
:102030000895FF920F931F93CF93DF93182F062FCE
:10204000F42ED0E0C0E02F2D402F612FCE010E9452
:1020500016102196C034D105B1F7CDB7DEB7E5E053
:102060000C94AA33AC018230910508F408959FEFD7
:10207000413E8EE1580740F49A0195E03695279548
:102080009A95E1F798E0920F61E0E62FE90FFF27BC
:10209000FF1F9F0135952795822F229FF001239FD7
:1020A000F00DF00D11244E175F0738F49FEF920FDB
:1020B000961758F78FEF860F08952F3FE9F361E0E9
:1020C000620FF6CFAF92BF92CF92DF92FF920F9343
:1020D0001F93CF93DF93362F472FE82FF0E0E4577D
:1020E000F94E71110FC0E4918E2F2E2F6E2F722F8B
:1020F000DF91CF911F910F91FF90DF90CF90BF9014
:10210000AF900895C72FD0E02491F22E022F10E057
:1021100056E0659FC0011124EFEFF0E0BF010E947F
:102120006D33832F90E0880F991F35E5369FD001DE
:10213000379FB00D11248A1B9B0B982F990F980F76
:102140006F01CC1ADD0AC09ED001C19EB00DD09E99
:10215000B00D11248B2F499FA0011124452F552725
:102160006F01C41AD50AC09EA001C19E500DD09E19
:10217000500D11245F01A91AB108AC9E6001AD9EFB
:10218000D00CBC9ED00C1124CD2CDD24EC19FD0903
:10219000E09FE001E19FD00DF09FD00D1124ED2FC5
:1021A00062307105A1F050F46115710509F49ECFFC
:1021B0006130710581F0EB2F852F98CF6430710568
:1021C00069F080F06630710509F490CFF4CFE22F0A
:1021D0002B2F8D2F8BCFE22F252F88CFEB2F822F08
:1021E0002D2F84CF2B2F8F2DE52F80CF80E00895CA
:1021F000F894E82FE295EF70F0E031A1282F2F70CE
:1022000081E090E001C0880F2A95EAF7982F909519
:10221000932391A392A1892B82A3789408959091FE
:102220006C0392FF06C0282F28712830F9F4877FAD
:10223000846093FF06C0282F28712831F1F4877E2F
:10224000846120916D0320FF06C0382F387138302B
:10225000D9F4877F816021FF06C0282F287128319B
:10226000D1F4877E816194FD877E0895282F2471A3
:102270002430F9F68B7F8860DCCF282F247124313D
:1022800001F78B7E8861DDCF382F3171313019F73E
:102290008E7F8860E0CF282F2171213121F78E7E3B
:1022A0008861E1CF972F7A30B8F46630A8F4843093
:1022B00098F470E026E0929F600D711D1124FB01DF
:1022C0009CE3899FE00DF11D1124EE0FFF1FE455E3
:1022D000FF4F85919491089580E090E00895CF9309
:1022E000DF93EC0182389105B9F108F041C08133E8
:1022F000910509F49FC050F58932910509F48FC00A
:102300008A9709F49EC0C11520E5D20708F0BDC028
:10231000C11530E4D30708F00AC1C03ED10508F06A
:10232000A5C0CD3CD10508F000C1C83AD10508F0E0
:102330008FC0C53AD10508F0F0C0C130D10539F1E0
:10234000209729F1C430D10510F546C08533910599
:1023500009F460C0C997B9F680916C03837009F0E5
:1023600044C180916D0383FF12C0C9E2D0E00FC069
:10237000833E9105A1F178F4803E910509F1823EFA
:10238000910509F0C0CF80916C0382FD21C0CE0180
:10239000DF91CF910895863E910561F1873E9105C9
:1023A00071F1843E910509F0AECF80916D0381FFFC
:1023B000EECF80916C03C7EED0E084FD0DC0E7CF77
:1023C00080916C0380FD33C090916D0390FFDFCF4F
:1023D000C3EED0E084FFDBCFD0E0C0E0D8CF809167
:1023E0006C0382FDFFC090916D0390FDFEC084FFE1
:1023F000CECFF2CF80916C0383FDDDCFC8CF80912B
:102400006C0383FDF5C090916D0391FFF0CFC4EE96
:10241000D0E0BDCF80916C0385FFB9CFA6CF80916E
:102420006C0385FDE8C080916D0383FFB0CFC9E3E5
:10243000D0E0ADCF80916C0386FFA9CFCAE2D0E097
:10244000A6CF80916C0386FFA2CFC1E3D0E09FCFDF
:10245000C13CD10508F6C85AD0E0CC0FDD1FC95ADF
:10246000DE4F0990D881C02DD46491CFC11540E2D0
:10247000D40708F0AAC0C11581E0D80708F087CFBB
:10248000C83ED10508F483CFA7CFC03622E5D207D6
:1024900018F5C03432E5D30708F053C0C03242E526
:1024A000D40708F047C0C11582E5D80708F47FC0FB
:1024B0002C2F2695269540E2249F900111248C2FE5
:1024C0008370C1E0D0E002C0CC0FDD1F8A95E2F737
:1024D000C22BD32BDD685BCFC03A22E5D20760F474
:1024E000C03832E5D30708F441C0CF71D0E0DC2F0B
:1024F000CC27C46FD06A4BCFC03C42E5D40708F468
:102500004AC0C03E82E5D80708F066CFDC2FCC2752
:10251000CC27DF71C06FD06A3ACFC55AD0E0CC5A11
:10252000DE4FC881D0E0D06432CFD06530CFDF70CD
:10253000D06A2DCFCF71D0E0DC2FCC27C16FD06A0D
:1025400026CF2C2F26952695277080E2289F900174
:1025500011248C2F8370C1E0D0E002C0CC0FDD1FAE
:102560008A95E2F7C22BD32BDC6811CF2C2F26954E
:102570002695277040E2249F900111248C2F8370B0
:10258000C1E0D0E002C0CC0FDD1F8A95E2F7C22B7C
:10259000D32BDA68FCCE8C2F8F710E940F11C82FBD
:1025A000D0E0DC2FCC27CC27DF71D062F0CE8C2F8F
:1025B0008F710E940F1135E0D695C7953A95E1F7D6
:1025C000CF709C2FEC01D069E2CE8D2F8F710E94CD
:1025D0000F1190E0982F882788279F719C012C2B42
:1025E000E901E3CFC2EED0E0D2CEC0EED0E0CFCE54
:1025F000C6EED0E0CCCEC5E3D0E0C9CE0E94430EFB
:102600000895809118038111109218030895809500
:1026100090911703982390931703089580910C03CA
:102620009091DB02981301C008958F5F8770FACFF5
:10263000B0E0A0E0EEE1F3E10C948A337C0100917C
:102640006A0310916B038091190390911A03082B70
:10265000192BCFE0D0E0CC24C394D12CBC2EC601E2
:102660000C2E02C0880F991F0A94E2F78023912351
:10267000892B49F4219790F7B12C8B2DCDB7DEB77C
:10268000E9E00C94A633B7018C2F0E9452110E94EE
:102690006F11019779F3F1CFCF93DF93EC010E9493
:1026A0001813BE010E9452110E946F11DF91CF9149
:1026B00008959A3078F5863068F5E82FF0E086E0E6
:1026C000989FE00DF11D11249E2F977083E0F695E1
:1026D000E7958A95E1F7EE0FFF1FEE0FFF1FEB5412
:1026E000FD4F50E040E080E0219130E0092E02C033
:1026F000369527950A94E2F721703327042E01C0FE
:10270000220F0A94EAF7822B4F5F5F4F4430510546
:1027100059F7089580E008959A3098F5863088F545
:10272000E82FF0E086E0989FE00DF11D11248E2F38
:10273000877041E001C0440F8A95EAF783E0F6957F
:10274000E7958A95E1F7EE0FFF1FEE0FFF1FEB54A1
:10275000FD4F30E020E070E05191DF011197CB0197
:10276000022E02C0969587950A94E2F781708195B2
:102770008527842385278C932F5F3F4F2430310595
:1027800059F708959C01267033272630310531F41E
:10279000886090936B0380936A030895877FF9CFD5
:1027A00021E030E002C0220F331F8A95E2F7209526
:1027B000309580916A0390916B03822393230E944A
:1027C000C213089590910D038095892380930D0382
:1027D000282F277091F4282F082E000C330B921706
:1027E000130659F090916D0392FF07C0859585956A
:1027F00085950E94D01310920D03089521E030E0DA
:1028000002C0220F331F8A95E2F780916A039091EC
:102810006B03822B932B0E94C213089590931A038B
:10282000809319030895FC0183819481892B29F0F9
:102830008081918189238F3F51F480E00895843F06
:10284000E1F717C0883EA8F0813FB9F712C0808138
:1028500091810E944C1392959F70963099F358F491
:10286000925F9F70923048F7803F19F040F7883EA2
:1028700020F781E008959A5FF4CFB0E0A0E0E3E4B0
:10288000F4E10C948B336C017B0164E670E088E723
:102890000E94CB30EC0197FD12C010E000E0F60181
:1028A000E00FF11F849164E670E00E943731EC0183
:1028B000892B29F40F5F1F4F0E151F0581F70E940A
:1028C000AD31CE01CDB7DEB7E8E00C94A7338091EF
:1028D000E4059091E505911103C091E089270895E1
:1028E000882369F062E070E08EE897E10E943D1471
:1028F000892B19F08091E40508951092E4058091E8
:10290000E405EBCFCF93C091E4058091E5058823E2
:10291000D1F00E94430E605A75418F4F9F4F6093D4
:10292000E0057093E1058093E2059093E305C11102
:1029300008C062E070E08CE897E10E943D14892BAA
:1029400029F0C091E4058C2FCF91089581E0809308
:10295000E405F7CF0F931F93CF93DF938B01EA0129
:102960009091FE05943061F58093E9008FEF90918E
:10297000E800815095FD06C095ED9A95F1F70000AD
:102980008111F5CF8091E80085FF1AC00E94E80C04
:10299000811111C08091E80085FD06C08091E8009A
:1029A0008E778093E800F2CFF80181918F018093B8
:1029B000F100219779F78091E8008E778093E80005
:1029C000DF91CF911F910F91089543E050E0BC013A
:1029D00082E00E94AA140895CF93DF93EC0148E0AF
:1029E00050E0BC0181E00E94AA1488E0FE01A4EF3F
:1029F000B5E001900D928A95E1F7DF91CF910895AE
:102A0000539A3BB1377F2BB128604FB7F89480E2DF
:102A100095E0FC015191CF0168E02BB9000000C0A6
:102A200057FF3BB9550F000000C000C000C03BB9C4
:102A300000C06A9591F7F5E0803E9F0751F74FBFC0
:102A40008FE594E00197F1F700C000000895B0E031
:102A5000A0E0EDE2F5E10C9489337C015B016A01B1
:102A60008091570301E010E08A3010F40AE010E092
:102A7000C1E0D0E0B501C701F6010995811104C09C
:102A800021960C171D072CF4CDB7DEB7EAE00C94A5
:102A9000A533CC9F9001CD9F300D300D112490E0D7
:102AA00080E045E34A95F1F700000196821793070D
:102AB000C1F7E0CF80912503811110C08091D8002B
:102AC00080618093D8008AE18A95F1F700C08091F7
:102AD000D90080FF0AC081E08093250381E09091B6
:102AE0002503913009F080E0089582E0809325036A
:102AF0000E94C90C1092FE05F1CF0E945A1588233E
:102B000059F0E091E805F091E905309729F001903E
:102B1000F081E02D0995089580E00895FF920F93CC
:102B20001F93CF93DF93EC01F62E042F122F0E94F8
:102B30005A1581110FC0CD31D1057CF06D97FE0182
:102B4000EE0FFF1FEC0FFD1FE05EFA4FF1820083D6
:102B5000128303C0CD31D10594F3CDB7DEB7E5E0E4
:102B60000C94AA33CF93C82F0E945A15882329F0BA
:102B700081E0CD3128F080E003C081E0C034D8F797
:102B8000CF910895A8E0B0E0E8ECF5E10C94813332
:102B9000282E7C836B8320914D018DE0289F802D12
:102BA00011248D83835F8983813410F030E439836D
:102BB0000E945A15882329F089818E3110F09DE1F9
:102BC00099830E945A15811105C0ED81ED3110F4F1
:102BD000FDE1FD83209108062A839D81892F90E0E5
:102BE00098878F83880F991FFC01E255FE4F6F0174
:102BF000822D90E09C012F5F3F4F3E832D83898182
:102C00009F81981730F00E94B2152896E2E10C944B
:102C10009D33EF81F885E659FD4F808190914E01FB
:102C20008923F9F030903606409037068D819E81D9
:102C3000885F994F3C01522C10E0FA815F16D8F062
:102C400020913806129F112D1124632D742D812F90
:102C50000E946210462F282F672F8F8198850E942F
:102C600016102F8138852F5F3F4F38872F8332E032
:102C7000C30ED11CC4CFF30181913F01F601A4AC76
:102C8000A81ABB0885ACF3018781881A9908AA9C09
:102C90009001AB9C300D300D1124889CC001899CA3
:102CA000900D900D1124820F931F0E9432102091DD
:102CB000390631E0230F08F42FEFF301EE0FFF1F69
:102CC000E850F64045895689F12CE12C429FE12CD1
:102CD000529FE00CF11C1124082F9401A501632DD3
:102CE000742D812FEB81FC810995362E472E53944C
:102CF000182FA3CFB0E0A0E0E0E8F6E10C94893310
:102D00007C01C0914D018DE0C89FC02D11241DE0B4
:102D10001C0F113408F010E40E945A15882319F092
:102D20001E3108F01DE10E945A15811103C0CD31FA
:102D300008F4CDE12091390631E0230F08F42FEF9C
:102D400030E050E040E06FEF7FEF80E090E00E94E5
:102D5000CC336901D0E001E0B12CA12C2C2FC1179C
:102D600040F0812F0E94B215CDB7DEB7EAE00C9497
:102D7000A533FE01E659FD4F808190914E018923D4
:102D800029F1809108068150082E000C990B87FFCD
:102D90001FC0B60130913906300F08F43FEFA5018E
:102DA000639F412D739F400D511D11246091360684
:102DB0007091370680913806F70109950E946210DC
:102DC000462F282F672FCE010E9416102196C6CFBE
:102DD000FC01E85FF94F318932130AC0FC01EE0FA4
:102DE000FF1FE85FF94F618D728D6C157D0590F2C4
:102DF0000197CDCF0F931F930E945A15882329F076
:102E00000E94430E1F910F9108950E94430E00915E
:102E100058031091590320915A0330915B03600FBE
:102E2000711F821F931FEECFE5E3F6E085E08083FC
:102E30008091510190915201A0915301818392831D
:102E4000A3838FE784838FEF858346E050E06CE1B6
:102E500070E0CF010E9447341092340608958091AB
:102E6000170390911603892B8093AC02909118035D
:102E7000992391F0892B8093AC0220E08EEA92E0B6
:102E8000FC013191CF0131112F5FF2E0843B9F07AC
:102E9000B9F721110E94011348E050E06EE073E0A1
:102EA0008CEA92E00E941334892BA9F088E0ECEAC6
:102EB000F2E0AEE0B3E001900D928A95E1F7E09187
:102EC000E805F091E905309731F00280F381E02DBB
:102ED0008CEA92E00995089510921703EEEAF2E069
:102EE00086E0DF011D928A95E9F790E080E00E947C
:102EF0008E0E90E080E00E94690E109216030E94F0
:102F00002F170895AAE2B0E0E8E8F7E10C949033B7
:102F100080E096E02091F100FC012193CF01F6E0E2
:102F200088309F07B9F780910106833009F470C09B
:102F3000B8F4813009F447C0823009F4B1C08091FF
:102F4000E80083FF7EC280910006909101069A30CE
:102F500008F077C2E92FF0E0E358FB4C0C94EB3318
:102F60008A3009F48CC08B3009F46FC0893039F78E
:102F700080910006813219F7809104069091050630
:102F80000297E8F68091E800877F8093E8008091BF
:102F9000E80082FF38C09091F3008091F200029720
:102FA00031F48091F100813011F0863021F480916C
:102FB000F1008093F3058091E8008B778093E8001F
:102FC0000E94190DBCCF80910006813A09F0B7CF5D
:102FD0008091E800877F8093E800809104069091BB
:102FE0000506892B61F468E084EF95E070E00E94AB
:102FF000C50D8091E8008B778093E800A0CF60E05A
:1030000090E080E0F3CF8091FE058111C0CF97CF93
:1030100080910006813A09F092CF80910406909148
:103020000506892B09F08BCF8091E800877F80937C
:10303000E8008091E80080FFFCCF80914C018093F4
:10304000F1008091E8008E77B9CF8091000681323F
:1030500009F075CF8091040690910506892B09F03F
:103060006ECF8091E800877F8093E8000E94190D61
:103070008091020680934C010E946C1760CF809172
:103080000006813209F05BCF8091E800877F809352
:10309000E8000E94190D809103068093F2054FCF3E
:1030A00080910006813A09F04ACF8091E800877F3D
:1030B0008093E8008091E80080FFFCCF8091F205CA
:1030C000BECF803899F0823809F0BBC180910406E8
:1030D0008F70873008F0B5C18093E9008091EB00D4
:1030E00085FB882780F91092E90006C08091FC05D5
:1030F0009091FD05911182609091E800977F9093E7
:10310000E8008093F1001092F1008091E8008E7742
:1031100094C1882309F482C1823009F092C1809160
:103120000206811185C1809104068F702FEF280F50
:10313000263008F086C18093E9002091EB0020FF43
:1031400077C1933031F48091EB0080628093EB0083
:103150006FC19091EB0090619093EB0021E030E023
:1031600001C0220F8A95EAF72093EA001092EA0044
:103170008091EB008860EACF811163C11091020653
:103180001F778091E3008078812B8093E30080910A
:10319000E800877F8093E8000E94190D8091E80085
:1031A00080FFFCCF8091E30080688093E30082E0A1
:1031B000111183E08093FE0544C18058823008F0ED
:1031C00040C180910206909103068C3D23E0920756
:1031D000A1F583E08A838AE289834FB7F894DE0100
:1031E000139620E03EE051E2E32FF0E050935700C9
:1031F000E49120FF03C0E295EF703F5FEF708E2FE8
:1032000090E0EA30C0F0C7968D939D932F5F2431F4
:1032100059F74FBF8091E800877F8093E8006AE20A
:1032200070E0CE0101960E94C50D8091E8008B7779
:103230008093E80006C1C096E7CF40910406509104
:103240000506292F33272330310509F444C078F5CA
:103250002130310509F46FC08BE390E0E2E0F8E142
:103260002230310509F0EDC02091E800277F20933E
:10327000E80020910606309107068217930708F4AC
:103280009C0140E02115310509F064C0411162C084
:103290008091E80082FDC9CF8091FE05882329F244
:1032A000853019F28091E80083FFF2CFBECF213242
:1032B0003105A9F12232310509F0C3C0411551058C
:1032C00009F443C04130510509F0BBC082E390E0EE
:1032D000E0E9F7E1C9CF992781309105C1F0009766
:1032E00059F0029709F0ADC0EFE4F8E1E4918E2FB8
:1032F00090E0EFE4F8E107C0E7E7F8E1E4918E2F12
:1033000090E0E7E7F8E1009709F49BC0ADCFE1E674
:10331000F8E1E4918E2F90E0E1E6F8E1F4CF411579
:10332000510571F04130510509F08BC089E090E002
:10333000EDE2F8E199CF82E190E0EDE3F8E194CF9E
:1033400089E090E0E4E1F8E18FCF80E490E0E2EC06
:10335000F7E18ACF8091FE05882309F466CF853096
:1033600009F463CF8091E80083FD5FCF8091E8008E
:1033700082FD8ECF8091E80080FF84CF9091F30092
:103380008091F2002115310519F08830910550F037
:1033900041E0089709F040E08091E8008E77809343
:1033A000E80070CF44914093F100319621503109EB
:1033B0000196E8CF803809F044C08091E800877F0B
:1033C0008093E8008091FF058093F1009ECE8111EB
:1033D00038C0109102061230A0F58091E800877F76
:1033E0008093E8001093FF050E94190D112311F03E
:1033F00084E005C08091E30087FDFACF81E08093EF
:10340000FE0542E061EC81E00E94380D42E261EC91
:1034100082E00E94380D8091FE0513C08091020663
:10342000813079F481E0933009F080E08093FD05EC
:103430001092E9008091E800877F8093E8000E9465
:10344000190D8091E80083FF0AC08091E800877F12
:103450008093E8008091EB0080628093EB00AA9655
:10346000E3E00C94AC330E946C172FEF84E39CE0F4
:10347000215080409040E1F700C0000088E19AE0D0
:103480000FB6F894A895809360000FBE90936000EB
:10349000FFCF882321F00E9407130E942F17089561
:1034A000882339F090911703982B909317030E946B
:1034B0002F170895882391F19CEF980F913A80F48B
:1034C000EEEAF2E024EB32E09191891303C0DF01D0
:1034D00011971C922E173F07B9F70E942F170895D6
:1034E00090E2980F983050F4877091E001C0990FE6
:1034F0008A95EAF7892F0E940713EFCF9BE5980F73
:10350000933028F490E080E00E948E0E0895885A4F
:10351000893120F490E080E00E94690E0895CF93F5
:10352000C82F8823B1F08CEF8C0F813A00F5EEEABA
:10353000F2E084EB92E0DF012D91C21761F08A176F
:103540009B07D1F76C2F8CEA92E00E944F0E0E94ED
:103550002F17CF9108952191C21303C0DF01119756
:103560001C928E179F07B9F70E942F17EBCF80E2AE
:103570008C0F883068F4C77021E030E001C0220F62
:10358000CA95EAF780911703822B80931703DFCF48
:10359000EBE5EC0FE33040F4F0E0EC5AFE4F8081B5
:1035A00090E00E948E0ED5CFC85AC93190F6EC2F0C
:1035B000F0E0EE0FFF1FE95AFE4F808191810E94DB
:1035C000690EC7CF1F93CF93DF93182FEB010E9493
:1035D0008F1A209739F4812F0E945A1ADF91CF91C8
:1035E0001F9108958FE99FE00197F1F700C0000057
:1035F0002197EFCFA4E0B0E0E0E0FBE10C94903342
:1036000060914F0370915003809151039091520348
:103610000E94270E11E0643671058105910570F155
:103620000E94FA166E5F7F4F8F4F9F4F69837A8398
:103630008B839C838091290190912A01895C9C4F06
:103640004091280150E04530510510F044E050E031
:10365000BE016F5F7F4F0E94203485E090E00E94A2
:10366000F732182F882351F00E94430E60934F03C6
:10367000709350038093510390935203812F2496AB
:10368000E3E00C94AC33B0E0A0E0E9E4FBE10C949F
:103690008B33C82F7B01D42F6901FB0160817181BD
:1036A000828193810E94270E643671058105910500
:1036B00010F4DD2359F10C2E000CDD0BFE0183E02C
:1036C000EE0FFF1F8A95E1F7E050FF4F8181928155
:1036D000895C9C4F408150E00417150708F4A8014D
:1036E000B6010E942034CE010E94F732C82F8823F1
:1036F00039F00E94430EF7016083718382839383C4
:103700008C2FCDB7DEB7E8E00C94A733C1E0F8CF3B
:10371000A7E0B0E0EEE8FBE10C948F3386E0E5E350
:10372000F6E0DE01119601900D928A95E1F7809105
:103730001F058F8347E050E068E473E0CE010196F7
:103740000E94133441E0892B09F440E007E010E0C7
:103750009E012F5F3F4F63E573E086E00E94431BAD
:103760002796E4E00C94AB330F931F93CF93DF9332
:10377000EC0145E050E06DE373E00E94133441E05A
:10378000892B09F440E005E010E09E016FE273E050
:1037900082E00E94431BDF91CF911F910F9108950A
:1037A0004F925F927F928F929F92AF92BF92CF92F1
:1037B000DF92EF92FF920F931F93CF93DF930F92BD
:1037C000CDB7DEB7C62E4A015901482E880F5508DD
:1037D000C2010E94F732782E882309F473C0C20117
:1037E00033E0880F991F3A95E1F7FC01E050FF4F55
:1037F000438150E04115510511F041E050E0805007
:103800009F4FFC0164817581695C7C4FCE010196FC
:103810000E942034F40160817181828193810E9431
:10382000270E643671058105910540F4B701C80182
:103830000E94B30E9981891709F444C00C2C000C26
:10384000DD08C6010E94F732782E811113C0712C59
:10385000872D0F90DF91CF911F910F91FF90EF90E7
:10386000DF90CF90BF90AF909F908F907F905F90B0
:103870004F900895C60123E0880F991F2A95E1F71C
:10388000FC01E050FF4F438150E0E416F50608F4D8
:10389000A70180509F4FFC0164817581695C7C4F5A
:1038A000C5010E942034B701C8010E94B30E99815E
:1038B0008913CDCF0E94430EF4016083718382830C
:1038C0009383C6CFA701B801C5010E942034C0CFA1
:1038D000A1E0B0E0EEE6FCE10C948A33EE24E39440
:1038E000F12C03E413E09E012F5F3F4F43E353E0CD
:1038F00064E083E00E94D01BC82E882339F100E0E9
:1039000080E01DC0D0905D03D00E2D2D30E0A901C8
:1039100045585C4F7A01E1E0F0E0EC0FFD1FE00F4D
:10392000F11D1081FA019081191BB12E1B149CF01E
:10393000912F17FD90E0191B11111BC00F5F909183
:103940005C030917F8F281110E94FE128C2D21965A
:10395000E9E00C94A633BA94F70180818F5F8083ED
:10396000D11005C070E060E08AEA0E94E21A8C2D56
:10397000DDCF1F5FF701808181508083D11005C0AA
:1039800070E060E089EA0E94E21A8C2DD5CFA5E0B4
:10399000B0E0EDECFCE10C948B336B0185E0E82E9C
:1039A000F12C08E313E09E012F5F3F4F4BE253E001
:1039B00061E080E00E94D01B882349F095E0FE0181
:1039C0003196A6E2B3E001900D929A95E1F795E069
:1039D000E6E2F3E0D60101900D929A95E1F7259683
:1039E000E8E00C94A73390916D0392FB222720F915
:1039F000281779F080FB92F990936D0360916C0326
:103A000070916D0384E090E00E94753482E00E9422
:103A1000E213089567EE7EEF90E080E00E94753437
:103A200060E082E090E00E94573460E083E090E044
:103A30000E94573410921A031092190360E074E147
:103A400084E090E00E94753460E086E090E00E949F
:103A500057346FEF87E090E00E94573440E050E029
:103A6000BA0188E090E00E94693460E08DE090E067
:103A70000E94573440E050E0BA0188E190E00E9493
:103A8000693460E087E190E00E94573440E050E004
:103A9000BA018CE190E00E94693470E060E080E25D
:103AA00090E00E94753440E050E0BA0188E190E077
:103AB0000E94693440E050E0BA018FE090E00E943B
:103AC000693440E050E0BA0183E190E00E9469343B
:103AD00008951F920F920FB60F9211242F933F93C8
:103AE0004F935F936F937F938F939F93AF93BF9306
:103AF000CF93DF93EF93FF93D091E900DF70809134
:103B0000EC00C82FC17080FDC0E81092E9008091E0
:103B1000F000877F8093F00078940E9482171092C3
:103B2000E9008091F00088608093F000CD2BCF7089
:103B3000C093E900FF91EF91DF91CF91BF91AF91D9
:103B40009F918F917F916F915F914F913F912F91B5
:103B50000F900FBE0F901F9018951F920F920FB6E7
:103B60000F9211242F933F934F935F936F937F9303
:103B70008F939F93AF93BF93EF93FF938091E10057
:103B800082FF09C08091E20082FF05C08091E100C0
:103B90008B7F8093E1008091DA0080FF24C08091C8
:103BA000D80080FF20C08091DA008E7F8093DA00F9
:103BB0008091D90080FF9DC080E189BD82E189BDEF
:103BC00009B400FEFDCF81E08093FE058091F105F0
:103BD000811109C00E94C90C0E946A0D8091E20007
:103BE00084608093E2008091E10080FF17C08091A3
:103BF000E20080FF13C08091E2008E7F8093E2009C
:103C00008091E20080618093E2008091D800806220
:103C10008093D80019BC85E08093FE058091E10077
:103C200084FF2BC08091E20084FF27C080E189BD22
:103C300082E189BD89B5982F917080FFFBCF80917B
:103C4000D8008F7D8093D8008091E1008F7E809393
:103C5000E1008091E2008F7E8093E2008091E2009B
:103C600081608093E2008091FF05882309F447C0BA
:103C700084E08093FE058091FE058091E10083FF42
:103C800027C08091E20083FF23C08091E100877FFD
:103C90008093E10082E08093FE051092FF05809101
:103CA000E1008E7F8093E1008091E2008E7F80931F
:103CB000E2008091E20080618093E20042E060E0F7
:103CC00080E00E94380D8091F00088608093F000C1
:103CD000FF91EF91BF91AF919F918F917F916F91E4
:103CE0005F914F913F912F910F900FBE0F901F90BA
:103CF000189519BC1092FE051092F10574CF8091B1
:103D0000E30087FD93E09093FE05B5CF78941F9272
:103D10001FB61F9211248F939F93AF93BF938091EF
:103D2000ED059091EE05A091EF05B091F00501969B
:103D3000A11DB11D8093ED059093EE05A093EF05B5
:103D4000B093F005BF91AF919F918F911F901FBECF
:103D50001F9018959C014FB7F8948091ED059091B4
:103D6000EE05A091EF05B091F0054FBF821B930BBC
:103D700008952FB7F8948091ED059091EE05A091EC
:103D8000EF05B091F0052FBF08950F931F93CF93C8
:103D9000DF93C62FD42F022FFC0182818823A9F044
:103DA000609333060E94B91E9093320680933106C9
:103DB000C77081E001C0880FCA95EAF70E94501AC7
:103DC000DF91CF911F910F91089580913306681371
:103DD00034C080913106909132060E94AA1E883C20
:103DE000910558F510E21D0FCD17B9F080E28C0F48
:103DF000883040F4C77081E001C0880FCA95EAF7A7
:103E00000E94491A183048F481E09D2F977001C034
:103E1000880F9A95EAF70E94501A70E060E0802FB0
:103E20000E94E21A183060F6D77081E001C0880F56
:103E3000DA95EAF70E94491AC3CFC77081E001C042
:103E4000880FCA95EAF7F6CFA5E0B0E0EAE2FFE115
:103E50000C9487337C01FC0183819481892B31F0A0
:103E60008081918189238F3F09F0EFC32596ECE093
:103E70000C94A3330E941813182F682F89819A81FC
:103E80000E948C1369817A81812F0E9452118C01CA
:103E9000FC01E851FC47E730F10588F5E957FB4C98
:103EA0000C94EB3326E241EE61EEC7010E94C51E81
:103EB00080910D038770D1F2F70182818823B1F2DE
:103EC00080916D0382FFD2CF82E00E94E213CECFB9
:103ED00027E245EE65EEE9CF26E241EE60EEE5CF62
:103EE00027E245EE64EEE1CF26E241EE62EEDDCF61
:103EF00027E245EE66EED9CF28E241E0EBCFF701AD
:103F00008281882309F4C8C310923306C8019057F0
:103F1000839708F0ABC384E090E00E944134909313
:103F20006D0380936C03F801E150F047E232F10534
:103F300020F4E257FB4C0C94EB3380916C038160CE
:103F400080936C0395C080916D03886080936D03AE
:103F50008FC080916C038260F3CF80916C0384608A
:103F6000EFCF80916C038860EBCF80916D0381600F
:103F7000EDCF80916D038260E9CF80916C03806109
:103F8000DFCF80916C038062DBCF80916C03806413
:103F9000D7CF0E946C1780916C038068D1CF80913D
:103FA0006C038C60CDCF80916D038360CFCF809107
:103FB0006C038E7FC5CF80916D03877FC7CF8091C3
:103FC0006C038D7FBDCF80916C038B7FB9CF8091C7
:103FD0006C03877FB5CF80916D038E7FB7CF8091C3
:103FE0006D038D7FB3CF80916C038F7EA9CF8091BD
:103FF0006C038F7DA5CF80916C038F7BA1CF0E9436
:104000006C1780916C038F779BCF80916C03837FBB
:1040100097CF80916D038C7F99CF80916C0382FB49
:10402000992790F921E0922790FB82F990FB83F980
:1040300087CF80916D03982F909591708E7F892BFB
:1040400090FB81F983CF90916C03892F8F7B96FF32
:10405000806476CF0E946C1790916C03892F97FB38
:1040600087F980586DCF61E08EE090E00E94573470
:1040700060916C0370916D0384E090E00E94753450
:104080000E946C1715CF60E0EFCF90916C03892FE1
:104090008F7E94FF806154CF90916C03892F8E7F27
:1040A00090FF81604DCF90916D03892F877F93FFA3
:1040B00088604CCF85E3F9C28091350691E089276D
:1040C0008093350610925001809134068160809370
:1040D0003406EECE43E35FE06DE37FE00E94C90E5D
:1040E000E7CE4DE35FE063E37FE0F8CF4FE15FE0D1
:1040F00069E27FE0F3CF49E25FE06FE17FE0EECF7E
:1041000045E05FE062E17FE0E9CF42E15FE065E04A
:104110007FE0E4CF4BEE5EE068EF7EE0DFCF48EF7C
:104120005EE06BEE7EE0DACF4FEC5EE06DED7EE0C0
:10413000D5CF4DED5EE06FEC7EE0D0CF81E00E9408
:10414000A00CB6CE0E946C17FFEF24E33CE0F150C8
:1041500020403040E1F700C0000087E797E79093E8
:1041600001088093000888E19AE00FB6F894A895BA
:10417000809360000FBE90936000FFCF6FEF7FEFE2
:1041800090E080E00E9475340E94331A80916D03A4
:1041900082FB882780F991E089270E94F31CF701B0
:1041A000828100811181882309F443C0C8010E94E3
:1041B0001813D82E682FC8010E948C13B8018D2DBA
:1041C0000E9452110E946F118C01882EF701A2806B
:1041D000958092943FE0932280910D038770C1F007
:1041E000CA2CAA20B1F0812F807F803421F080E298
:1041F000800F883068F080916D0382FF09C082E0F3
:104200000E94E21380910D038770CC24C394811126
:10421000C12CB12EB2942FE0B222FBE0FB1508F4C2
:1042200074C0EB2DF0E0E055FB4C0C94EB3380E0D8
:10423000B4CFC8010E945913D82EC0CF212F2F70A0
:10424000D22E107F19F0D29490EFD922AA20B9F083
:10425000DD2069F080E2800F883010F0811009C005
:1042600080911703D82AD09217030E942F17802F0E
:104270004AC080911603D82AD0921603F6CF802F19
:104280000E945A1ADD2009F440C0005E083010F088
:10429000811004C08D2D0E94071306C0D094809118
:1042A0001603D822D09216030E942F172EC0312F4A
:1042B0003F70D32E107F103219F0D29480EFD822A5
:1042C000882089F081E0881609F47CC0AA2009F4CE
:1042D00086C0992009F47CC0F701858180FFC7CF93
:1042E0008F70858375C020916D0322FD43C0AA2085
:1042F000D9F1DD2039F080911703D82AD092170325
:104300000E942F1780E00E948F1AEB2DE850FF0BC0
:10431000349710F40E947D15CC20A9F080910D03F4
:1043200080FD11C0F70112828595859585950E94C3
:10433000FE13C7010E94241F80910D03859585956A
:1043400085950E94D01385E0F701DE01119601905A
:104350000D928A95E1F709811A81C8010E945913CB
:10436000B8010E94521182CD80E00E945A1ADD20CD
:1043700061F290CFAA20A1F0909118038D2D892B86
:10438000911003C00E94501AC0CFE1E09E12FACFF4
:1043900022FFBBCF891709F4B8CF80931803B5CF9C
:1043A000911006C00E9401138D2D0E94491AADCFB5
:1043B000F1E09F1609F4A9CF8D2D0E94491A0E94A1
:1043C0000113A3CFAA2031F025E0291508F49DCFD1
:1043D0008D2DD8CF34E0391508F497CFE5CF99204B
:1043E00019F3F9E38F122AC12FEF37EE83E0215042
:1043F00030408040E1F700C0000020C1812F869549
:104400008695837061F0813009F07FCFC801937089
:10441000A11002C080E090E00E94690E76CFC80132
:104420009370A11002C080E090E00E948E0E6DCFCC
:10443000812F837009F03FC0A11067CF402F4295B4
:1044400046954770440F440F802F8F7090E0042EE4
:1044500002C0880F991F0A94E2F730E020E004FFC1
:1044600009C02FE030E002C0220F331F4A95E2F767
:1044700020953095169516951370123099F078F4B2
:104480004091190350911A03113039F0822B932B6C
:10449000842395230E940E1438CF842B952B822BD6
:1044A000932BF8CF822B932B2091190330911A0371
:1044B00082279327EFCF8695AA2011F0812F817054
:1044C000882309F422CF402F429546954770440F28
:1044D000440F802F8F7090E0042E02C0880F991F28
:1044E0000A94E2F730E020E004FF09C02FE030E05A
:1044F00002C0220F331F4A95E2F72095309516959A
:1045000016951370123099F078F440916A03509127
:104510006B03113039F0822B932B842395230E9457
:10452000C213F3CE842B952B822B932BF8CF822BA7
:10453000932B20916A0330916B0382279327EFCF4F
:104540001F70AA2029F0812F0E94FE13802F1ACFFE
:10455000802F0E94491A812F0E94D013D6CE802F1F
:1045600092EF891699F1981570F0E0EF8E16D1F060
:10457000F1EF8F1691F0AA2009F45BC0911077CE6D
:10458000812F8F7127C023EF821639F134EF831208
:10459000F2CF80916D0382FD2EC0812F8F71AA20F2
:1045A000D9F218C0AA2069F084E0891508F4ADCECC
:1045B0001F7181E090E002C0880F991F1A95E2F701
:1045C000B8CF95E0991508F4A0CEF2CF812F8F7166
:1045D000A110C2CF0E94FE1398CE90E080E0AA20E6
:1045E00009F49DCF1F7181E090E002C0880F991FF0
:1045F0001A95E2F794CFAA2089F01F71812F0E94AB
:10460000FE1380916D0382FF07C0E8E01E9FC0018A
:104610001124836080930D03812FDCCF81E00E9401
:10462000E213F1E0F91508F070CE82E00E94E21387
:104630006CCE992039F0893309F4D6CE802F0E94B0
:104640005A1A63CE812F8F7187CF85E0DE011196D4
:1046500001900D928A95E1F7F701228189819A8173
:10466000211108CC0E945913182F0CCC0631FCE7FD
:104670001F0749F5809117038A7A91E009F490E0C9
:104680009093B40269E2811165E38CEA92E00E94A2
:104690004F0E0E942F170CCC06312CE7120799F50C
:1046A0008091B402811106CD89E2EEEAF2E024EBBA
:1046B00032E09191891303C0DF0111971C922E17EC
:1046C0003F07B9F7E6CF03303CE7130709F456CDAF
:1046D00050F401159CE7190709F434CD01301C474B
:1046E00009F452CD5CCD0B35FCE71F0709F49FCDD3
:1046F0000C352CE7120709F449CD0A351C4709F09F
:104700004ECD81E04ACD809117038272F801E052CC
:10471000F847E531F10508F042CDE454FB4C0C9428
:10472000EB331F93CF93DF938091DA02807F09F000
:1047300049C08091D702882309F444C080910C03BA
:10474000D091DB026091D5027091D602A091D8027F
:10475000B091D902C62FC72316E0D81799F190E07F
:10476000109711F0CF3F19F401968770F6CF189F7C
:104770009001199F300D1124F901E452FD4F418140
:104780004713F2CF40814613EFCF42814111ECCF66
:10479000438154814A1B5B0B483C510528F78091AB
:1047A000DA028F7080618093DA02F901EF51FD4FD8
:1047B00080818F708061808385ED92E00E94241F4C
:1047C0000E940E13DF91CF911F910895A1E1B0E0F7
:1047D000ECEEF3E20C9489338C0185E0F801DE0104
:1047E0001D9601900D928A95E1F7F801E28085ED22
:1047F000A82E82E0B82E6091D8027091D90261157E
:10480000710509F426C19091D5024091D602892FF5
:1048100084238F3F09F41DC120813181C380D4805E
:10482000F090D702F601E61BF70BFF2009F4DCC07D
:104830008091DA02582F507FE83CF10508F09FC0C4
:1048400051116BC0FE2C431314C0921312C0E1101F
:1048500010C08F7080618093DA02C5010E94241F0E
:104860008091DA02F80185838F2D6196EAE00C943D
:10487000A533C114D10429F0822F83238F3F09F07F
:1048800003C180E0F82FF170DF2E80FF3CC08091E3
:104890000C034091DB0256E0841315C02D873E8740
:1048A0008D859E850E944C13292F22952F702230D2
:1048B000F0F0243018F59F70F1F0F8019581907FA9
:1048C000D1F4D12C1EC090E0589FF001599FF00DFB
:1048D0001124E452FD4F6181361306C06081261316
:1048E00003C06281E6120FC001968770D5CF9F701A
:1048F00011F0882331F3805E883018F3C8010E94DC
:10490000241FFD2CB1CFEE2009F4AECF8091DA0246
:1049100081608093DA02F12CA7CF431306C0921373
:1049200004C0F801EE2009F479C0C8010E941314F4
:10493000882309F1EE20F9F08091DA02803270F0DC
:104940002091D5023091D60238872F831986DB86D5
:10495000CA868C87CE0107960E94241F86E0F80144
:10496000A5EDB2E001900D928A95E1F70E949123A6
:10497000FF24F39479CFC8010E94241FF9CF51116D
:104980000AC085ED92E00E94241F86E0F501119295
:104990008A95E9F7C0CF43130FC092130DC0E11001
:1049A0000BC0F8018583C8010E94241F86E0F50131
:1049B00011928A95E9F758CFC8010E9413148823F1
:1049C000D1F2EE20C1F28091DA02803238F22091E9
:1049D000D5023091D6023A8329831B82DD82CC82B4
:1049E0008E83CE010196B8CFE83CF105F8F6FE2C97
:1049F000EE2009F243131FC092131DC08091DA020A
:104A000080FD10C0982F907F69F0F8018583903F5A
:104A100031F0982F907F905F8F70892B8583C8012C
:104A20000E94241F86E0F801A5EDB2E001900D92EE
:104A30008A95E1F719CFC8010E94131481118ECF16
:104A40008091DA0281608093DA02C8010E94241FFB
:104A50000BCFEE2009F48FCFC8010E941314F82E5B
:104A6000882309F488CF86E0F801A5EDB2E0019033
:104A70000D928A95E1F78091D5029091D6020E941D
:104A80004C130E949123F0CE81E08E25FBCEA7E14E
:104A9000B0E0EDE4F5E20C9490334B8B5C8B6D8BC6
:104AA0007E8B8F8B6111109216031A8A198A85E00A
:104AB000FE017396DE011D9601900D928A95E1F735
:104AC00086E0FE013D96DE01179601900D928A95D3
:104AD000E1F7CE0107960E94E623882359F016E0FD
:104AE00080910C039091DB02891343C06796E3E049
:104AF0000C94AC3386E0FE013796DE0111960190EE
:104B00000D928A95E1F78A859B85892B41F38F81E8
:104B1000988589238F3F19F32091DB0230E0C9018A
:104B200001968770992740910C034817190671F474
:104B30000E946C171092DB0210920C0386E0E5EDE8
:104B4000F2E0DF011D928A95E9F7C9CF96E0929FC6
:104B5000D001939FB00D1124A452BD4FFE01319698
:104B600001900D929A95E1F78093DB020E940E135B
:104B7000B6CF819FC001112484529D4F0E94E6232D
:104B8000882309F4B3CF80910C0390E001968770DD
:104B9000992780930C03A4CFB0E0A0E0E2EDF5E20A
:104BA0000C948633B82E80914B018B1124C09091C8
:104BB0003506937020914A0130E081E09217130688
:104BC00009F480E0817080934F0180913A069091C2
:104BD0004E01981739F080934E0140E060E080E08C
:104BE0000E9419102EE02B1588F0EB2DF0E0EF520B
:104BF000FB4C0C94EB3381E0E5CF80914F0188238F
:104C000089F140E060E080E00E94191080E02AC055
:104C1000C0914D018DE0C89FC02D11241DE01C0FD7
:104C2000113408F010E40E945A15882319F01E313F
:104C300008F01DE10E945A15811103C0CD3108F41E
:104C4000CDE16091360670913706809138060E945A
:104C50006210062FF72EE82ED0E0C117D8F0812F72
:104C60000E94B21590914D019F5F90934D0181116B
:104C70000CC082E08093500180914F01811105C0EA
:104C8000B11003C083E080935001CDB7DEB7EDE0F3
:104C90000C94A233FE01E659FD4F808190914E01A4
:104CA000892331F02E2D402F6F2DCE010E9416103A
:104CB0002196D3CFF0904D018DE0F89EF02C112479
:104CC0000DE00F0D013408F000E40E945A1588230E
:104CD00019F00E3108F00DE10E945A15811105C03E
:104CE0008DE1F81610F42DE1F22E80914F0188230A
:104CF00061F040E060E080E00E941910E2EBF4E037
:104D00008CE3DF011D928A95E9F780914D018111B5
:104D100015C08091B0049091B1040E94AA1E21E0B8
:104D20008132910508F420E02093AF04819730F0A0
:104D30000E94B91E9093B1048093B004A12C912CD1
:104D4000E12C86E0782E9AEA892E05C0BCE0B915E0
:104D500008F453C0E12C2E2D30E07A9CE0011124A0
:104D6000FE01E255FE4FE20FF31FC080CF1408F49E
:104D70003CC0C01608F039C09394D12CF601E65916
:104D8000FD4F808190914E01892309F42EC0CE54AD
:104D9000DB4FC20FD31F1881312F25E5321B08F4DA
:104DA00030E070913706282D210F08F42FEF409145
:104DB0003806822F880F820F8E5F282F249F212D87
:104DC0001124822F682D631B0E946210462F282F0A
:104DD000672FC6010E9416108091AF04882329F026
:104DE00031E0131B08F410E01883E39486E0E81226
:104DF000B2CFA394AAE0AA12A9CF802F31CF8FE01F
:104E000090E10E947A162ECF89E090E1FACF80914E
:104E1000080621E0382F321B08F430E0832F60EFC2
:104E20007FE00E94C2151ECF60EF7FE080E0F9CFE7
:104E30008091080621E0382F321B08F430E0832FE0
:104E400065EB7FE0EECF65EB7FE0F0CF8091080669
:104E500021E0382F321B08F430E0832F63E87FE035
:104E6000E0CF63E87FE0E2CF8091080621E0382FB1
:104E7000321B08F430E0832F6BE67FE0D2CF6BE685
:104E80007FE0D4CF8091080621E0382F321B08F450
:104E900030E0832F65E57FE0C4CF65E57FE0C6CFD6
:104EA0004F925F926F927F928F929F92AF92BF923A
:104EB000CF92DF92EF92FF928090170590901805A5
:104EC000A0901905B0901A050E945A15882309F47C
:104ED0004AC0C501B4010E94270E6B017C010E94EB
:104EE000FA164B015C018092170590921805A0926A
:104EF0001905B0921A05A091EE04EEEEF4E08A2FA7
:104F000090E04FEF5FEF60E070E04C195D096E09D3
:104F10007F09A91331C08093EE0480911F05811190
:104F20003EC090913506892F837019F0892F8695A0
:104F3000869590915001913009F44AC0992389F1E6
:104F4000923009F448C0933009F448C0FF90EF90C4
:104F5000DF90CF90BF90AF909F908F907F906F9099
:104F60005F904F9008950E94FA166B017C01C8185B
:104F7000D908EA08FB08B3CF218D328D2901712CA5
:104F8000612C441555056605770520F481509F5F17
:104F90003296BFCF2C0D3D1D328F218FF8CF80E090
:104FA000C8CF10924D0180921B0590921C05A092D3
:104FB0001D05B0921E0589E2EEEEF4E0A8E0B6E031
:104FC00001900D928A95E1F781E080935001BECF68
:104FD0000E94CC25BBCF0E94480FB8CF80913406E9
:104FE000882351F046E050E06CE170E085E396E004
:104FF0000E94473410923406C0901B05D0901C05C7
:10500000E0901D05F0901E050E945A15882369F056
:10501000C701B6010E94270E603171058105910517
:1050200008F494CF1092500191CF0E94FA166C1997
:105030007D098E099F09F0CFAFE0B0E0E2E2F8E22F
:105040000C9486338E010F5F1F4F8AE0D8011D92AA
:105050008A95E9F78BE8C82E81E0D82EF12CE12C57
:10506000AA24A394B12C26E9822E21E0922EF601E7
:1050700081916F018F3F09F442C0F894E82FE295C7
:10508000EF70F0E021A18F70A50102C0440F551F01
:105090008A95E2F7CA01922F982B91A392A180954D
:1050A000892382A3789400C0E0E9F1E0712C31E01B
:1050B00021912F3F09F46BC0A22FA295AF70B0E0F1
:1050C00090968C9190E02F7002C0959587952A95C7
:1050D000E2F780FD5CC0832F782A330F8E169F067F
:1050E00039F7F601319780818F3F11F00E94F81057
:1050F00050EA5A95F1F7F801EE0DFF1D70828FEF1F
:10510000E81AF80A95E0E916F10409F0B0CF4AE090
:1051100050E0B8018EE593E00E941334009741F00F
:105120002AE0F801AEE5B3E001900D922A95E1F78F
:1051300000916903892B69F181E080931D030E942E
:10514000B91E90931C0380931B0380911B039091C5
:105150001C030E94AA1E059700F110E00D571C4F7A
:1051600045E050E06EE573E0C8010E941334D12C95
:10517000892B51F085E0EEE5F3E0D80101900D9226
:105180008A95E1F7DD24D39410921D0307C080E0D7
:10519000A3CF80911D038111D8CFD12C0E945A1525
:1051A000C82EE0916903DE011B967D01882309F476
:1051B00084C085E01D928A95E9F70E2F10E00D5707
:1051C0001C4F809157038A3008F044C047EC5CE1E3
:1051D000B701C8010E942715882309F45DC044EB7C
:1051E0005BE1B701C8010E942715882309F454C068
:1051F00048E65CE1B701C8010E942715882309F43D
:105200004BC04AEF5AE1B701C8010E942715882315
:1052100009F442C048E85BE1B701C8010E942715C4
:105220008823D1F1109257038091680390E045E004
:1052300050E0B7018D579C4F0E94133421E020931A
:105240002403892BE1F4C12C8C2D8D292F96EDE0C0
:105250000C94A23380911E0390911F030E94AA1EFA
:10526000843F914008F0B2CF80912403882359F302
:1052700085E0F70111928A95E9F710922403A09135
:105280006803B0E0AD57BC4F85E0FE013B9601904E
:105290000D928A95E1F7D8CF809157038F3F31F077
:1052A0008F5F809357038A3008F4BECF0E94B91EE7
:1052B00090931F0380931E03D7CF0091680310E0E3
:1052C0000D571C4FF0E0ED57FC4F85E0A8E3B3E02D
:1052D00001900D928A95E1F765E070E088E393E034
:1052E0000E94B30E8093370385E0EDE3F3E0D8012D
:1052F00001900D928A95E1F74091800350E0609112
:105300007F0370E065587C4FC7010E9420348B8575
:105310008093430361E070E0C7010E94B30E809365
:1053200042038090440390904503A0904603B090C0
:1053300047038091200390912103A0912203B09113
:10534000230388169906AA06BB06D1F08092200393
:1053500090922103A0922203B09223030E945A1537
:1053600081110EC00E94430E861A970AA80AB90A34
:105370008092580390925903A0925A03B0925B0313
:1053800086E0E8E4F3E0A5E3B6E001900D928A95AB
:10539000E1F710914E03112349F080911F0581110F
:1053A00005C00E94CC2580E00E94480F10931F0585
:1053B0004BCF1F921FB61F9211248F939F93AF93D1
:1053C000BF938091EC05811113C08091ED05909100
:1053D000EE05A091EF05B091F0054196A11DB11D1C
:1053E0008093ED059093EE05A093EF05B093F00543
:1053F000BF91AF919F918F911F901FBE1F901895E5
:10540000CDB7DEB767970FB6F894DEBF0FBECDBF3E
:1054100085B7806885BF85B7806885BF84B7877F7B
:1054200084BF0FB6F894A89580916000886180933E
:105430006000109260000FBE80E890E00FB6F89414
:1054400080936100909361000FBE86EF90E190938E
:10545000AB028093AA020E94C90C0E946A0D80913F
:10546000E20084608093E20078948091FE058823B6
:10547000A1F01091E9001F709091EC00892F8170CC
:1054800090FD80E8182B1092E9008091E80083FDE0
:105490000E9482171F701093E90082E084BD93E0A0
:1054A00095BD9AEF97BD80936E00109258031092AD
:1054B000590310925A0310925B030E945A1580936D
:1054C00038010E945A1581110E940B3290913801C7
:1054D00081E0982790937F03282F291B20935D0359
:1054E00090913801809380039091380180935C0300
:1054F00080913801811106C085EF8093420184EFCD
:105500008093410120914201E22FE295EF70F0E09B
:1055100061A12F7081E090E0AC0101C0440F2A9599
:10552000EAF7342F3095362331A322A1242B22A36E
:1055300020914101E22FE295EF70F0E031A12F7050
:1055400001C0880F2A95EAF7982F9095932391A38D
:1055500092A1892B82A3EFE8F1E03197F1F700C027
:1055600000001091800361E873E042E451E081E4BF
:10557000E82E81E0F82EFB0128C0DA012D91AD0163
:10558000822F82958F7090E0DC0190968C9190E054
:105590002F7002C0959587952A95E2F78170D70103
:1055A0009D917D01292F22952F7030E0D901909691
:1055B0002C9130E09F7002C0359527959A95E2F7BF
:1055C00090E020FD92E0892B81938E2F861B81171E
:1055D000A0F2809138018091380195E0811190E02E
:1055E0009093690385E0891B809368030BE811E0C1
:1055F000F80181918F018F3F11F00E94F810F1E0C6
:1056000000391F07A9F700E911E086E9E82E81E0DB
:10561000F82ED8018D918D018F3F11F00E94F81066
:10562000E016F106B1F78AE0E3E8F3E0DF01282FA6
:105630001D922A95E9F7EEE5F3E0DF011D928A95C8
:10564000E9F790E080E00E944134873E9E4F11F0E0
:105650000E940A1D82E090E00E943934809370031A
:1056600084E090E00E94413490936D0380936C033A
:1056700083E090E00E94393490E00E940E14109272
:1056800008068FEF9FEF9093220680932106909358
:1056900024068093230690932606809325069093F4
:1056A00028068093270690932A06809329069093D4
:1056B0002C0680932B0690932E0680932D069093B4
:1056C000300680932F061092EE0490930805809385
:1056D000070590930A058093090590930C05809324
:1056E0000B0590930E0580930D0590931005809304
:1056F0000F059093120580931105909314058093E4
:105700001305909316058093150590E080E00E94A4
:105710004134873E9E4F21F00E940A1D0E941417BB
:1057200081E08093340646E050E06CE170E085E370
:1057300096E00E94293410923406809135068C7FC1
:1057400011F40E9414170E945A1581110EC182E0B3
:105750008093AA0480E8809382040E94C5306DE0A3
:1057600070E08FE992E00E943D14892BE9F5809169
:10577000AA0463E070E081FDFAC08CE992E00E9427
:105780003D14892B89F56DE070E08CE892E00E9471
:105790003D14892B49F50E94430E605A75418F4F85
:1057A0009F4F6093E0057093E1058093E20590932D
:1057B000E305EDE3F6E080E092E0DF019C011D925D
:1057C00021503040E1F7F0933E08E0933D088FEF21
:1057D0009FEF90933C0680933B0681E08093E50524
:1057E0008093E4051092AB040E945A15811102C007
:1057F0000E940E3289E391E09093E9058093E805D9
:105800008091FE05853089F410E4F12EEE24E394B6
:1058100000E112E18091FE05853009F4ABC00E94E1
:105820006C170E947D1510921F050E941C28A1E78D
:10583000B3E0BC87AB87E3E8F3E0F98BE88BDF01EB
:10584000E1E7F3E091918D9123E0EB37F20709F462
:10585000DAC09817B9F30E945A158B8B43E853E0CE
:105860005F874E87312C212CF12CAE85BF85BD90F2
:10587000BF87AE87EB85FC858191FC87EB878B1515
:1058800009F42FC28B258A8B6101E12CAA24A394F1
:105890008A898A2109F419C25B2C5A20FB89FF23CB
:1058A00099F0EE82FF8281E0511001C080E088878C
:1058B0000E94B91E8160782F9A8789874E815F8107
:1058C00068858A850E944725552039F0F601E25502
:1058D000FE4F80818F3F09F094C1612C062D10E0AE
:1058E0008091EE04800F912F911D09976CF1F8E0E3
:1058F0008F2E912C801A910AB80161517B4FA4011F
:105900008FEE94E00E942034B80169507B4FA401CF
:1059100087EF94E00E942034A401440F551FB80182
:10592000660F771F695F7A4F87E095E00E94203409
:10593000B80161507B4FA4018FEF94E00E942034A6
:1059400088E086198093EE048091EE0490E0ED8566
:10595000AE2FB0E09D01220F331F26513E4FAA0FFC
:10596000BB1FBD0165517E4F65C180E0F1CE89E965
:1059700092E005CF8091FE05843009F432C00E9488
:10598000502780911F05811105C00E94CC2580E021
:105990000E94480FE0921F050E9467141092EC05C8
:1059A00048E150E00FB6F894A895409360000FBE10
:1059B000F092600083B7817F846083BF83B781608A
:1059C00083BF7894889583B78E7F83BF0FB6F89492
:1059D000A8958091600088618093600010926000BB
:1059E0000FBE8091FD05882309F414CF0E941C2866
:1059F000E3E8F3E081918111B2C38DE893E08E1763
:105A00009F07C1F707CF981326CF0E94B91E8C01BC
:105A100080916E0390916F0308171907A1F08FEF23
:105A200089838A831B820E94B91E8160782F9D839F
:105A30008C8349815A816B818D810E944725109307
:105A40006F0300936E03C12C0E945A150E945027C9
:105A5000B12CD12C80918003B81608F489C1D110E3
:105A60000E94FE121091E505112309F4B9C080913E
:105A7000AC049091AD040E94AA1EC29708F490C095
:105A80000E94B91E9093AD048093AC048DE396E020
:105A900090933E0880933D080E945A15811180C062
:105AA000E6E0F4E0BEE88B2EB3E09B2E0EE7E02E9E
:105AB00004E0F02E9401CF01DC014C91D9014C930C
:105AC000DC0111964C91D90111964C9302962E5FF0
:105AD0003F4FB4E08E379B0779F7BB24B39400E0C7
