:100000000C943B0C0C94580C0C94580C0C94283207
:100010000C94580C0C94580C0C94580C0C94580CD0
:100020000C94580C0C94580C0C94E8210C94A421BA
:100030000C94C42B0C94580C0C94580C0C94580C25
:100040000C94580C0C94580C0C94580C0C94580CA0
:100050000C94580C0C94C1220C94580C0C94580C11
:100060000C94580C0C94580C0C94580C0C94580C80
:100070000C94580C0C94580C0C94580C0C94580C70
:100080000C94580C0C94580C0C94580C0C94580C60
:100090000C94580C0C94580C0C94580C0C94580C50
:1000A0000C94580C0C94580C0C94580C0000000044
:1000B0000000000000000000000000000000000040
:1000C0000000000000000000000000000000000030
:1000D0000000000000000000000000000000000020
:1000E0000000808080404020201008040204081096
:1000F0001020204040808000000000000000000030
:1001000000000000000000000000000000000000EF
:1001100000000000000000000000000000000000DF
:10012000808080804040404020202020000000004F
:1001300000000000000000000000000000000000BF
:1001400000000000000000000000000000000000AF
:100150000000003FC1010102020404040402020184
:10016000010100000000000080000040808040008D
:1001700000303000000000010264180412C2CA24DA
:1001800088F0808040404040202020201010101037
:100190000808080804040404020202020101010123
:1001A000000000000000000000000000000000004F
:1001B000000000000000000000000000000000003F
:1001C000000000000000000000000000000000002F
:1001D0000000E01806010000000000000000000020
:1001E00000808383404040402021212010101010C7
:1001F00008080808040404040202020201010101C3
:1002000000000000000000000000000000000000EE
:1002100000000000000000000000000000000000DE
:1002200000000000000000000000000000000000CE
:1002300000000000000000000000000000000000BE
:1002400080808080404040402020202010101010EE
:10025000080F0808040404040204081010202040B9
:100260004041422498C088888C9C1C1E0E060000C9
:10027000000000000000000000000000000000007E
:10028000000000000000000000000000000000006E
:10029000000000000000000000000000000000005E
:1002A000000000000000000000000000000000004E
:1002B000000000000000000000000000000000003E
:1002C000000000000000000000000000000000002E
:1002D000000000000000000000000000000000001E
:1002E000000000000000000000000000000000000E
:1002F00000000000000000000000000000000000FE
:1003000000000000000000000000000000000000ED
:1003100000000000000000000000000000000000DD
:1003200000000000000000000000000000000000CD
:1003300000000000000000000000000000000000BD
:1003400000000000000000000000000000000000AD
:10035000000000000000000000000000000080809D
:100360008040402020100804020408101020204083
:10037000408080000000000000000000000000003D
:10038000000000000000000000000000000000006D
:10039000000000000000000000000000808080805D
:1003A00040404040202020200000000000000000CD
:1003B000000000000000000000000000000000003D
:1003C0000000000000000000000000000000003FEE
:1003D000C10101020204844444428201010100007F
:1003E00000000000800000408080400000303000AD
:1003F0000000000102040408081020408080808072
:10040000404040402020202010101010080808080C
:1004100004040404020202020101010100000000C0
:1004200000000000000000000000000000000000CC
:1004300000000000000000000000000000000000BC
:100440000000000000000000000000000000E018B4
:10045000060100000C03000218190005FE808383CA
:1004600040404040202121201010101008080808AA
:100470000404040404083040808000000186986071
:10048000000000000000000000000000000000006C
:10049000000000000000000000000000000000005C
:1004A000000000000000000000000000000000004C
:1004B000000000000000000000000000808080803C
:1004C000404040402020202010101010080F080845
:1004D0000404040402020202010101010000000000
:1004E0000000000000000000000000000000000606
:1004F0000F0F07030361F0F8FC600101013C78F87D
:10050000F07000000000000000000000000000008B
:1005100000000000000000000000000000000000DB
:1005200000000000000000000000000000000000CB
:1005300000000000000000000000000000000000BB
:1005400000000000000000000000000000000000AB
:10055000000000000000000000000000000000009B
:10056000000000000000000000000000000000008B
:10057000000000000000000000000000000000007B
:10058000000000000000000000000000000000006B
:10059000000000000000000000000000000000005B
:1005A000000000000000000000000000000000004B
:1005B000000000000000000000000000000000003B
:1005C000000000000000000000000000000000002B
:1005D00000000000000000000000808080404020FB
:1005E00020100804020408101020204040808000E1
:1005F00000000000000000000000000000000000FB
:1006000000000000000000000000000000000000EA
:1006100000000000000000008080808040404040DA
:10062000202020200000000000000000000000004A
:1006300000000000000000000000000000000000BA
:1006400000000000000000000000003FC1010102A6
:1006500002048444444282010101000000000000C1
:100660008000004080804000003030000000000129
:100670000264180412C2CA2488F0808040404040BE
:10068000202020201010101008080808040404047A
:10069000020202020101010100000000000000004E
:1006A000000000000000000000000000000000004A
:1006B000000000000000000000000000000000003A
:1006C00000000000000000000000E018060100002B
:1006D0000C03000218190005FE808383404040404F
:1006E0002021212010101010080808080404040418
:1006F00002020202010101010000000000000000EE
:1007000000000000000000000000000000000000E9
:1007100000000000000000000000000000000000D9
:1007200000000000000000000000000000000000C9
:1007300000000000000000008080808040404040B9
:100740002020202010101010080F080804040404B2
:10075000020202020101010100000000000000008D
:100760000000000000000000000000000000000089
:100770000000000000000000000000000000000079
:100780000000000000000000000000000000000069
:100790000000000000000000000000000000000059
:1007A0000000000000000000000000000000000049
:1007B0000000000000000000000000000000000039
:1007C0000000000000000000000000000000000029
:1007D0000000000000000000000000000000000019
:1007E0000000000000000000000000000000000009
:1007F00000000000000000000000000000000000F9
:1008000000000000000000000000000000000000E8
:1008100000000000000000000000000000000000D8
:1008200000000000000000000000000000000000C8
:1008300000000000000000000000000000000000B8
:1008400000000000000000000000000000000000A8
:10085000000000808040404020202020201804021A
:1008600001020408102020404080800000000000A9
:100870000000000000000000000000000000000078
:100880000000000000000000000000000000000068
:1008900000000000808080804040404020202020D8
:1008A0000000000000000000000000000000000048
:1008B0000000000000000000000000000000000038
:1008C000000000000000003FC10101020204040416
:1008D000040202010000000000000000800000404F
:1008E0008080400000303000000000010204040855
:1008F0000810204080808080404040402020202000
:10090000101010100808080804040404020202026F
:1009100001010101000000000000000000000000D3
:1009200000000000000000000000000000000000C7
:1009300000000000000000000000000000000000B7
:10094000000000000000E0180601000000000000A8
:10095000000000000080838340404040202121208F
:10096000101010100808080804040404040830409B
:1009700080800000018698600000000000000000F8
:100980000000000000000000000000000000000067
:100990000000000000000000000000000000000057
:1009A0000000000000000000000000000000000047
:1009B00000000000808080804040404020202020B7
:1009C00010101010080F0808040404040204081092
:1009D0001020204040414224180000000000000088
:1009E0000000000000000000000000000000000007
:1009F00000000101010000000000000000000000F4
:100A000000000000000000000000000000000000E6
:100A100000000000000000000000000000000000D6
:100A200000000000000000000000000000000000C6
:100A300000000000000000000000000000000000B6
:100A400000000000000000000000000000000000A6
:100A50000000000000000000000000000000000096
:100A60000000000000000000000000000000000086
:100A70000000000000000000000000000000000076
:100A80000000000000000000000000000000000066
:100A90000000000000000000000000000000000056
:100AA0000000000000000000000000000000000046
:100AB0000000000000000000000000000000000036
:100AC0000000000000000000000000000000000026
:100AD0000000808040404020100804020102040809
:100AE0001020408080000000000000000000000096
:100AF00000000000000000000000000000000000F6
:100B000000000000000000000000000000000000E5
:100B10008080808040404040202020200000000055
:100B200000000000000000000000000000000000C5
:100B300000000000000000000000000000000000B5
:100B40000000003FC101010202040404040202018A
:100B50000101000000000000000000800000800093
:100B6000006060000001020404080810102020400A
:100B700080808080404040402020202010101010B5
:100B80000808080804040404020202020101010129
:100B90000000000000000000000000000000000055
:100BA0000000000000000000000000000000000045
:100BB0000000000000000000000000000000000035
:100BC0000000C0300C030000000000000000000026
:100BD00000808686404040402122222011111010C2
:100BE0000808080804040404040830408080000059
:100BF0000186986000000000000000000000000076
:100C000000000000000000000000000000000000E4
:100C100000000000000000000000000000000000D4
:100C200000000000000000000000000000000000C4
:100C300080808080404040402020202010101010F4
:100C4000080F0808040404040204081010202040BF
:100C50004041422418000000000000000000000095
:100C60000000000000000000000000000000010182
:100C70000100000000000000000000000000000073
:100C80000000000000000000000000000000000064
:100C90000000000000000000000000000000000054
:100CA0000000000000000000000000000000000044
:100CB0000000000000000000000000000000000034
:100CC0000000000000000000000000000000000024
:100CD0000000000000000000000000000000000014
:100CE0000000000000000000000000000000000004
:100CF00000000000000000000000000000000000F4
:100D000000000000000000000000000000000000E3
:100D100000000000000000000000000000000000D3
:100D200000000000000000000000000000000000C3
:100D300000000000000000000000000000000000B3
:100D400000000000000000000000000000008080A3
:100D50008080404020100804020408102040808059
:100D60000000000000000000000000000000000083
:100D70000000000000000000000000000000000073
:100D80000000000000000000000000008080808063
:100D900040404040202020200000000000000000D3
:100DA0000000000000000000000000000000000043
:100DB0000000000000000000000000000000007EB5
:100DC0008202020404080808080404020101000069
:100DD0000000000000000080000080000060600053
:100DE0000101020404080810102020408080808047
:100DF0004040404020202020101010100808080813
:100E000004040404020202020101010100000000C6
:100E100000000000000000000000000000000000D2
:100E200000000000000000000000000000000000C2
:100E30000000000000000000000000000000C030C2
:100E40000C03000000000000000000000080868607
:100E500040404040212222201111101008080808AB
:100E60000404040404083040808000000186986077
:100E70000000000000000000000000000000000072
:100E80000000000000000000000000000000000062
:100E90000000000000000000000000000000000052
:100EA0000000000000000000000000008080808042
:100EB000404040402020202010101010080F08084B
:100EC000040404040204081010202040404142247D
:100ED00018000000000000000000000000000000FA
:100EE00000000000000000000000010101000000FF
:100EF00000000000000000000000000000000000F2
:100F000000000000000000000000000000000000E1
:100F100000000000000000000000000000000000D1
:100F200000000000000000000000000000000000C1
:100F300000000000000000000000000000000000B1
:100F400000000000000000000000000000000000A1
:100F50000000000000000000000000000000000091
:100F60000000000000000000000000000000000081
:100F70000000000000000000000000000000000071
:100F80000000000000000000000000000000000061
:100F90000000000000000000000000000000000051
:100FA0000000000000000000000000000000000041
:100FB0000000000000000000000000000000000031
:100FC00000000000000000000000808080804040A1
:100FD0002010080402040810204080800000000057
:100FE0000000000000000000000000000000000001
:100FF00000000000000000000000000000000000F1
:1010000000000000000000008080808040404040E0
:101010002020202000000000000000000000000050
:1010200000000000000000000000000000000000C0
:10103000000000000000000000001C34C404040490
:10104000080808080804040201010000000000006C
:10105000800000408080400000303000010102022A
:1010600004040408081020408080808040404040F4
:101070002020202010101010080808080404040480
:101080000202020201010101000000000000000054
:101090000000000000000000000000000000000050
:1010A0000000000000000000000000000000000040
:1010B00000000000000000000000E0180601000031
:1010C000000000000000000000808383404040409A
:1010D000202121201010101008080808040404041E
:1010E0000408304080800000018698600000000005
:1010F00000000000000000000000000000000000F0
:1011000000000000000000000000000000000000DF
:1011100000000000000000000000000000000000CF
:1011200000000000000000008080808040404040BF
:101130002020202010101010080F080804040404B8
:1011400002040810102020404041422418000000F2
:10115000000000000000000000000000000000008F
:10116000000000000000010101000000000000007C
:10117000000000000000000000000000000000006F
:10118000000000000000000000000000000000005F
:10119000000000000000000000000000000000004F
:1011A000000000000000000000000000000000003F
:1011B000000000000000000000000000000000002F
:1011C000000000000000000000000000000000001F
:1011D000000000000000000000000000000000000F
:1011E00000000000000000000000000000000000FF
:1011F00000000000000000000000000000000000EF
:1012000000000000000000000000000000000000DE
:1012100000000000000000000000000000000000CE
:1012200000000000000000000000000000000000BE
:1012300000000000000000000000000000000000AE
:101240000000008080404040202020202018040220
:1012500001020408102020404080800000000000AF
:10126000000000000000000000000000000000007E
:10127000000000000000000000000000000000006E
:1012800000000000808080804040404020202020DE
:10129000000000000000000000000000000000004E
:1012A000000000000000000000000000000000003E
:1012B0000000000000060D31C1010101020202041C
:1012C0000402020100000000000000008000004055
:1012D000808040000030300000000001020404085B
:1012E0000810204080808080404040402020202006
:1012F0001010101008080808040404040202020276
:1013000001010101000000000000000000000000D9
:1013100000000000000000000000000000000000CD
:1013200000000000000000000000000000000000BD
:10133000000000000000E0180601000000000000AE
:101340000000000000808383404040402021212095
:1013500010101010080808080404040404083040A1
:1013600080800000018698600000000000000000FE
:10137000000000000000000000000000000000006D
:10138000000000000000000000000000000000005D
:10139000000000000000000000000000000000004D
:1013A00000000000808080804040404020202020BD
:1013B00010101010080F0808040404040204081098
:1013C000102020404041422418000000000000008E
:1013D000000000000000000000000000000000000D
:1013E00000000101010000000000000000000000FA
:1013F00000000000000000000000000000000000ED
:1014000000000000000000000000000000000000DC
:1014100000000000000000000000000000000000CC
:1014200000000000000000000000000000000000BC
:1014300000000000000000000000000000000000AC
:10144000000000000000000000000000000000009C
:10145000000000000000000000000000000000008C
:10146000000000000000000000000000000000007C
:10147000000000000000000000000000000000006C
:1014800000000000000000000000000029001E0015
:101490001F002000210022002B0014001A00080069
:1014A00015001700E10004001600070009000A00FB
:1014B000E0001D001B000600190005000000E2000E
:1014C000E30021522C00A8002A0027002600250056
:1014D000240023003100130012000C0018001C002F
:1014E000340033000F000E000D000B002800380000
:1014F000370036001000110000004F00500022524B
:101500002C00207835003A003B003C003D003E00B6
:1015100001003F0040004100420043000100440040
:10152000450000002D002E02010000000000000018
:101530002D022E000000010001000100010000004A
:101540004C0030002F0000000000000000000000F0
:101550000000000029780000E5002778257823782E
:101560002A78000001002878267824782178000065
:1015700000005100520001000100000035003A0057
:101580003B003C003D003E0001003F0040004100A8
:101590004200430001004400450000002D002E02DF
:1015A00001000000000000002D022E0000000100DC
:1015B00001000100010000004C0030022F02000079
:1015C00000000000000000000000520000000000C9
:1015D000000000004F00510050000000010000001A
:1015E00000000000000000000000000000000100FA
:1015F00001000000AE00000000000000000000003C
:101600000000AC00AB000000000000000000000083
:1016100000000000000000000000000000000000CA
:1016200000000000000001000100010001000000B6
:1016300000000000000000000000000000000000AA
:10164000000000000000000000000000000000009A
:10165000000000000000000000000000000000008A
:1016600000000100010001000100000000DA028119
:10167000FFD9F1DB20A4A62EAF00A0C000A1C800B6
:10168000AED580A81FD300408D14200000010101B9
:10169000010101010101020202020202020202032F
:1016A00003030303030303040404040404040505FF
:1016B00005050506060606060707070707080808C2
:1016C00008090909090A0A0A0B0B0B0C0C0C0D0D71
:1016D0000D0E0E0E0F0F0F10101111111212131309
:1016E0001414151516161717181819191A1A1B1B82
:1016F0001C1D1D1E1E1F20202122222324242526DE
:1017000026272829292A2B2C2D2D2E2F3031323215
:10171000333435363738393A3B3C3D3E3F40414221
:10172000434445464748494A4C4D4E4F5051535407
:10173000555658595A5B5D5E5F61626465666869BB
:101740006B6C6D6F7072737577787A7B7D7E80823B
:10175000838587888A8C8E8F91939596989A9C9E84
:10176000A0A2A3A5A7A9ABADAFB1B3B5B7BABCBE94
:10177000C0C2C4C6C9CBCDCFD1D4D6D8DBDDDFE261
:10178000E4E7E9EBEEF0F3F5F8FAFDFF00AF00AEA9
:1017900005010980A101850319012AB70015012659
:1017A000B700950175108100C0050C0901A10185E4
:1017B0000419012AA002150126A0029501751081C5
:1017C00000C005010906A101050719E029E7150078
:1017D00025019508750181029501750881010507AC
:1017E000190029FF150026FF0095067508810005E0
:1017F0000819012905950575019102950175039157
:1018000001C009023B00020100A0FA090400000126
:101810000301010009211101000122400007058197
:10182000030800010904010001030000000921115F
:10183000010001223200070582032000011201008D
:101840000200000008D8042DEB0001010200010E87
:10185000034C0069006C007900350038000000106E
:10186000036C0069006C00690075006D0073000076
:1018700000040309040011241FBECFEFDAE0DEBF2D
:10188000CDBF12E0A0E0B1E0E2E7F9E602C00590CA
:101890000D92A83AB107D9F727E0A8EAB2E001C053
:1018A0001D92AE3FB207E1F70E94EB2B0C9452342D
:1018B0000C940000CF93DF934091FC075091FD07FB
:1018C0004C5F55409A0124583D4F21303240C0F0C2
:1018D00020E032E0241B350B6091FA057091FB0586
:1018E000FC01CA01240F351FC1E0D0E08217930725
:1018F00050F07093FB056093FA05DF91CF91089546
:101900002CE732E0E9CF4491DC01A450BA4F5C915E
:10191000451781F04C93AC01A5E056954795AA95E3
:10192000E1F7DE0102C0AA0FBB1F4A95E2F7AD0145
:101930006A2B752B01963196D9CF9091F40593704F
:1019400061F081110BC094609093F40510924E01E8
:101950008091F30581608093F3050895813110F043
:101960009064F2CF880F880F982BEECF9091F405FA
:10197000937059F08093F5056093F6054093F70551
:101980008091F30581608093F3050895E8EDF0E020
:1019900080818E7F80831092E2001092DA00109294
:1019A000E100A0EEB0E08C9181608C9380818F7714
:1019B000808319BCA7EDB0E08C918E7F8C938081E1
:1019C0008F7E80831092B00508952091E4003091BD
:1019D000E50095E6A9012091EC00822F817020FF9F
:1019E00006C08091E80080FF06C080E00895209145
:1019F000E80022FD1AC08091BD05882389F085305A
:101A000089F08091EB0085FD0FC02091E4003091BA
:101A1000E50042175307F9F29150E1F684E008958A
:101A200082E0089583E0089581E008958091BF05E4
:101A300087FF13C08091E80082FF06C08091E80014
:101A40008B778093E80004C08091BD058111F2CFAF
:101A500008958091BD058823D9F38091E80080FF27
:101A6000F8CF8091E8008E77ECCF982F9093E90023
:101A7000242F762F50E0891731F07091EC002091DF
:101A8000ED005091F00021FD07C09F5F973071F786
:101A90008093E90081E008953091EB003E7F309320
:101AA000EB003091ED003D7F3093ED003091EB0085
:101AB00031603093EB007093EC002093ED00509375
:101AC000F0002091EE0027FDE0CF80E00895B0E027
:101AD000A0E0EDE6FDE00C946233C8EDD0E0888133
:101AE0008F7E8883E7EDF0E080818160808384E0F1
:101AF00082BF81E08093B00588818E7F888302EE6B
:101B000010E0F80110821092DA0081EEC82ED12C7C
:101B1000F601108288818F77888388818068888326
:101B200088818F7D888319BC1092BD051092BE05F7
:101B30001092BC051092BB0590EEE92EF12CF70136
:101B400080818B7F808388818160888342E060E030
:101B500080E00E94350DF60180818E7F8083F80140
:101B6000808181608083808188608083F7018081AB
:101B70008E7F8083888180618883CDB7DEB7E8E07F
:101B80000C947E33FC018091C5059091C6058617A3
:101B90009707A0F06115710529F49091E8009E77F0
:101BA0009093E80090E06115710551F4911108C01F
:101BB0008091E80082FF34C080E00895BC01F2CF3C
:101BC0008091BD058823C1F18530C1F18091E80085
:101BD00083FD30C08091E80082FDEACF8091E8006B
:101BE00080FFE1CF8091F3002091F200382F611542
:101BF000710519F02830310558F091E02830310591
:101C000009F090E02091E8002E772093E800CBCFF8
:101C100081918093F100615071092F5F3F4FE7CFB1
:101C20008091BD05882341F0853041F08091E80026
:101C300083FFBECF81E0089582E0089583E0089598
:101C400008958091B2050895CF92DF92EF92FF92AE
:101C50002FB7F894C090AC05D090AD05E090AE05DC
:101C6000F090AF052FBFA7019601261B370B480B3D
:101C7000590BCA01B901FF90EF90DF90CF90089502
:101C80002FB7F8946091AC057091AD058091AE05C9
:101C90009091AF052FBF08959C01FC0132969FEFF4
:101CA00080E04191461751F09F3F19F4411101C066
:101CB000982F8F5F8630A9F79F3F09F40895290F69
:101CC000311D97FD3A95F90162830895A3E0B0E0D4
:101CD000ECE6FEE00C9468332091A9053091AA054A
:101CE00028173907A1F09093AA058093A905E091E0
:101CF000A705F091A805309751F024E029839B8334
:101D00008A830680F781E02DCE01019609952396FE
:101D1000E2E00C948433A3E0B0E0E1E9FEE00C944F
:101D200068332091A5053091A60528173907A1F041
:101D30009093A6058093A505E091A705F091A805CD
:101D4000309751F023E029839B838A830680F781B3
:101D5000E02DCE01019609952396E2E00C948433A0
:101D6000FC01680F791F8FEF91E32191822728E012
:101D700030E087FF09C0880F892721503109C9F752
:101D8000E617F70791F70895880FF7CFFA01811149
:101D900001C0FB0109950895FC019B01AC0197FF6F
:101DA00004C044275527481B590BBA01620F731F03
:101DB00037FD0FC0241B350BC901A5E0880F991F03
:101DC000AA95E1F70E948F3380E2861BF7FD81958B
:101DD0000895CB0165E0880F991F6A95E1F7BA0174
:101DE000621B730B0E948F3380E6EFCFE4EFF5E0C8
:101DF000248130E1231B08F420E024838091F30543
:101E000081608093F3050895E4EFF5E0248130E1EB
:101E1000230F08F42FEF24838091F30581608093D2
:101E2000F3050895E4EFF5E0438120E1421B08F457
:101E300040E08181628190E00E94B60C0895E4EF59
:101E4000F5E0438120E1420F08F44FEF8181628188
:101E500090E00E94B60C0895E4EFF5E0628120E185
:101E6000621B08F460E08181438190E00E94B60C1F
:101E70000895E4EFF5E0628120E1620F08F46FEF6E
:101E80008181438190E00E94B60C0895E4EFF5E073
:101E90008181438162818850990B0E94B60C08951C
:101EA000E4EFF5E0818190E04381628108960E9431
:101EB000B60C08958091F40586958695815009F4B5
:101EC00080E10E949D0C08958091F4058695869589
:101ED0008F5F813108F081E00E949D0C089580930E
:101EE00049018091F4058370809348010E948F1608
:101EF00083E080934E010895EF92FF920F93970134
:101F0000201B31092F3F310519F010F02FEF30E081
:101F10002095382F320F08F43FEF832F0F91FF9059
:101F2000EF900895EF92FF920F939701201B3109D4
:101F30002F3F310519F010F02FEF30E0322F3095A0
:101F4000482F430F08F44FEF842F620F0F91FF903B
:101F5000EF900895EF92FF920F93972F093438F482
:101F6000B701601B71096F3F710519F010F06FEF39
:101F700070E0485F5F4F4131510540F0A901485F73
:101F80005F4F4131510510F06FEF70E06095482FC1
:101F9000460F08F44FEF842F37FF02C02D5F3F4FED
:101FA00035952795359527956091F505620F792F21
:101FB0000F91FF90EF900895EF92FF920F931F9370
:101FC0000E0D1F2D111DF90137FF03C0F195E1958D
:101FD000F10924E0EE0FFF1F2A95E1F7EF3FF1052D
:101FE00019F014F0EFEFF0E09A0157FF03C03195BC
:101FF0002195310994E0220F331F9A95E1F72E17AE
:102000003F070CF4F901E00FF11FEF3FF10519F064
:1020100010F0EFEFF0E0E095282F3E2F230F08F4AB
:102020002FEF822F1F910F91FF90EF900895EF9265
:10203000FF920F93970195E0099F200D311D112408
:102040002F3F310519F010F02FEF30E02095382F99
:10205000320F08F43FEF832F0F91FF90EF90089518
:1020600022E8241B08F420E0620F08954095282FF1
:10207000429F412D1124842F08950E941D17089519
:10208000FF920F931F93CF93DF93182F062FF42EF9
:10209000D0E0C0E02F2D402F612FCE010E943D10D7
:1020A0002196C034D105B1F7CDB7DEB7E5E00C9489
:1020B0008133EF920F93CF93DF93D72FC82FC901AE
:1020C0000E19009729F480E857FD05C080E003C091
:1020D000BA010E94CC0E602F681B7D2F8C2FDF91E0
:1020E000CF910F91EF9008950F931F93CF93DF93AC
:1020F000D62F172FC82FC901272F201B022F00977B
:1021000029F480E857FD05C080E003C0BA010E94B1
:10211000CC0E982F990F990F782F791B700F719F04
:10212000712D11246D2F8C2FDF91CF911F910F9165
:102130000895AC018230910508F408959FEF413E67
:102140008EE1580740F49A0195E0369527959A95C7
:10215000E1F798E0920F61E0E62FE90FFF27FF1FFC
:102160009F0135952795822F229FF001239FF00D27
:10217000F00D11244E175F0738F49FEF920F96175A
:1021800058F78FEF860F08952F3FE9F361E0620F54
:10219000F6CF30E020E0869F212D969F200D311D47
:1021A0001124C9010895AF92BF92CF92DF92FF929E
:1021B0000F931F93CF93DF93362F472FE82FF0E035
:1021C000E457F94E71110FC0E4918E2F2E2F6E2F10
:1021D000722FDF91CF911F910F91FF90DF90CF90E1
:1021E000BF90AF900895C72FD0E02491F22E022F18
:1021F00010E056E0659FC0011124EFEFF0E0BF0151
:102200000E944433832F90E0880F991F35E5369F55
:10221000D001379FB00D11248A1B9B0B982F990F6B
:10222000980F6F01CC1ADD0AC09ED001C19EB00D7F
:10223000D09EB00D11248B2F499FA0011124452F52
:1022400055276F01C41AD50AC09EA001C19E500D2A
:10225000D09E500D11245F01A91AB108AC9E6001F7
:10226000AD9ED00CBC9ED00C1124CD2CDD24EC19DD
:10227000FD09E09FE001E19FD00DF09FD00D1124FA
:10228000ED2F62307105A1F050F46115710509F46C
:102290009ECF6130710581F0EB2F852F98CF643090
:1022A000710569F080F06630710509F490CFF4CFC4
:1022B000E22F2B2F8D2F8BCFE22F252F88CFEB2FC7
:1022C000822F2D2F84CF2B2F8F2DE52F80CF80E0D5
:1022D0000895F894E82FE295EF70F0E031A1282FEF
:1022E0002F7081E090E001C0880F2A95EAF7982FBF
:1022F0009095932391A392A1892B82A3789408951A
:102300009091660492FF06C0282F28712830F9F4B6
:10231000877F846093FF06C0282F28712831F1F44D
:10232000877E84612091670420FF06C0382F3871B2
:102330003830D9F4877F816021FF06C0282F2871AB
:102340002831D1F4877E816194FD877E0895282FFE
:1023500024712430F9F68B7F8860DCCF282F24711C
:10236000243101F78B7E8861DDCF382F3171313018
:1023700019F78E7F8860E0CF282F2171213121F756
:102380008E7E8861E1CF972F7A30B8F46630A8F45A
:10239000843098F470E026E0929F600D711D112446
:1023A000FB019CE3899FE00DF11D1124EE0FFF1F3F
:1023B000E457FB4E85919491089580E090E0089554
:1023C000CF93DF93EC0182389105B9F108F041C059
:1023D0008133910509F49FC050F58932910509F4C4
:1023E0008FC08A9709F49EC0C11520E5D20708F076
:1023F000BDC0C11530E4D30708F00AC1C03ED10505
:1024000008F0A5C0CD3CD10508F000C1C83AD105FF
:1024100008F08FC0C53AD10508F0F0C0C130D10531
:1024200039F1209729F1C430D10510F546C0853324
:10243000910509F460C0C997B9F68091660483706C
:1024400009F044C18091670483FF12C0C9E2D0E063
:102450000FC0833E9105A1F178F4803E910509F10A
:10246000823E910509F0C0CF8091660482FD21C0B3
:10247000CE01DF91CF910895863E910561F1873EAF
:10248000910571F1843E910509F0AECF809167040A
:1024900081FFEECF80916604C7EED0E084FD0DC0D1
:1024A000E7CF8091660480FD33C09091670490FF70
:1024B000DFCFC3EED0E084FFDBCFD0E0C0E0D8CFE9
:1024C0008091660482FDFFC09091670490FDFEC07C
:1024D00084FFCECFF2CF8091660483FDDDCFC8CFDD
:1024E0008091660483FDF5C09091670491FFF0CF61
:1024F000C4EED0E0BDCF8091660485FFB9CFA6CFF2
:102500008091660485FDE8C08091670483FFB0CFA9
:10251000C9E3D0E0ADCF8091660486FFA9CFCAE2BF
:10252000D0E0A6CF8091660486FFA2CFC1E3D0E0C1
:102530009FCFC13CD10508F6C85AD0E0CC0FDD1FB3
:10254000CB5ADE4F0990D881C02DD46491CFC115EC
:1025500040E2D40708F0AAC0C11581E0D80708F00E
:1025600087CFC83ED10508F483CFA7CFC03622E578
:10257000D20718F5C03432E5D30708F053C0C03293
:1025800042E5D40708F047C0C11582E5D80708F432
:102590007FC02C2F2695269540E2249F9001112480
:1025A0008C2F8370C1E0D0E002C0CC0FDD1F8A9574
:1025B000E2F7C22BD32BDD685BCFC03A22E5D2070E
:1025C00060F4C03832E5D30708F441C0CF71D0E0E1
:1025D000DC2FCC27C46FD06A4BCFC03C42E5D40778
:1025E00008F44AC0C03E82E5D80708F066CFDC2F69
:1025F000CC27CC27DF71C06FD06A3ACFC55AD0E064
:10260000CE5ADE4FC881D0E0D06432CFD06530CF13
:10261000DF70D06A2DCFCF71D0E0DC2FCC27C16F17
:10262000D06A26CF2C2F26952695277080E2289FEA
:10263000900111248C2F8370C1E0D0E002C0CC0F38
:10264000DD1F8A95E2F7C22BD32BDC6811CF2C2F2C
:1026500026952695277040E2249F900111248C2F07
:102660008370C1E0D0E002C0CC0FDD1F8A95E2F795
:10267000C22BD32BDA68FCCE8C2F8F710E94801175
:10268000C82FD0E0DC2FCC27CC27DF71D062F0CE72
:102690008C2F8F710E94801135E0D695C7953A95A1
:1026A000E1F7CF709C2FEC01D069E2CE8D2F8F71B6
:1026B0000E94801190E0982F882788279F719C01A5
:1026C0002C2BE901E3CFC2EED0E0D2CEC0EED0E0B9
:1026D000CFCEC6EED0E0CCCEC5E3D0E0C9CE0E94CE
:1026E000400E0895809112048111109212040895F1
:1026F00080959091110498239093110408958091EE
:1027000006049091D503981301C008958F5F8770D8
:10271000FACFB0E0A0E0EFE8F3E10C9461337C0184
:102720000091640410916504809113049091140445
:10273000082B192BCFE0D0E0CC24C394D12CBC2E95
:10274000C6010C2E02C0880F991F0A94E2F780235D
:102750009123892B49F4219790F7B12C8B2DCDB77C
:10276000DEB7E9E00C947D33B7018C2F0E94C311D2
:102770000E94E011019779F3F1CFCF93DF93EC0141
:102780000E948913BE010E94C3110E94E011DF91D3
:10279000CF9108959A3078F5863068F5E82FF0E00B
:1027A00086E0989FE00DF11D11249E2F977083E025
:1027B000F695E7958A95E1F7EE0FFF1FEE0FFF1FE5
:1027C000E155FC4F50E040E080E0219130E0092EDF
:1027D00002C0369527950A94E2F721703327042E1C
:1027E00001C0220F0A94EAF7822B4F5F5F4F4430FB
:1027F000510559F7089580E008959A3098F586308C
:1028000088F5E82FF0E086E0989FE00DF11D112497
:102810008E2F877041E001C0440F8A95EAF783E06C
:10282000F695E7958A95E1F7EE0FFF1FEE0FFF1F74
:10283000E155FC4F30E020E070E05191DF0111974D
:10284000CB01022E02C0969587950A94E2F781701B
:1028500081958527842385278C932F5F3F4F2430D4
:10286000310559F708959C0126703327263031052C
:1028700031F4886090936504809364040895877FA1
:10288000F9CF21E030E002C0220F331F8A95E2F732
:102890002095309580916404909165048223932360
:1028A0000E943314089590910704809589238093A2
:1028B0000704282F277091F4282F082E000C330BC3
:1028C0009217130659F09091670492FF07C08595FF
:1028D000859585950E94411410920704089521E082
:1028E00030E002C0220F331F8A95E2F78091640422
:1028F00090916504822B932B0E943314089590933A
:102900001404809313040895FC0183819481892B1E
:1029100029F08081918189238F3F51F480E00895CF
:10292000843FE1F717C0883EA8F0813FB9F712C095
:10293000808191810E94BD1392959F70963099F38A
:1029400058F4925F9F70923048F7803F19F040F73B
:10295000883E20F781E008959A5FF4CF8F929F928E
:10296000BF92CF92DF92EF92FF920F931F93CF937C
:10297000DF93ABE2B3E013EB812E12E0912EC401A2
:10298000FD012081EC012883218129833296029662
:10299000D3E0E33AFD07A9F70AE614E0A80180E0D6
:1029A000EE24E394F12CFA016191AF0170E030E084
:1029B00020E09E2F901BE82FE20FF0E0BB24B394A1
:1029C000B20E6701022E02C0CC0CDD1C0A94E2F7A5
:1029D000C622D722EE0FFF1FE55DFC4FCD2809F47C
:1029E00049C09083B1822F5F3F4F2630310519F7E0
:1029F0008A5F8C33C1F68093B2028C91882361F098
:102A000011968C911197882339F0E4018881811106
:102A100003C08981882389F11296D2E08D0E911C22
:102A2000E3E0A33ABE0749F780E09091AD0391300F
:102A300061F1992321F19230F1F18CEF95E09093BF
:102A4000FD078093FC078091AD03813009F480C0BD
:102A5000882309F440C0823009F47FC0DF91CF9110
:102A60001F910F91FF90EF90DF90CF90BF909F90BC
:102A70008F90089510821182B6CF81E0D6CF88233F
:102A8000E1F282E08093AD03D8CF8111FACF60915B
:102A9000A3037091A4038091A5039091A6030E94C3
:102AA000240E6E3E72408105910538F21092AD03FE
:102AB0001092AC03C2CF8111C0CF81E08093AD03EF
:102AC0000E94400E6093A3037093A4038093A50318
:102AD0009093A603B2CF8091AC03C82FD0E024E03E
:102AE00030E02C1B3D0B37FF03C031952195310998
:102AF0004CE752E0249FC001259F900D349F900D1C
:102B00001124805E974F0E945A0C6091A803709127
:102B1000A9038091AA039091AB030E94240E6C3408
:102B200071058105910508F499CFCE01019665E004
:102B300070E00E948F338093AC030E94400E60933C
:102B4000A8037093A9038093AA039093AB0386CF45
:102B500084EA95E00E945A0C81CFC091A703D0E08F
:102B600021E030E02C1B3D0B37FF03C03195219550
:102B700031094CE752E0249FC001259F900D349FFE
:102B8000900D112484559F4F0E945A0C2196C170BC
:102B9000DD27C093A70362CFB0E0A0E0E2EDF5E14E
:102BA0000C9462336C017B0164E670E088E70E945C
:102BB000A230EC0197FD12C010E000E0F601E00F3A
:102BC000F11F849164E670E00E940E31EC01892BC4
:102BD00029F40F5F1F4F0E151F0581F70E948431E6
:102BE000CE01CDB7DEB7E8E00C947E338091A3052B
:102BF0009091A405911103C091E08927089588233D
:102C000069F062E070E08EE897E10E94CC15892BB4
:102C100019F08091A30508951092A3058091A30552
:102C2000EBCFCF93C091A3058091A4058823D1F069
:102C30000E94400E605A75418F4F9F4F60939F05D1
:102C40007093A0058093A1059093A205C11108C0BF
:102C500062E070E08CE897E10E94CC15892B29F0A6
:102C6000C091A3058C2FCF91089581E08093A30597
:102C7000F7CF0F931F93CF93DF938B01EA019091CE
:102C8000BD05943061F58093E9008FEF9091E800E5
:102C9000815095FD06C095ED9A95F1F700008111E0
:102CA000F5CF8091E80085FF1AC00E94E50C8111E4
:102CB00011C08091E80085FD06C08091E8008E7704
:102CC0008093E800F2CFF80181918F018093F100A9
:102CD000219779F78091E8008E778093E800DF9163
:102CE000CF911F910F91089543E050E0BC0182E025
:102CF0000E9439160895CF93DF93EC0148E050E02D
:102D0000BC0181E00E94391688E0FE01A3EBB5E02A
:102D100001900D928A95E1F7DF91CF910895539A32
:102D20003BB1377F2BB128604FB7F8948FED94E01B
:102D3000FC015191CF0168E02BB9000000C057FFA2
:102D40003BB9550F000000C000C000C03BB900C037
:102D50006A9591F7F5E08F399F0751F74FBF8FE5DF
:102D600094E00197F1F700C000000895B0E0A0E002
:102D7000ECEBF6E10C9460337C015B016A0180911D
:102D8000510401E010E08A3010F40AE010E0C1E0E4
:102D9000D0E0B501C701F6010995811104C0219663
:102DA0000C171D072CF4CDB7DEB7EAE00C947C338A
:102DB000CC9F9001CD9F300D300D112490E080E02C
:102DC00045E34A95F1F70000019682179307C1F792
:102DD000E0CF80911F04811110C08091D8008061E4
:102DE0008093D8008AE18A95F1F700C08091D900DC
:102DF00080FF0AC081E080931F0481E090911F044E
:102E0000913009F080E0089582E080931F040E94D1
:102E1000C60C1092BD05F1CF0E94E916882359F027
:102E2000E091A705F091A805309729F00190F08175
:102E3000E02D0995089580E00895FF920F931F9368
:102E4000CF93DF93EC01F62E042F122F0E94E91688
:102E500081110FC0CD31D1057CF06D97FE01EE0FD1
:102E6000FF1FEC0FFD1FE152FB4FF1820083128325
:102E700003C0CD31D10594F3CDB7DEB7E5E00C94B6
:102E80008133CF93C82F0E94E916882329F081E06F
:102E9000CD3128F080E003C081E0C034D8F7CF9175
:102EA0000895A8E0B0E0E7E5F7E10C945833282E48
:102EB0007C836B8320914B018DE0289F802D112412
:102EC0008D83835F8983813410F030E439830E94DD
:102ED000E916882329F089818E3110F09DE19983CC
:102EE0000E94E916811105C0ED81ED3110F4FDE17C
:102EF000FD832091C7052A839D81892F90E09887C3
:102F00008F83880F991FFC01E455FE4F6F01822DBE
:102F100090E09C012F5F3F4F3E832D8389819F81ED
:102F2000981730F00E9441172896E2E10C94743310
:102F3000EF81F885E859FD4F808190914C018923FC
:102F4000F9F03090F5054090F6058D819E8189530A
:102F50009A4F3C01522C10E0FA815F16D8F0209174
:102F6000F705129F112D1124632D742D812F0E94BE
:102F7000D310462F282F672F8F8198850E943D10F0
:102F80002F8138852F5F3F4F38872F8332E0C30E64
:102F9000D11CC4CFF30181913F01F601A4ACA81A62
:102FA000BB0885ACF3018781881A9908AA9C900117
:102FB000AB9C300D300D1124889CC001899C900D74
:102FC000900D1124820F931F0E949910082F609179
:102FD000F80521E0620F08F46FEFF301EE0FFF1F19
:102FE000E75CF540858996890E94C9107C019401AF
:102FF000A501632D742D812FEB81FC810995362E5F
:10300000472E5394182FA8CFB0E0A0E0EAE0F8E1F3
:103010000C9462337C01C0914B018DE0C89FC02DA0
:1030200011241DE01C0F113408F010E40E94E91671
:10303000882319F01E3108F01DE10E94E916811164
:1030400003C0CD3108F4CDE12091F80531E0230F24
:1030500008F42FEF30E050E040E06FEF7FEF80E0CA
:1030600090E00E94A3336901D0E001E02C2FC1174A
:1030700040F0812F0E944117CDB7DEB7E8E00C94F5
:103080007E33FE01E859FD4F808190914C018923E8
:1030900009F14091C7054150042E000C550B47FF24
:1030A0001BC0C6016091F805600F08F46FEF0E9425
:1030B000C910AC016091F5057091F6058091F70596
:1030C000F70109950E94D310462F282F672FCE01B4
:1030D0000E943D102196CACFFA01E953FA4F818927
:1030E00082130AC0FA01EE0FFF1FE953FA4F818DD8
:1030F000928D8C159D05B0F241505109D0CFB0E0B2
:10310000A0E0E5E8F8E10C945D33182F80914901C7
:10311000811323C09091F40593702091480130E011
:1031200081E09217130609F480E0817080934D01CD
:103130008091F90590914C01981739F080934C01DA
:1031400040E060E080E00E944010113190F4E12FF7
:10315000F0E0EC5AFB4C0C94C23381E0E6CF809156
:103160004D01882309F475C040E060E080E00E94D2
:10317000401080E06EC0C0914B018DE0C89FC02D13
:1031800011240DE00C0F013408F000E40E94E91650
:10319000882319F00E3108F00DE10E94E916811123
:1031A00003C0CD3108F4CDE16091F5057091F605CD
:1031B0008091F7050E94D310F62ED72EC82ED0E0AE
:1031C000C01710F0802F43C0FE01E859FD4F8081E9
:1031D00090914C01892331F02C2D4F2D6D2DCE0176
:1031E0000E943D102196ECCFC0914B018DE0C89F0D
:1031F000C02D1124FDE0FF2EFC0E30E43F1510F42D
:10320000E0E4FE2E0E94E916882329F08DE18F1557
:1032100010F47DE1F72E0E94E916811103C0CD3133
:1032200008F4CDE16091F80566958091DA049091FB
:10323000DB040E94C910B82ED0E0CE01880F991F80
:10324000FC01E455FE4F6F01CF15D8F08F2D0E9481
:10325000411790914B019F5F90934B0181110CC0DE
:1032600082E080934E0180914D01811105C01111C2
:1032700003C083E080934E01CDB7DEB7EDE00C9440
:103280007933FE01E859FD4F808190914C018923EB
:10329000C1F0F60125AD2052330B44AD4057550B1C
:1032A0006091F5057091F6058091F7050B2D0E9450
:1032B00074100E94D310462F282F672FCE010E9432
:1032C0003D10F2E0CF0ED11C2196BECFC0914B0134
:1032D0008DE0C89FC02D11240DE00C0F013408F0C3
:1032E00000E40E94E916882319F00E3108F00DE180
:1032F0000E94E916811103C0CD3108F4CDE160913F
:10330000F8056695669521E0620F08F46FEF8091ED
:10331000DA049091DB040E94C910F82ED0E0C017A7
:1033200008F050CFFE01E859FD4F808190914C018B
:10333000892369F07091F6056F2D8091F7050E9441
:10334000D310462F282F672FCE010E943D102196C3
:10335000E6CFC0914B018DE0C89FC02D11245DE0E8
:10336000F52EFC0E80E48F1510F440E4F42E0E943C
:10337000E916882329F0EDE1EF1510F43DE1F32E75
:103380000E94E916811103C0CD3108F4CDE16091AE
:10339000F80566958091DA049091DB040E94C910CB
:1033A000782ED0E0CE01880F991F9C0124553E4F06
:1033B0006901CF1508F04ACFFE01E859FD4F808121
:1033C00090914C01892379F1F60184AD282F205783
:1033D000330B590185ADE82FE052FF0B4F01AA9C3A
:1033E0009001AB9C300D300D1124EE9FC001EF9F7A
:1033F000900D900D1124820F931F0E949910082F99
:103400006091F5057091F6058091F705E72C940120
:10341000A5010E9459100E94D310462F282F672F14
:10342000CE010E943D10F2E0CF0ED11C2196C1CFFB
:1034300086E390E10E9404180CCF80E390E1FACF7C
:103440008091C70521E0382F321B08F430E0832F2C
:1034500067E170E10E945117FCCE67E170E180E006
:10346000F9CF8091C70521E0382F321B08F430E0F6
:10347000832F6CED7FE0EECF6CED7FE0F0CF80919D
:10348000C70521E0382F321B08F430E0832F6AEAA9
:103490007FE0E0CF6AEA7FE0E2CF8091C70521E0DC
:1034A000382F321B08F430E0832F62E97FE0D2CF5F
:1034B00062E97FE0D4CF8091C70521E0382F321B2D
:1034C00008F430E0832F6CE77FE0C4CF6CE77FE047
:1034D000C6CF0F931F930E94E916882329F00E94FC
:1034E000400E1F910F9108950E94400E00915204CA
:1034F000109153042091540430915504600F711FB2
:10350000821F931FEECF4F925F926F927F928F92A6
:103510009F92AF92BF92CF92DF92EF92FF928090F4
:10352000D6049090D704A090D804B090D9040E94FB
:10353000E916882309F44AC0C501B4010E94240E8B
:103540006B017C010E94691A4B015C018092D604D8
:103550009092D704A092D804B092D904A091AD045F
:10356000EDEAF4E08A2F90E04FEF5FEF60E070E06B
:103570004C195D096E097F09A91331C08093AD0410
:103580008091DE0481113EC09091F405892F8370F3
:1035900019F0892F8695869590914E01913009F406
:1035A0004AC0992389F1923009F448C0933009F454
:1035B00048C0FF90EF90DF90CF90BF90AF909F906A
:1035C0008F907F906F905F904F9008950E94691A3E
:1035D0006B017C01C818D908EA08FB08B3CF218D1C
:1035E000328D2901712C612C44155505660577052E
:1035F00020F481509F5F3296BFCF2C0D3D1D328F3E
:10360000218FF8CF80E0C8CF10924B018092DA046E
:103610009092DB04A092DC04B092DD0489E2EDEA32
:10362000F4E0A7ECB5E001900D928A95E1F781E016
:1036300080934E01BECF0E947F18BBCF0E946F0FB8
:10364000B8CF8091F305882351F046E050E06CE15B
:1036500070E084EF95E00E941E341092F305C09054
:10366000DA04D090DB04E090DC04F090DD040E94EA
:10367000E916882369F0C701B6010E94240E603163
:1036800071058105910508F494CF10924E0191CFF8
:103690000E94691A6C197D098E099F09F0CFE4EF29
:1036A000F5E085E0808380914F0190915001A091D9
:1036B000510181839283A3838FE784838FEF858376
:1036C00046E050E06CE170E0CF010E941E341092A1
:1036D000F30508958091110490911004892B809333
:1036E000AA0290911204992391F0892B8093AA0247
:1036F00020E08CEA92E0FC013191CF0131112F5F83
:10370000F2E0823B9F07B9F721110E94721348E053
:1037100050E068E074E08AEA92E00E94EA33892B84
:10372000A9F088E0EAEAF2E0A8E0B4E001900D92A6
:103730008A95E1F7E091A705F091A805309731F05F
:103740000280F381E02D8AEA92E0099508951092B3
:103750001104ECEAF2E086E0DF011D928A95E9F7B8
:1037600090E080E00E948B0E90E080E00E94660E68
:10377000109210040E946A1B0895AAE2B0E0E3ECE4
:10378000FBE10C9467338FEB95E02091F100FC0195
:103790002193CF01F5E0873C9F07B9F78091C005E1
:1037A000833009F470C0B8F4813009F447C0823026
:1037B00009F4B1C08091E80083FF7EC28091BF050B
:1037C0009091C0059A3008F077C2E92FF0E0EB59EC
:1037D000FB4C0C94C2338A3009F48CC08B3009F452
:1037E0006FC0893039F78091BF05813219F7809118
:1037F000C3059091C4050297E8F68091E800877FA1
:103800008093E8008091E80082FF38C09091F30037
:103810008091F200029731F48091F100813011F033
:10382000863021F48091F1008093B2058091E80008
:103830008B778093E8000E94160DBCCF8091BF0566
:10384000813A09F0B7CF8091E800877F8093E80044
:103850008091C3059091C405892B61F468E083EBE6
:1038600095E070E00E94C20D8091E8008B77809314
:10387000E800A0CF60E090E080E0F3CF8091BD054C
:103880008111C0CF97CF8091BF05813A09F092CFC7
:103890008091C3059091C405892B09F08BCF80914D
:1038A000E800877F8093E8008091E80080FFFCCFEC
:1038B00080914A018093F1008091E8008E77B9CF22
:1038C0008091BF05813209F075CF8091C305909139
:1038D000C405892B09F06ECF8091E800877F809323
:1038E000E8000E94160D8091C10580934A010E9454
:1038F000A71B60CF8091BF05813209F05BCF80911B
:10390000E800877F8093E8000E94160D8091C20531
:103910008093B1054FCF8091BF05813A09F04ACF1E
:103920008091E800877F8093E8008091E80080FF25
:10393000FCCF8091B105BECF803899F0823809F074
:10394000BBC18091C3058F70873008F0B5C18093EB
:10395000E9008091EB0085FB882780F91092E9004F
:1039600006C08091BB059091BC0591118260909139
:10397000E800977F9093E8008093F1001092F100A7
:103980008091E8008E7794C1882309F482C1823047
:1039900009F092C18091C105811185C18091C30553
:1039A0008F702FEF280F263008F086C18093E90032
:1039B0002091EB0020FF77C1933031F48091EB0030
:1039C00080628093EB006FC19091EB0090619093C7
:1039D000EB0021E030E001C0220F8A95EAF7209346
:1039E000EA001092EA008091EB008860EACF811132
:1039F00063C11091C1051F778091E3008078812B0E
:103A00008093E3008091E800877F8093E8000E9424
:103A1000160D8091E80080FFFCCF8091E300806864
:103A20008093E30082E0111183E08093BD0544C1DF
:103A30008058823008F040C18091C1059091C20544
:103A40008C3D23E09207A1F583E08A838AE2898393
:103A50004FB7F894DE01139620E03EE051E2E32FE9
:103A6000F0E050935700E49120FF03C0E295EF701F
:103A70003F5FEF708E2F90E0EA30C0F0C7968D93D5
:103A80009D932F5F243159F74FBF8091E800877FC6
:103A90008093E8006AE270E0CE0101960E94C20DB8
:103AA0008091E8008B778093E80006C1C096E7CF4D
:103AB0004091C3055091C405292F33272330310588
:103AC00009F444C078F52130310509F46FC08BE367
:103AD00090E0E2E0F8E12230310509F0EDC02091FC
:103AE000E800277F2093E8002091C5053091C605A6
:103AF0008217930708F49C0140E02115310509F075
:103B000064C0411162C08091E80082FDC9CF8091FC
:103B1000BD05882329F2853019F28091E80083FFE2
:103B2000F2CFBECF21323105A9F12232310509F0A1
:103B3000C3C04115510509F443C04130510509F096
:103B4000BBC082E390E0E0E9F7E1C9CF992781307B
:103B50009105C1F0009759F0029709F0ADC0EFE46C
:103B6000F8E1E4918E2F90E0EFE4F8E107C0E1E79F
:103B7000F8E1E4918E2F90E0E1E7F8E1009709F495
:103B80009BC0ADCFEFE5F8E1E4918E2F90E0EFE53B
:103B9000F8E1F4CF4115510571F04130510509F0BC
:103BA0008BC089E090E0EDE2F8E199CF82E190E00E
:103BB000EDE3F8E194CF89E090E0E4E1F8E18FCF24
:103BC00080E490E0E2ECF7E18ACF8091BD058823A4
:103BD00009F466CF853009F463CF8091E80083FD56
:103BE0005FCF8091E80082FD8ECF8091E80080FF5A
:103BF00084CF9091F3008091F2002115310519F0E6
:103C00008830910550F041E0089709F040E080913C
:103C1000E8008E778093E80070CF44914093F100E4
:103C20003196215031090196E8CF803809F044C01F
:103C30008091E800877F8093E8008091BE058093A3
:103C4000F1009ECE811138C01091C1051230A0F54F
:103C50008091E800877F8093E8001093BE050E9462
:103C6000160D112311F084E005C08091E30087FD5B
:103C7000FACF81E08093BD0542E061EC81E00E94D3
:103C8000350D42E261EC82E00E94350D8091BD0568
:103C900013C08091C105813079F481E0933009F03F
:103CA00080E08093BC051092E9008091E800877F56
:103CB0008093E8000E94160D8091E80083FF0AC0FF
:103CC0008091E800877F8093E8008091EB0080621C
:103CD0008093EB00AA96E3E00C9483330E94A71B29
:103CE0002FEF84E39CE0215080409040E1F700C03A
:103CF000000088E19AE00FB6F894A89580936000E0
:103D00000FBE90936000FFCF882321F00E947813AC
:103D10000E946A1B0895882339F090911104982B12
:103D2000909311040E946A1B0895882391F19CEFDF
:103D3000980F913A80F4ECEAF2E022EB32E09191B4
:103D4000891303C0DF0111971C922E173F07B9F7A3
:103D50000E946A1B089590E2980F983050F4877083
:103D600091E001C0990F8A95EAF7892F0E94781394
:103D7000EFCF9BE5980F933028F490E080E00E940D
:103D80008B0E0895885A893120F490E080E00E94DB
:103D9000660E0895CF93C82F8823B1F08CEF8C0F57
:103DA000813A00F5ECEAF2E082EB92E0DF012D913E
:103DB000C21761F08A179B07D1F76C2F8AEA92E04D
:103DC0000E944C0E0E946A1BCF9108952191C2134C
:103DD00003C0DF0111971C928E179F07B9F70E944D
:103DE0006A1BEBCF80E28C0F883068F4C77021E04B
:103DF00030E001C0220FCA95EAF780911104822BAE
:103E000080931104DFCFEBE5EC0FE33040F4F0E0FA
:103E1000EE5AFE4F808190E00E948B0ED5CFC85A9B
:103E2000C93190F6EC2FF0E0EE0FFF1FEB5AFE4F7A
:103E3000808191810E94660EC7CF1F93CF93DF933D
:103E4000182FEB010E94CA1E209739F4812F0E947F
:103E5000951EDF91CF911F9108958FE99FE0019703
:103E6000F1F700C000002197EFCFA4E0B0E0EBE352
:103E7000FFE10C9467336091490470914A0480918A
:103E80004B0490914C040E94240E11E0643671059D
:103E90008105910570F10E94691A6E5F7F4F8F4F07
:103EA0009F4F69837A838B839C83809129019091B2
:103EB0002A018F5C9B4F4091280150E0453051050D
:103EC00010F044E050E0BE016F5F7F4F0E94F73377
:103ED00085E090E00E94CE32182F882351F00E9496
:103EE000400E6093490470934A0480934B0490936E
:103EF0004C04812F2496E3E00C948333B0E0A0E0DF
:103F0000E4E8FFE10C946233C82F7B01D42F6901F0
:103F1000FB0160817181828193810E94240E64364D
:103F200071058105910510F4DD2359F10C2E000C6B
:103F3000DD0BFE0183E0EE0FFF1F8A95E1F7E050F5
:103F4000FF4F818192818F5C9B4F408150E004172D
:103F5000150708F4A801B6010E94F733CE010E94AC
:103F6000CE32C82F882339F00E94400EF7016083BB
:103F70007183828393838C2FCDB7DEB7E8E00C94F6
:103F80007E33C1E0F8CFA7E0B0E0E9ECFFE10C94AC
:103F9000663386E0E4EFF5E0DE01119601900D92C4
:103FA0008A95E1F78091DE048F8347E050E062E478
:103FB00074E0CE0101960E94EA3341E0892B09F4B6
:103FC00040E007E010E09E012F5F3F4F6DE474E09A
:103FD00086E00E947E1F2796E4E00C9482330F93C4
:103FE0001F93CF93DF93EC0145E050E067E374E06B
:103FF0000E94EA3341E0892B09F440E005E010E03B
:104000009E0169E274E082E00E947E1FDF91CF9101
:104010001F910F9108954F925F927F928F929F927E
:10402000AF92BF92CF92DF92EF92FF920F931F93C6
:10403000CF93DF930F92CDB7DEB7C62E4A01590159
:10404000482E880F5508C2010E94CE32782E882350
:1040500009F473C0C20133E0880F991F3A95E1F764
:10406000FC01E050FF4F438150E04115510511F034
:1040700041E050E080509F4FFC01648175816F5C8E
:104080007B4FCE0101960E94F733F401608171816C
:10409000828193810E94240E643671058105910509
:1040A00040F4B701C8010E94B00E9981891709F444
:1040B00044C00C2C000CDD08C6010E94CE32782EC4
:1040C000811113C0712C872D0F90DF91CF911F911B
:1040D0000F91FF90EF90DF90CF90BF90AF909F90A7
:1040E0008F907F905F904F900895C60123E0880FD6
:1040F000991F2A95E1F7FC01E050FF4F438150E002
:10410000E416F50608F4A70180509F4FFC01648176
:1041100075816F5C7B4FC5010E94F733B701C80101
:104120000E94B00E99818913CDCF0E94400EF401F8
:104130006083718382839383C6CFA701B801C501D1
:104140000E94F733C0CFA1E0B0E0E9EAF0E20C94BE
:104150006133EE24E394F12C0DE314E09E012F5F14
:104160003F4F4DE254E064E083E00E940B20C82EF4
:10417000882339F100E080E01DC0D0905704D00EB4
:104180002D2D30E0A90141585B4F7A01E1E0F0E0CC
:10419000EC0FFD1FE00FF11D1081FA019081191B3A
:1041A000B12E1B149CF0912F17FD90E0191B1111DB
:1041B0001BC00F5F909156040917F8F281110E94FD
:1041C0006F138C2D2196E9E00C947D33BA94F7019E
:1041D00080818F5F8083D11005C070E060E08AEA43
:1041E0000E941D1F8C2DDDCF1F5FF7018081815044
:1041F0008083D11005C070E060E089EA0E941D1F35
:104200008C2DD5CFA5E0B0E0E8E0F1E20C9462336C
:104210006B0185E0E82EF12C02E314E09E012F5F94
:104220003F4F45E254E061E080E00E940B2088238C
:1042300049F095E0FE013196A0E2B4E001900D92C4
:104240009A95E1F795E0E0E2F4E0D60101900D9255
:104250009A95E1F72596E8E00C947E3390916704F7
:1042600092FB222720F9281779F080FB92F990938E
:104270006704609166047091670484E090E00E9496
:104280004C3482E00E945314089567EE7EEF90E074
:1042900080E00E944C3460E082E090E00E942E3486
:1042A00060E083E090E00E942E341092140410929B
:1042B000130460E074E184E090E00E944C3460E01C
:1042C00086E090E00E942E346FEF87E090E00E943D
:1042D0002E3440E050E0BA0188E090E00E94403483
:1042E00060E08DE090E00E942E3440E050E0BA01A2
:1042F00088E190E00E94403460E087E190E00E9415
:104300002E3440E050E0BA018CE190E00E9440344D
:1043100070E060E080E290E00E944C3440E050E0C9
:10432000BA0188E190E00E94403440E050E0BA01D8
:104330008FE090E00E94403440E050E0BA0183E119
:1043400090E00E94403408951F920F920FB60F9292
:1043500011242F933F934F935F936F937F938F938A
:104360009F93AF93BF93CF93DF93EF93FF93D0913E
:10437000E900DF708091EC00C82FC17080FDC0E8BB
:104380001092E9008091F000877F8093F00078948C
:104390000E94BD1B1092E9008091F000886080931C
:1043A000F000CD2BCF70C093E900FF91EF91DF912A
:1043B000CF91BF91AF919F918F917F916F915F91BD
:1043C0004F913F912F910F900FBE0F901F90189516
:1043D0001F920F920FB60F9211242F933F934F937A
:1043E0005F936F937F938F939F93AF93BF93EF935D
:1043F000FF938091E10082FF09C08091E20082FF7B
:1044000005C08091E1008B7F8093E1008091DA000C
:1044100080FF24C08091D80080FF20C08091DA0006
:104420008E7F8093DA008091D90080FF9DC080E16B
:1044300089BD82E189BD09B400FEFDCF81E0809392
:10444000BD058091B005811109C00E94C60C0E9473
:10445000670D8091E20084608093E2008091E1002A
:1044600080FF17C08091E20080FF13C08091E200BE
:104470008E7F8093E2008091E20080618093E20071
:104480008091D80080628093D80019BC85E0809329
:10449000BD058091E10084FF2BC08091E20084FF84
:1044A00027C080E189BD82E189BD89B5982F9170CF
:1044B00080FFFBCF8091D8008F7D8093D8008091C2
:1044C000E1008F7E8093E1008091E2008F7E8093F7
:1044D000E2008091E20081608093E2008091BE055D
:1044E000882309F447C084E08093BD058091BD0511
:1044F0008091E10083FF27C08091E20083FF23C009
:104500008091E100877F8093E10082E08093BD0588
:104510001092BE058091E1008E7F8093E100809132
:10452000E2008E7F8093E2008091E20080618093C0
:10453000E20042E060E080E00E94350D8091F000F2
:1045400088608093F000FF91EF91BF91AF919F91B0
:104550008F917F916F915F914F913F912F910F902C
:104560000FBE0F901F90189519BC1092BD051092A8
:10457000B00574CF8091E30087FD93E09093BD0573
:10458000B5CF78941F921FB61F9211248F939F93DB
:10459000AF93BF938091AC059091AD05A091AE050E
:1045A000B091AF050196A11DB11D8093AC0590930C
:1045B000AD05A093AE05B093AF05BF91AF919F91AC
:1045C0008F911F901FBE1F9018959C014FB7F894B4
:1045D0008091AC059091AD05A091AE05B091AF056D
:1045E0004FBF821B930B08952FB7F8948091AC05B1
:1045F0009091AD05A091AE05B091AF052FBF089584
:104600000F931F93CF93DF93C62FD42F022FFC015C
:1046100082818823A9F06093F2050E94F42290938E
:10462000F1058093F005C77081E001C0880FCA953D
:10463000EAF70E948B1EDF91CF911F910F91089591
:104640008091F205681334C08091F0059091F105D6
:104650000E94E522883C910558F510E21D0FCD1708
:10466000B9F080E28C0F883040F4C77081E001C05F
:10467000880FCA95EAF70E94841E183048F481E03A
:104680009D2F977001C0880F9A95EAF70E948B1EA4
:1046900070E060E0802F0E941D1F183060F6D77018
:1046A00081E001C0880FDA95EAF70E94841EC3CF2B
:1046B000C77081E001C0880FCA95EAF7F6CFA5E080
:1046C000B0E0E5E6F3E20C945E337C01FC0183810B
:1046D0009481892B31F08081918189238F3F09F06A
:1046E000EFC32596ECE00C947A330E948913182FBF
:1046F000682F89819A810E94FD1369817A81812FB7
:104700000E94C3118C01FC01E851FC47E730F10520
:1047100088F5E159FB4C0C94C23326E241EE61EE80
:10472000C7010E940023809107048770D1F2F7012E
:1047300082818823B1F28091670482FFD2CF82E028
:104740000E945314CECF27E245EE65EEE9CF26E274
:1047500041EE60EEE5CF27E245EE64EEE1CF26E2E2
:1047600041EE62EEDDCF27E245EE66EED9CF28E2DC
:1047700041E0EBCFF7018281882309F4C8C310928E
:10478000F205C8019057839708F0ABC384E090E02E
:104790000E9418349093670480936604F801E150F6
:1047A000F047E232F10520F4EA58FB4C0C94C23396
:1047B0008091660481608093660495C0809167044F
:1047C0008860809367048FC0809166048260F3CF15
:1047D000809166048460EFCF809166048860EBCF9F
:1047E000809167048160EDCF809167048260E9CF9A
:1047F000809166048061DFCF809166048062DBCFA8
:10480000809166048064D7CF0E94A71B80916604C4
:104810008068D1CF809166048C60CDCF8091670491
:104820008360CFCF809166048E7FC5CF809167046F
:10483000877FC7CF809166048D7FBDCF809166044E
:104840008B7FB9CF80916604877FB5CF8091670455
:104850008E7FB7CF809167048D7FB3CF8091660440
:104860008F7EA9CF809166048F7DA5CF809166044D
:104870008F7BA1CF0E94A71B809166048F779BCF6F
:1048800080916604837F97CF809167048C7F99CF56
:104890008091660482FB992790F921E0922790FB92
:1048A00082F990FB83F987CF80916704982F9095C8
:1048B00091708E7F892B90FB81F983CF9091660454
:1048C000892F8F7B96FF806476CF0E94A71B9091E3
:1048D0006604892F97FB87F980586DCF61E08EE0E1
:1048E00090E00E942E34609166047091670484E029
:1048F00090E00E944C340E94A71B15CF60E0EFCFE0
:1049000090916604892F8F7E94FF806154CF90919F
:104910006604892F8E7F90FF81604DCF9091670450
:10492000892F877F93FF88604CCF85E3F9C2809100
:10493000F40591E089278093F40510924E0180914F
:10494000F30581608093F305EECE4AE55FE064E60F
:104950007FE00E94C60EE7CE44E65FE06AE57FE0B6
:10496000F8CF46E45FE060E57FE0F3CF40E55FE04D
:1049700066E47FE0EECF4CE25FE069E37FE0E9CF01
:1049800049E35FE06CE27FE0E4CF42E15FE06FE1AA
:104990007FE0DFCF4FE15FE062E17FE0DACF46EF1B
:1049A0005EE064E07FE0D5CF44E05FE066EF7EE06C
:1049B000D0CF81E00E949D0CB6CE0E94A71BFFEFD6
:1049C00024E33CE0F15020403040E1F700C000001B
:1049D00087E797E7909301088093000888E19AE0C1
:1049E0000FB6F894A895809360000FBE9093600076
:1049F000FFCF6FEF7FEF90E080E00E944C340E9489
:104A00006E1E8091670482FB882780F991E08927D8
:104A10000E942E21F701828100811181882309F4EF
:104A200043C0C8010E948913D82E682FC8010E9474
:104A3000FD13B8018D2D0E94C3110E94E0118C015D
:104A4000882EF701A280958092943FE09322809176
:104A500007048770C1F0CA2CAA20B1F0812F807F93
:104A6000803421F080E2800F883068F08091670404
:104A700082FF09C082E00E9453148091070487706E
:104A8000CC24C3948111C12CB12EB2942FE0B22258
:104A9000FBE0FB1508F474C0EB2DF0E0E856FB4C8E
:104AA0000C94C23380E0B4CFC8010E94CA13D82E40
:104AB000C0CF212F2F70D22E107F19F0D29490EFFB
:104AC000D922AA20B9F0DD2069F080E2800F883079
:104AD00010F0811009C080911104D82AD0921104DD
:104AE0000E946A1B802F4AC080911004D82AD0925D
:104AF0001004F6CF802F0E94951EDD2009F440C0DF
:104B0000005E083010F0811004C08D2D0E947813D3
:104B100006C0D09480911004D822D09210040E9434
:104B20006A1B2EC0312F3F70D32E107F103219F028
:104B3000D29480EFD822882089F081E0881609F489
:104B40007CC0AA2009F486C0992009F47CC0F70132
:104B5000858180FFC7CF8F70858375C020916704E2
:104B600022FD43C0AA20D9F1DD2039F08091110443
:104B7000D82AD09211040E946A1B80E00E94CA1EAB
:104B8000EB2DE850FF0B349710F40E940C17CC204B
:104B9000A9F08091070480FD11C0F701128285956C
:104BA000859585950E946F14C7010E945F238091AF
:104BB00007048595859585950E94411485E0F70148
:104BC000DE01119601900D928A95E1F709811A8113
:104BD000C8010E94CA13B8010E94C31182CD80E0AF
:104BE0000E94951EDD2061F290CFAA20A1F0909145
:104BF00012048D2D892B911003C00E948B1EC0CFF3
:104C0000E1E09E12FACF22FFBBCF891709F4B8CF9B
:104C100080931204B5CF911006C00E9472138D2D9F
:104C20000E94841EADCFF1E09F1609F4A9CF8D2D0F
:104C30000E94841E0E947213A3CFAA2031F025E0A7
:104C4000291508F49DCF8D2DD8CF34E0391508F4FF
:104C500097CFE5CF992019F3F9E38F122AC12FEFEF
:104C600037EE83E0215030408040E1F700C0000083
:104C700020C1812F86958695837061F0813009F07F
:104C80007FCFC8019370A11002C080E090E00E9425
:104C9000660E76CFC8019370A11002C080E090E04C
:104CA0000E948B0E6DCF812F837009F03FC0A11041
:104CB00067CF402F429546954770440F440F802F91
:104CC0008F7090E0042E02C0880F991F0A94E2F7BB
:104CD00030E020E004FF09C02FE030E002C0220FE6
:104CE000331F4A95E2F72095309516951695137067
:104CF000123099F078F4409113045091140411305B
:104D000039F0822B932B842395230E947F1438CF74
:104D1000842B952B822B932BF8CF822B932B2091D6
:104D200013043091140482279327EFCF8695AA208D
:104D300011F0812F8170882309F422CF402F4295F2
:104D400046954770440F440F802F8F7090E0042EDB
:104D500002C0880F991F0A94E2F730E020E004FFB8
:104D600009C02FE030E002C0220F331F4A95E2F75E
:104D700020953095169516951370123099F078F4A9
:104D80004091640450916504113039F0822B932BCB
:104D9000842395230E943314F3CE842B952B822BEE
:104DA000932BF8CF822B932B2091640430916504D0
:104DB00082279327EFCF1F70AA2029F0812F0E940E
:104DC0006F14802F1ACF802F0E94841E812F0E9483
:104DD0004114D6CE802F92EF891699F1981570F074
:104DE000E0EF8E16D1F0F1EF8F1691F0AA2009F4C2
:104DF0005BC0911077CE812F8F7127C023EF821671
:104E000039F134EF8312F2CF8091670482FD2EC016
:104E1000812F8F71AA20D9F218C0AA2069F084E0EE
:104E2000891508F4ADCE1F7181E090E002C0880FB3
:104E3000991F1A95E2F7B8CF95E0991508F4A0CE1E
:104E4000F2CF812F8F71A110C2CF0E946F1498CE24
:104E500090E080E0AA2009F49DCF1F7181E090E0EE
:104E600002C0880F991F1A95E2F794CFAA2089F003
:104E70001F71812F0E946F148091670482FF07C009
:104E8000E8E01E9FC0011124836080930704812FF6
:104E9000DCCF81E00E945314F1E0F91508F070CEE8
:104EA00082E00E9453146CCE992039F0893309F4C2
:104EB000D6CE802F0E94951E63CE812F8F7187CF13
:104EC00085E0DE01119601900D928A95E1F7F701D8
:104ED000228189819A81211108CC0E94CA13182F3E
:104EE0000CCC0631FCE71F0749F5809111048A7A42
:104EF00091E009F490E09093AE0369E2811165E3DB
:104F00008AEA92E00E944C0E0E946A1B0CCC063189
:104F10002CE7120799F58091AE03811106CD89E245
:104F2000ECEAF2E022EB32E09191891303C0DF0159
:104F300011971C922E173F07B9F7E6CF03303CE7D5
:104F4000130709F456CD50F401159CE7190709F42D
:104F500034CD01301C4709F452CD5CCD0B35FCE754
:104F60001F0709F49FCD0C352CE7120709F449CD32
:104F70000A351C4709F04ECD81E04ACD80911104DD
:104F80008272F801E052F847E531F10508F042CDB0
:104F9000EC55FB4C0C94C2331F93CF93DF9380915D
:104FA000D403807F09F049C08091D103882309F49C
:104FB00044C080910604D091D5036091CF037091D5
:104FC000D003A091D203B091D303C62FC72316E01C
:104FD000D81799F190E0109711F0CF3F19F401968E
:104FE0008770F6CF189F9001199F300D1124F90199
:104FF000EA52FC4F41814713F2CF40814613EFCF75
:1050000042814111ECCF438154814A1B5B0B483CE8
:10501000510528F78091D4038F7080618093D40369
:10502000F901E552FC4F80818F70806180838FECA5
:1050300093E00E945F230E947F13DF91CF911F9125
:105040000895A1E1B0E0E7E2F8E20C9460338C014E
:1050500085E0F801DE011D9601900D928A95E1F739
:10506000F801E2808FECA82E83E0B82E6091D20385
:105070007091D3036115710509F426C19091CF0396
:105080004091D003892F84238F3F09F41DC12081D3
:105090003181C380D480F090D103F601E61BF70B79
:1050A000FF2009F4DCC08091D403582F507FE83CE6
:1050B000F10508F09FC051116BC0FE2C431314C0C2
:1050C000921312C0E11010C08F7080618093D403DE
:1050D000C5010E945F238091D403F80185838F2D41
:1050E0006196EAE00C947C33C114D10429F0822F3C
:1050F00083238F3F09F003C180E0F82FF170DF2E8A
:1051000080FF3CC0809106044091D50356E0841393
:1051100015C02D873E878D859E850E94BD13292F42
:1051200022952F702230F0F0243018F59F70F1F0A6
:10513000F8019581907FD1F4D12C1EC090E0589F4A
:10514000F001599FF00D1124EA52FC4F6181361392
:1051500006C06081261303C06281E6120FC001966B
:105160008770D5CF9F7011F0882331F3805E88302F
:1051700018F3C8010E945F23FD2CB1CFEE2009F483
:10518000AECF8091D40381608093D403F12CA7CF5C
:10519000431306C0921304C0F801EE2009F479C04D
:1051A000C8010E948414882309F1EE20F9F080914F
:1051B000D403803270F02091CF033091D003388730
:1051C0002F831986DB86CA868C87CE0107960E94BC
:1051D0005F2386E0F801AFECB3E001900D928A9571
:1051E000E1F70E94CC27FF24F39479CFC8010E94F5
:1051F0005F23F9CF51110AC08FEC93E00E945F2327
:1052000086E0F50111928A95E9F7C0CF43130FC0EC
:1052100092130DC0E1100BC0F8018583C8010E94F4
:105220005F2386E0F50111928A95E9F758CFC8010E
:105230000E9484148823D1F2EE20C1F28091D4031D
:10524000803238F22091CF033091D0033A83298302
:105250001B82DD82CC828E83CE010196B8CFE83CE2
:10526000F105F8F6FE2CEE2009F243131FC092134D
:105270001DC08091D40380FD10C0982F907F69F0ED
:10528000F8018583903F31F0982F907F905F8F7069
:10529000892B8583C8010E945F2386E0F801AFEC6B
:1052A000B3E001900D928A95E1F719CFC8010E94F1
:1052B000841481118ECF8091D40381608093D403B4
:1052C000C8010E945F230BCFEE2009F48FCFC801E5
:1052D0000E948414F82E882309F488CF86E0F80110
:1052E000AFECB3E001900D928A95E1F78091CF0386
:1052F0009091D0030E94BD130E94CC27F0CE81E094
:105300008E25FBCEA7E1B0E0E8E8F9E20C94673324
:105310004B8B5C8B6D8B7E8B8F8B6111109210048D
:105320001A8A198A85E0FE017396DE011D960190A6
:105330000D928A95E1F786E0FE013D96DE01179613
:1053400001900D928A95E1F7CE0107960E942128DF
:10535000882359F016E0809106049091D5038913B3
:1053600043C06796E3E00C94833386E0FE013796F2
:10537000DE01119601900D928A95E1F78A859B8551
:10538000892B41F38F81988589238F3F19F32091D1
:10539000D50330E0C9010196877099274091060432
:1053A0004817190671F40E94A71B1092D50310929A
:1053B000060486E0EFECF3E0DF011D928A95E9F741
:1053C000C9CF96E0929FD001939FB00D1124AA52AD
:1053D000BC4FFE01319601900D929A95E1F78093B2
:1053E000D5030E947F13B6CF819FC00111248A523A
:1053F0009C4F0E942128882309F4B3CF8091060492
:1054000090E001968770992780930604A4CFAFE0BF
:10541000B0E0EDE0FAE20C945D338E010F5F1F4FB8
:105420008AE0D8011D928A95E9F789E8C82E81E0C3
:10543000D82EF12CE12CAA24A394B12C24E9822E9D
:1054400021E0922EF60181916F018F3F09F442C055
:10545000F894E82FE295EF70F0E021A18F70A5019C
:1054600002C0440F551F8A95E2F7CA01922F982B6C
:1054700091A392A18095892382A3789400C0EEE83D
:10548000F1E0712C31E021912F3F09F46BC0A22F84
:10549000A295AF70B0E090968C9190E02F7002C012
:1054A000959587952A95E2F780FD5CC0832F782A31
:1054B000330F8E169F0639F7F601319780818F3FA3
:1054C00011F00E94691150EA5A95F1F7F801EE0DBA
:1054D000FF1D70828FEFE81AF80A95E0E916F104D3
:1054E00009F0B0CF4AE050E0B80188E594E00E94AE
:1054F000EA33009741F02AE0F801A8E5B4E0019012
:105500000D922A95E1F700916304892B69F181E0FE
:10551000809317040E94F42290931604809315043C
:1055200080911504909116040E94E522059700F1E0
:1055300010E006591B4F45E050E068E574E0C801F3
:105540000E94EA33D12C892B51F085E0E8E5F4E0A4
:10555000D80101900D928A95E1F7DD24D394109241
:10556000170407C080E0A3CF809117048111D8CF22
:10557000D12C0E94E916C82EE0916304DE011B962F
:105580007D01882309F484C085E01D928A95E9F79E
:105590000E2F10E006591B4F809151048A3008F0FD
:1055A00044C042E051E2B701C8010E94B616882308
:1055B00009F45DC04FEE5FE1B701C8010E94B61665
:1055C000882309F454C043EA50E2B701C8010E949D
:1055D000B616882309F44BC045E35FE1B701C80163
:1055E0000E94B616882309F442C043EC5FE1B7017C
:1055F000C8010E94B6168823D1F1109251048091FF
:10560000620490E045E050E0B70186599B4F0E944C
:10561000EA3321E020931E04892BE1F4C12C8C2D68
:105620008D292F96EDE00C94793380911804909198
:1056300019040E94E522843F914008F0B2CF809186
:105640001E04882359F385E0F70111928A95E9F742
:1056500010921E04A0916204B0E0A659BB4F85E0F1
:10566000FE013B9601900D928A95E1F7D8CF80918B
:1056700051048F3F31F08F5F809351048A3008F4DA
:10568000BECF0E94F4229093190480931804D7CFC0
:105690000091620410E006591B4FF0E0E659FB4F01
:1056A00085E0A2E3B4E001900D928A95E1F765E010
:1056B00070E082E394E00E94B00E8093310485E0B4
:1056C000E7E3F4E0D80101900D928A95E1F740916B
:1056D000840450E06091830470E061587B4FC701FF
:1056E0000E94F7338B8580933D0461E070E0C70131
:1056F0000E94B00E80933C0480903E0490903F0442
:10570000A0904004B090410480911A0490911B0431
:10571000A0911C04B0911D0488169906AA06BB0628
:10572000D1F080921A0490921B04A0921C04B092B3
:105730001D040E94E91681110EC00E94400E861AB7
:10574000970AA80AB90A8092520490925304A09230
:105750005404B092550486E0E2E4F4E0A4EFB5E02E
:1057600001900D928A95E1F710914804112349F0B8
:105770008091DE04811105C00E947F1880E00E94A4
:105780006F0F1093DE044BCF1F921FB61F92112490
:105790008F939F93AF93BF938091AB05811113C0FB
:1057A0008091AC059091AD05A091AE05B091AF058B
:1057B0004196A11DB11D8093AC059093AD05A093BA
:1057C000AE05B093AF05BF91AF919F918F911F90A0
:1057D0001FBE1F901895CDB7DEB72E970FB6F89461
:1057E000DEBF0FBECDBF85B7806885BF85B7806837
:1057F00085BF84B7877F84BF0FB6F894A895809142
:105800006000886180936000109260000FBE80E8A5
:1058100090E00FB6F89480936100909361000FBE02
:1058200087E691E19093A9028093A8020E94C60C9A
:105830000E94670D8091E20084608093E20078947A
:105840008091BD058823A1F01091E9001F7090910F
:10585000EC00892F817090FD80E8182B1092E900F0
:105860008091E80083FD0E94BD1B1F701093E9002A
:1058700082E084BD93E095BD9AEF97BD80936E0062
:105880001092520410925304109254041092550432
:105890000E94E916809338010E94E91681110E9446
:1058A000E2319091380181E0982790938304282F6A
:1058B000291B209357049091380180938404909180
:1058C00038018093560484988C9A85988D9A8FE835
:1058D00091E00197F1F700C000002091840445E8B1
:1058E00054E0FA018E2F841B821708F4D6C18091F0
:1058F00038018091380195E0811190E09093630424
:1059000085E0891B8093620409E811E0D8018D913C
:105910008D018F3F11F00E946911B1E00E381B0715
:10592000A9F70EE811E084E9E82E81E0F82EF801ED
:1059300081918F018F3F11F00E946911E016F106ED
:10594000B1F78AE0EAE6F4E0DF01282F1D922A95FC
:10595000E9F7E8E5F4E0DF011D928A95E9F790E0C8
:1059600080E00E941834873E9E4F11F00E9445212E
:1059700082E090E00E9410348093740484E090E010
:105980000E941834909367048093660483E090E04B
:105990000E94103490E00E947F141092C7058FEF90
:1059A0009FEF9093E1058093E0059093E30580934A
:1059B000E2059093E5058093E4059093E7058093D5
:1059C000E6059093E9058093E8059093EB058093B5
:1059D000EA059093ED058093EC059093EF05809395
:1059E000EE051092AD049093C7048093C604909383
:1059F000C9048093C8049093CB048093CA04909305
:105A0000CD048093CC049093CF048093CE049093E4
:105A1000D1048093D0049093D3048093D2049093C4
:105A2000D5048093D40490E080E00E941834873E2F
:105A30009E4F21F00E9445210E944F1B81E08093E0
:105A4000F30546E050E06CE170E084EF95E00E94E1
:105A500000341092F3058091F4058C7F11F40E94BC
:105A60004F1B0E94E916811123C182E08093A80494
:105A700080E8809387040E949C306DE070E08FE79F
:105A800096E10E94CC15892BE9F58091A80463E08A
:105A900070E081FD0FC18CE796E10E94CC15892B47
:105AA00089F56DE070E08CE696E10E94CC15892BBB
:105AB00049F50E94400E605A75418F4F9F4F609389
:105AC0009F057093A0058093A1059093A205ECEF2C
:105AD000F5E080E092E0DF019C011D922150304012
