:100000000C94BB0B0C94D80B0C94D80B0C94BC2AFE
:100010000C94D80B0C94D80B0C94D80B0C94D80BD4
:100020000C94D80B0C94D80B0C945C190C941819E4
:100030000C943A240C94D80B0C94D80B0C94D80B39
:100040000C94D80B0C94D80B0C94D80B0C94D80BA4
:100050000C94D80B0C94351A0C94D80B0C94D80B28
:100060000C94D80B0C94D80B0C94D80B0C94D80B84
:100070000C94D80B0C94D80B0C94D80B0C94D80B74
:100080000C94D80B0C94D80B0C94D80B0C94D80B64
:100090000C94D80B0C94D80B0C94D80B0C94D80B54
:1000A0000C94D80B0C94D80B0C94D80B29001E0080
:1000B0001F002000210022002B0014001A0008005D
:1000C00015001700E10004001600070009000A00EF
:1000D000E0001D001B000600190005000000E20002
:1000E000E30001512C00A8002A002700260025006B
:1000F000240023003100130012000C0018001C0023
:10010000340033000F000E000D000B0028003800F3
:10011000370036001000110000004F00500002515F
:100120002C00C35C35003A003B003C003D003E0023
:1001300001003F0040004100420043000100440034
:10014000450000002D002E0201000000000000000C
:100150002D022E000000010001000100010000003E
:100160004C0030002F0000000000000000000000E4
:100170000000000000000000E500CA5CC85CC65C2E
:10018000000000000100CB5CC95CC75CC45C0000DF
:1001900000005100520001000100000035003A004B
:1001A0003B003C003D003E0001003F00400041009C
:1001B0004200430001004400450000002D002E02D3
:1001C00001000000000000002D022E0000000100D0
:1001D00001000100010000004C0030022F0200006D
:1001E00000000000000000000000520000000000BD
:1001F000000000004F00510050000000010000000E
:1002000000000000000000000000000000000100ED
:1002100001000000000000000000000000000000DD
:1002200000000000000000000000000000000000CE
:1002300000000000000000000000000000000000BE
:1002400000000000000001000100010001000000AA
:10025000000000000000000000000000000000009E
:10026000000000000000000000000000000000008E
:10027000000000000000000000000000000000007E
:1002800000000100010001000100000000DA02810D
:10029000FFD9F1DB20A4A62EAF00A0C000A1C800AA
:1002A000AED580A81FD300408D14200000000000B0
:1002B000000000000000000000000000000000003E
:1002C000000000000000000000000000000000002E
:1002D000000000000000000000000000000000001E
:1002E0000000808080404020201008040204081094
:1002F000102020404080800000000000000000002E
:1003000000000000000000000000000000000000ED
:1003100000000000000000000000000000000000DD
:10032000808080804040404020202020000000004D
:1003300000000000000000000000000000000000BD
:1003400000000000000000000000000000000000AD
:100350000000003FC1010102020404040402020182
:10036000010100000000000080000040808040008B
:1003700000303000000000010264180412C2CA24D8
:1003800088F0808040404040202020201010101035
:100390000808080804040404020202020101010121
:1003A000000000000000000000000000000000004D
:1003B000000000000000000000000000000000003D
:1003C000000000000000000000000000000000002D
:1003D0000000E0180601000000000000000000001E
:1003E00000808383404040402021212010101010C5
:1003F00008080808040404040202020201010101C1
:1004000000000000000000000000000000000000EC
:1004100000000000000000000000000000000000DC
:1004200000000000000000000000000000000000CC
:1004300000000000000000000000000000000000BC
:1004400080808080404040402020202010101010EC
:10045000080F0808040404040204081010202040B7
:100460004041422498C088888C9C1C1E0E060000C7
:10047000000000000000000000000000000000007C
:10048000000000000000000000000000000000006C
:10049000000000000000000000000000000000005C
:1004A000000000000000000000000000000000004C
:1004B000000000000000000000000000000000003C
:1004C000000000000000000000000000000000002C
:1004D000000000000000000000000000000000001C
:1004E000000000000000000000000000000000000C
:1004F00000000000000000000000000000000000FC
:1005000000000000000000000000000000000000EB
:1005100000000000000000000000000000000000DB
:1005200000000000000000000000000000000000CB
:1005300000000000000000000000000000000000BB
:1005400000000000000000000000000000000000AB
:10055000000000000000000000000000000080809B
:100560008040402020100804020408101020204081
:10057000408080000000000000000000000000003B
:10058000000000000000000000000000000000006B
:10059000000000000000000000000000808080805B
:1005A00040404040202020200000000000000000CB
:1005B000000000000000000000000000000000003B
:1005C0000000000000000000000000000000003FEC
:1005D000C10101020204844444428201010100007D
:1005E00000000000800000408080400000303000AB
:1005F0000000000102040408081020408080808070
:10060000404040402020202010101010080808080A
:1006100004040404020202020101010100000000BE
:1006200000000000000000000000000000000000CA
:1006300000000000000000000000000000000000BA
:100640000000000000000000000000000000E018B2
:10065000060100000C03000218190005FE808383C8
:1006600040404040202121201010101008080808A8
:10067000040404040408304080800000018698606F
:10068000000000000000000000000000000000006A
:10069000000000000000000000000000000000005A
:1006A000000000000000000000000000000000004A
:1006B000000000000000000000000000808080803A
:1006C000404040402020202010101010080F080843
:1006D00004040404020202020101010100000000FE
:1006E0000000000000000000000000000000000604
:1006F0000F0F07030361F0F8FC600101013C78F87B
:10070000F070000000000000000000000000000089
:1007100000000000000000000000000000000000D9
:1007200000000000000000000000000000000000C9
:1007300000000000000000000000000000000000B9
:1007400000000000000000000000000000000000A9
:100750000000000000000000000000000000000099
:100760000000000000000000000000000000000089
:100770000000000000000000000000000000000079
:100780000000000000000000000000000000000069
:100790000000000000000000000000000000000059
:1007A0000000000000000000000000000000000049
:1007B0000000000000000000000000000000000039
:1007C0000000000000000000000000000000000029
:1007D00000000000000000000000808080404020F9
:1007E00020100804020408101020204040808000DF
:1007F00000000000000000000000000000000000F9
:1008000000000000000000000000000000000000E8
:1008100000000000000000008080808040404040D8
:100820002020202000000000000000000000000048
:1008300000000000000000000000000000000000B8
:1008400000000000000000000000003FC1010102A4
:1008500002048444444282010101000000000000BF
:100860008000004080804000003030000000000127
:100870000264180412C2CA2488F0808040404040BC
:100880002020202010101010080808080404040478
:10089000020202020101010100000000000000004C
:1008A0000000000000000000000000000000000048
:1008B0000000000000000000000000000000000038
:1008C00000000000000000000000E0180601000029
:1008D0000C03000218190005FE808383404040404D
:1008E0002021212010101010080808080404040416
:1008F00002020202010101010000000000000000EC
:1009000000000000000000000000000000000000E7
:1009100000000000000000000000000000000000D7
:1009200000000000000000000000000000000000C7
:1009300000000000000000008080808040404040B7
:100940002020202010101010080F080804040404B0
:10095000020202020101010100000000000000008B
:100960000000000000000000000000000000000087
:100970000000000000000000000000000000000077
:100980000000000000000000000000000000000067
:100990000000000000000000000000000000000057
:1009A0000000000000000000000000000000000047
:1009B0000000000000000000000000000000000037
:1009C0000000000000000000000000000000000027
:1009D0000000000000000000000000000000000017
:1009E0000000000000000000000000000000000007
:1009F00000000000000000000000000000000000F7
:100A000000000000000000000000000000000000E6
:100A100000000000000000000000000000000000D6
:100A200000000000000000000000000000000000C6
:100A300000000000000000000000000000000000B6
:100A400000000000000000000000000000000000A6
:100A50000000008080404040202020202018040218
:100A600001020408102020404080800000000000A7
:100A70000000000000000000000000000000000076
:100A80000000000000000000000000000000000066
:100A900000000000808080804040404020202020D6
:100AA0000000000000000000000000000000000046
:100AB0000000000000000000000000000000000036
:100AC000000000000000003FC10101020204040414
:100AD000040202010000000000000000800000404D
:100AE0008080400000303000000000010204040853
:100AF00008102040808080804040404020202020FE
:100B0000101010100808080804040404020202026D
:100B100001010101000000000000000000000000D1
:100B200000000000000000000000000000000000C5
:100B300000000000000000000000000000000000B5
:100B4000000000000000E0180601000000000000A6
:100B5000000000000080838340404040202121208D
:100B60001010101008080808040404040408304099
:100B700080800000018698600000000000000000F6
:100B80000000000000000000000000000000000065
:100B90000000000000000000000000000000000055
:100BA0000000000000000000000000000000000045
:100BB00000000000808080804040404020202020B5
:100BC00010101010080F0808040404040204081090
:100BD0001020204040414224180000000000000086
:100BE0000000000000000000000000000000000005
:100BF00000000101010000000000000000000000F2
:100C000000000000000000000000000000000000E4
:100C100000000000000000000000000000000000D4
:100C200000000000000000000000000000000000C4
:100C300000000000000000000000000000000000B4
:100C400000000000000000000000000000000000A4
:100C50000000000000000000000000000000000094
:100C60000000000000000000000000000000000084
:100C70000000000000000000000000000000000074
:100C80000000000000000000000000000000000064
:100C90000000000000000000000000000000000054
:100CA0000000000000000000000000000000000044
:100CB0000000000000000000000000000000000034
:100CC0000000000000000000000000000000000024
:100CD0000000808040404020100804020102040807
:100CE0001020408080000000000000000000000094
:100CF00000000000000000000000000000000000F4
:100D000000000000000000000000000000000000E3
:100D10008080808040404040202020200000000053
:100D200000000000000000000000000000000000C3
:100D300000000000000000000000000000000000B3
:100D40000000003FC1010102020404040402020188
:100D50000101000000000000000000800000800091
:100D60000060600000010204040808101020204008
:100D700080808080404040402020202010101010B3
:100D80000808080804040404020202020101010127
:100D90000000000000000000000000000000000053
:100DA0000000000000000000000000000000000043
:100DB0000000000000000000000000000000000033
:100DC0000000C0300C030000000000000000000024
:100DD00000808686404040402122222011111010C0
:100DE0000808080804040404040830408080000057
:100DF0000186986000000000000000000000000074
:100E000000000000000000000000000000000000E2
:100E100000000000000000000000000000000000D2
:100E200000000000000000000000000000000000C2
:100E300080808080404040402020202010101010F2
:100E4000080F0808040404040204081010202040BD
:100E50004041422418000000000000000000000093
:100E60000000000000000000000000000000010180
:100E70000100000000000000000000000000000071
:100E80000000000000000000000000000000000062
:100E90000000000000000000000000000000000052
:100EA0000000000000000000000000000000000042
:100EB0000000000000000000000000000000000032
:100EC0000000000000000000000000000000000022
:100ED0000000000000000000000000000000000012
:100EE0000000000000000000000000000000000002
:100EF00000000000000000000000000000000000F2
:100F000000000000000000000000000000000000E1
:100F100000000000000000000000000000000000D1
:100F200000000000000000000000000000000000C1
:100F300000000000000000000000000000000000B1
:100F400000000000000000000000000000008080A1
:100F50008080404020100804020408102040808057
:100F60000000000000000000000000000000000081
:100F70000000000000000000000000000000000071
:100F80000000000000000000000000008080808061
:100F900040404040202020200000000000000000D1
:100FA0000000000000000000000000000000000041
:100FB0000000000000000000000000000000007EB3
:100FC0008202020404080808080404020101000067
:100FD0000000000000000080000080000060600051
:100FE0000101020404080810102020408080808045
:100FF0004040404020202020101010100808080811
:1010000004040404020202020101010100000000C4
:1010100000000000000000000000000000000000D0
:1010200000000000000000000000000000000000C0
:101030000000000000000000000000000000C030C0
:101040000C03000000000000000000000080868605
:1010500040404040212222201111101008080808A9
:101060000404040404083040808000000186986075
:101070000000000000000000000000000000000070
:101080000000000000000000000000000000000060
:101090000000000000000000000000000000000050
:1010A0000000000000000000000000008080808040
:1010B000404040402020202010101010080F080849
:1010C000040404040204081010202040404142247B
:1010D00018000000000000000000000000000000F8
:1010E00000000000000000000000010101000000FD
:1010F00000000000000000000000000000000000F0
:1011000000000000000000000000000000000000DF
:1011100000000000000000000000000000000000CF
:1011200000000000000000000000000000000000BF
:1011300000000000000000000000000000000000AF
:10114000000000000000000000000000000000009F
:10115000000000000000000000000000000000008F
:10116000000000000000000000000000000000007F
:10117000000000000000000000000000000000006F
:10118000000000000000000000000000000000005F
:10119000000000000000000000000000000000004F
:1011A000000000000000000000000000000000003F
:1011B000000000000000000000000000000000002F
:1011C000000000000000000000008080808040409F
:1011D0002010080402040810204080800000000055
:1011E00000000000000000000000000000000000FF
:1011F00000000000000000000000000000000000EF
:1012000000000000000000008080808040404040DE
:10121000202020200000000000000000000000004E
:1012200000000000000000000000000000000000BE
:10123000000000000000000000001C34C40404048E
:10124000080808080804040201010000000000006A
:101250008000004080804000003030000101020228
:1012600004040408081020408080808040404040F2
:10127000202020201010101008080808040404047E
:101280000202020201010101000000000000000052
:10129000000000000000000000000000000000004E
:1012A000000000000000000000000000000000003E
:1012B00000000000000000000000E018060100002F
:1012C0000000000000000000008083834040404098
:1012D000202121201010101008080808040404041C
:1012E0000408304080800000018698600000000003
:1012F00000000000000000000000000000000000EE
:1013000000000000000000000000000000000000DD
:1013100000000000000000000000000000000000CD
:1013200000000000000000008080808040404040BD
:101330002020202010101010080F080804040404B6
:1013400002040810102020404041422418000000F0
:10135000000000000000000000000000000000008D
:10136000000000000000010101000000000000007A
:10137000000000000000000000000000000000006D
:10138000000000000000000000000000000000005D
:10139000000000000000000000000000000000004D
:1013A000000000000000000000000000000000003D
:1013B000000000000000000000000000000000002D
:1013C000000000000000000000000000000000001D
:1013D000000000000000000000000000000000000D
:1013E00000000000000000000000000000000000FD
:1013F00000000000000000000000000000000000ED
:1014000000000000000000000000000000000000DC
:1014100000000000000000000000000000000000CC
:1014200000000000000000000000000000000000BC
:1014300000000000000000000000000000000000AC
:10144000000000808040404020202020201804021E
:1014500001020408102020404080800000000000AD
:10146000000000000000000000000000000000007C
:10147000000000000000000000000000000000006C
:1014800000000000808080804040404020202020DC
:10149000000000000000000000000000000000004C
:1014A000000000000000000000000000000000003C
:1014B0000000000000060D31C1010101020202041A
:1014C0000402020100000000000000008000004053
:1014D0008080400000303000000000010204040859
:1014E0000810204080808080404040402020202004
:1014F0001010101008080808040404040202020274
:1015000001010101000000000000000000000000D7
:1015100000000000000000000000000000000000CB
:1015200000000000000000000000000000000000BB
:10153000000000000000E0180601000000000000AC
:101540000000000000808383404040402021212093
:10155000101010100808080804040404040830409F
:1015600080800000018698600000000000000000FC
:10157000000000000000000000000000000000006B
:10158000000000000000000000000000000000005B
:10159000000000000000000000000000000000004B
:1015A00000000000808080804040404020202020BB
:1015B00010101010080F0808040404040204081096
:1015C000102020404041422418000000000000008C
:1015D000000000000000000000000000000000000B
:1015E00000000101010000000000000000000000F8
:1015F00000000000000000000000000000000000EB
:1016000000000000000000000000000000000000DA
:1016100000000000000000000000000000000000CA
:1016200000000000000000000000000000000000BA
:1016300000000000000000000000000000000000AA
:10164000000000000000000000000000000000009A
:10165000000000000000000000000000000000008A
:10166000000000000000000000000000000000007A
:10167000000000000000000000000000000000006A
:1016800000000000000000000000000000AF00AEFD
:1016900005010980A101850319012AB7001501265A
:1016A000B700950175108100C0050C0901A10185E5
:1016B0000419012AA002150126A0029501751081C6
:1016C00000C005010906A101050719E029E7150079
:1016D00025019508750181029501750881010507AD
:1016E000190029FF150026FF0095067508810005E1
:1016F0000819012905950575019102950175039158
:1017000001C009023B00020100A0FA090400000127
:101710000301010009211101000122400007058198
:101720000308000109040100010300000009211160
:10173000010001223200070582032000011201008E
:101740000200000008D8042DEB0001010200010E88
:10175000034C0069006C007900350038000000106F
:10176000036C0069006C00690075006D0073000077
:1017700000040309040011241FBECFEFDAE0DEBF2E
:10178000CDBF11E0A0E0B1E0ECEEF8E502C00590BD
:101790000D92AC39B107D9F725E0ACE9B1E001C051
:1017A0001D92A03DB207E1F70E9461240C945E2CCB
:1017B0000C940000CF93DF934091CE055091CF055C
:1017C0004E5C53409A0124583D4F21303240C0F0C6
:1017D00020E032E0241B350B6091CC037091CD03E7
:1017E000FC01CA01240F351FC1E0D0E08217930726
:1017F00050F07093CD036093CC03DF91CF910895A7
:101800002CE732E0E9CF4491DC01A253BC4F5C915C
:10181000451781F04C93AC01A5E056954795AA95E4
:10182000E1F7DE0102C0AA0FBB1F4A95E2F7AD0146
:101830006A2B752B01963196D9CFE8EDF0E08081C7
:101840008E7F80831092E2001092DA001092E10005
:10185000A0EEB0E08C9181608C9380818F77808343
:1018600019BCA7EDB0E08C918E7F8C9380818F7E28
:1018700080831092B20308952091E4003091E50036
:1018800095E6A9012091EC00822F817020FF06C00F
:101890008091E80080FF06C080E008952091E80074
:1018A00022FD1AC08091BF03882389F0853089F01A
:1018B0008091EB0085FD0FC02091E4003091E500A0
:1018C00042175307F9F29150E1F684E0089582E05F
:1018D000089583E0089581E00895EF92FF920F93B9
:1018E0001F93CF937C018B010E943C0CC82F811168
:1018F00017C08091E80085FD0BC08091E8008E77CD
:101900008093E8000E943C0C882399F3C82F08C0FC
:10191000F70181917F018093F1000150110949F78E
:101920008C2FCF911F910F91FF90EF900895809190
:10193000C10387FF13C08091E80082FF06C0809139
:10194000E8008B778093E80004C08091BF03811189
:10195000F2CF08958091BF038823D9F38091E800E6
:1019600080FFF8CF8091E8008E77ECCF982F90938E
:10197000E900242F762F50E0891731F07091EC00A8
:101980002091ED005091F00021FD07C09F5F97303E
:1019900071F78093E90081E008953091EB003E7F7C
:1019A0003093EB003091ED003D7F3093ED003091AE
:1019B000EB0031603093EB007093EC002093ED006E
:1019C0005093F0002091EE0027FDE0CF80E00895D5
:1019D000CF92DF92EF92FF920F931F93CF93DF93FB
:1019E000C8EDD0E088818F7E8883E7EDF0E08081CC
:1019F0008160808384E082BF81E08093B20388812C
:101A00008E7F888302EE10E0F80110821092DA00D7
:101A100081EEC82ED12CF601108288818F778883C1
:101A200088818068888388818F7D888319BC109223
:101A3000BF031092C0031092BE031092BD0390EE3C
:101A4000E92EF12CF70180818B7F80838881816072
:101A5000888342E060E080E00E94B60CF60180815D
:101A60008E7F8083F801808181608083808188609F
:101A70008083F70180818E7F808388818061888365
:101A8000DF91CF911F910F91FF90EF90DF90CF905A
:101A90000895FC018091C7039091C80386179707AA
:101AA000A0F06115710529F49091E8009E7790935C
:101AB000E80090E06115710551F4911108C0809122
:101AC000E80082FF34C080E00895BC01F2CF80912D
:101AD000BF038823C1F18530C1F18091E80083FD07
:101AE00030C08091E80082FDEACF8091E80080FF5D
:101AF000E1CF8091F3002091F200382F611571053C
:101B000019F02830310558F091E02830310509F0FE
:101B100090E02091E8002E772093E800CBCF8191D0
:101B20008093F100615071092F5F3F4FE7CF8091A3
:101B3000BF03882341F0853041F08091E80083FFA6
:101B4000BECF81E0089582E0089583E0089508956E
:101B500008958091B40308952FB7F8946091AB0372
:101B60007091AC038091AD039091AE032FBF0895A7
:101B70009C01FC0132969FEF80E04191461751F0A5
:101B80009F3F19F4411101C0982F8F5F8630A9F74C
:101B90009F3F09F40895290F311D97FD3A95F901EA
:101BA000628308952091A8033091A903281739076B
:101BB00071F09093A9038093A803E091A603F0919C
:101BC000A703309721F00084F185E02D0994089552
:101BD0002091A4033091A5032817390771F0909341
:101BE000A5038093A403E091A603F091A703309787
:101BF00021F00680F781E02D09940895FC01680F1B
:101C0000791F8FEF91E32191822728E030E087FF51
:101C100009C0880F892721503109C9F7E617F7074E
:101C200091F70895880FF7CF80E00895789408958C
:101C3000F894E82FE295EF70F0E031A1282F2F7093
:101C400081E090E001C0880F2A95EAF7982F9095DF
:101C5000932391A392A1892B82A30C94160E9091A9
:101C60005D0292FF06C0282F28712830F9F4877F83
:101C7000846093FF06C0282F28712831F1F4877EF5
:101C8000846120915E0220FF06C0382F3871383001
:101C9000D9F4877F816021FF06C0282F2871283161
:101CA000D1F4877E816194FD877E0895282F247169
:101CB0002430F9F68B7F8860DCCF282F2471243103
:101CC00001F78B7E8861DDCF382F3171313019F704
:101CD0008E7F8860E0CF282F2171213121F78E7E01
:101CE0008861E1CFCF93DF93EC0182389105A9F1B0
:101CF000D8F58133910509F496C048F589329105EC
:101D000009F48AC08A9709F495C0C11522E5D20763
:101D100008F0B6C0C11531E5D30708F026C1C83EAA
:101D2000D10508F09CC0C03ED10560F5C83AD10588
:101D300008F087C0C53AD10508F0EFC0C130D10521
:101D400009F12097F9F0C430D105E0F440C08533A3
:101D5000910509F45AC0C997C1F680915D0283705C
:101D600089F0C0EED0E00EC0833E910599F170F489
:101D7000803E910501F1823E910539F680915D0228
:101D800082FD21C0CE01DF91CF910895863E91055D
:101D900061F1873E910571F1843E910509F0B5CF5F
:101DA00080915E0281FFEECF80915D02C7EED0E0B0
:101DB00084FD0DC0E7CF80915D0280FD07C1909149
:101DC0005E0290FFDFCFC3EED0E084FFDBCFD0E038
:101DD000C0E0D8CF80915D0282FDFBC090915E0291
:101DE00090FDBFCF84FFCECFF2CF80915D0283FD07
:101DF000DDCFC8CF80915D0283FDEEC090915E0281
:101E000091FFF0CFC4EED0E0BDCF80915D0285FFA1
:101E1000B9CFC9E2D0E0B6CF80915D0285FFB2CFE5
:101E2000C5E3D0E0AFCF80915D0286FFABCFCAE2C1
:101E3000D0E0A8CF80915D0286FFA4CFC1E3D0E0BF
:101E4000A1CFCF3BD10518F6C85AD0E0CC0FDD1F8B
:101E5000C85BDE4F0990D881C02DD46493CFC115E3
:101E600040E5D40708F064C0C11580E4D80708F045
:101E70005CC0CE019A9581159F4108F483CFA7CF0E
:101E8000C11536E5D30718F5C11545E5D40708F0A7
:101E900084C0C11584E5D80708F07AC09C2F9695B8
:101EA00096959E0123703327C115D34508F462C06F
:101EB000C1E0D0E002C0CC0FDD1F2A95E2F730E28E
:101EC000939FC0011124C82BD92BDA685BCFC115B1
:101ED0008AE5D80778F4C11599E5D90708F068C0F4
:101EE000C11528E5D20708F472CFDC2FCC27C06FCC
:101EF000D06A48CFCE0190568115904208F067CF46
:101F00008D2F8F710E942F0E90E0982F88278827A1
:101F10009F719C012C2BE90149C0C55AD0E0CB5BD5
:101F2000DE4FC881D0E0D0642DCFDF70D06A2ACFD9
:101F3000CE01E4E096958795EA95E1F783702C2F22
:101F400026952695237040E2249F90011124382B7A
:101F50008C2F8370C1E0D0E002C0CC0FDD1F8A95CA
:101F6000E2F7C22BD32BDC680DCFDC2FCC27C16F5F
:101F7000D06A08CFC1E0D0E002C0CC0FDD1F2A95A7
:101F8000E2F720E2929FC0011124C82BD92BEBCF9E
:101F9000DC2FCC27C46FD06AF5CE8C2F0E942F0E79
:101FA000C82FD0E0DC2FCC27CC27DF71D062EACE5F
:101FB0008C2F8F700E942F0E34E0D695C7953A95DE
:101FC000E1F7CF709C2FEC01D069DCCEC9E3D0E003
:101FD000D9CEC2EED0E0D6CEC6EED0E0D3CE0C94B1
:101FE000AC0D809112028111109212020895809519
:101FF0009091110298239093110208958091060206
:102000009091D501981301C008958F5F8770FACF22
:10201000AF92BF92CF92DF92EF92FF920F931F93F6
:10202000CF93DF93C0905902D0905A02E0905B02A8
:10203000F0905C02409113025091140260911502DD
:1020400070911602C42AD52AE62AF72ACFE1D0E0F9
:10205000082F10E026E0929F000D111D11249CE333
:10206000A92EBC2ED701C6010C2E04C0B695A7958B
:10207000979587950A94D2F780FD0FC0219788F72E
:10208000B12C8B2DDF91CF911F910F91FF90EF908D
:10209000DF90CF90BF90AF900895AC9EF001AD9EC1
:1020A000F00D1124E00FF11FEE0FFF1FE455FF4F5D
:1020B000859194910E94720E019701F3E2CFCF9324
:1020C000DF93EC010E940810EC2FF0E096E0D99F1E
:1020D000E00DF11D11249CE3899FE00DF11D1124F9
:1020E000EE0FFF1FE455FF4F85919491DF91CF9143
:1020F0000C94720EE92FEE0FE90FEE0F8E0F982F52
:10210000977086958695869525E0829FF00111242B
:10211000E955FE4F50E040E080E0219130E0092E8B
:1021200002C0369527950A94E2F721703327042ED2
:1021300001C0220F0A94EAF7822B4F5F5F4F4530B0
:10214000510559F70895E92FEE0FE90FEE0F8E0FA5
:10215000982F977041E001C0440F9A95EAF7869551
:102160008695869595E0899FF0011124E955FE4FEB
:1021700030E020E070E05191DF011197CB01022E99
:1021800002C0969587950A94E2F78170819585271C
:10219000842385278C932F5F3F4F2530310559F7D6
:1021A0000895FC01808191810E945F1092959F703B
:1021B000963091F058F4925F9F70923058F4803FBF
:1021C00019F030F4883E30F481E008959A5FF4CF3E
:1021D000843FD1F380E00895883EB0F3813FD1F78A
:1021E000F3CFCF92DF92EF92FF920F931F93CF9393
:1021F000DF936C017B0164E670E088E70E9413299D
:10220000EC0197FD12C010E000E0F601E00FF11FB5
:10221000849164E670E00E948D29EC01892B29F4F9
:102220000F5F1F4F0E151F0581F70E94102ACE0168
:10223000DF91CF911F910F91FF90EF90DF90CF90A2
:1022400008958091A2039091A303911103C091E09E
:1022500089270895882369F062E070E08EE896E1AE
:102260000E94F110892B19F08091A2030895109219
:10227000A2038091A203EBCFCF93C091A2038091E0
:10228000A3038823D1F00E94AC0D605A75418F4F93
:102290009F4F60939E0370939F038093A00390933E
:1022A000A103C11108C062E070E08CE896E10E94D1
:1022B000F110892B29F0C091A2038C2FCF910895A2
:1022C00081E08093A203F7CF8093AF037093B103B3
:1022D0006093B0038091BF03843001F582E0809366
:1022E000E9008FEF9091E800815095FD06C095EDD3
:1022F0009A95F1F700008111F5CF8091E80085FFF4
:102300000DC050E040E063E070E08FEA93E00E948F
:102310006D0C8091E8008E778093E8000895BC01F1
:1023200084E00C946411BC0183E00C946411CF939D
:10233000DF93EC0181E08093E9008FEF9091E8005A
:10234000815095FD06C095ED9A95F1F70000811139
:10235000F5CF8091E80085FF14C050E040E068E0D0
:1023600070E0CE010E946D0C8091E8008E77809322
:10237000E80088E0FE01A5EBB3E001900D928A959C
:10238000E1F7DF91CF9108959F92AF92BF92CF92E4
:10239000DF92EF92FF920F931F93CF93DF937C0115
:1023A0005B016A018091480201E010E08A3010F47C
:1023B0000AE010E0C1E0D0E0F894B501C701F601F1
:1023C0000995982E0E94160E911004C021960C17A4
:1023D0001D076CF4892DDF91CF911F910F91FF9014
:1023E000EF90DF90CF90BF90AF909F900895CC9FDB
:1023F0009001CD9F300D300D112490E080E045E339
:102400004A95F1F70000019682179307C1F7D4CFE0
:1024100080912102811110C08091D8008061809349
:10242000D8008AE18A95F1F700C08091D90080FF39
:102430000AC081E08093210281E0909121029130D5
:1024400009F080E0089582E0809321020E941D0C33
:102450001092BF03F1CF0E940812882351F0E0913F
:10246000A603F091A703309721F00190F081E02DB1
:10247000099480E00895CF9384E090E00E941C2CA2
:10248000C82F82E290E00E941C2C982F8C2FCF91B5
:1024900008950F931F93CF93DF9300D000D0CDB753
:1024A000DEB740914402509145026091460270911E
:1024B00047022FB7F8948091AB039091AC03A091A1
:1024C000AD03B091AE032FBF841B950BA60BB70BCA
:1024D00011E084369105A105B10590F10E94081222
:1024E0008823C1F10E94AC0D6E5F7F4F8F4F9F4FCD
:1024F00069837A838B839C838091290190912A013F
:102500008D5C9D4F4091280150E04530510510F001
:1025100044E050E0BE016F5F7F4F0E94132C85E0C6
:1025200090E00E94622B182F882351F00E94AC0D7E
:102530006093440270934502809346029093470251
:10254000812F0F900F900F900F90DF91CF911F91DF
:102550000F9108950E94AC0D0091490210914A021A
:1025600020914B0230914C02600F711F821F931F0C
:10257000BBCF4F925F927F928F929F92AF92BF920A
:10258000CF92DF92EF92FF920F931F93CF93DF933F
:102590000F92CDB7DEB7C62E4A015901482E880FDB
:1025A0005508C2010E94622B782E882309F480C04E
:1025B000C20133E0880F991F3A95E1F7FC01E05022
:1025C000FF4F438150E04115510511F041E050E0CB
:1025D00080509F4FFC01648175816D5C7D4FCE0101
:1025E00001960E94132CF401408151816281738114
:1025F0002FB7F8948091AB039091AC03A091AD03F9
:10260000B091AE032FBF841B950BA60BB70B84367E
:102610009105A105B10540F4B701C8010E94FE0D66
:102620009981891709F444C00C2C000CDD08C601FF
:102630000E94622B782E811113C0712C872D0F9070
:10264000DF91CF911F910F91FF90EF90DF90CF908E
:10265000BF90AF909F908F907F905F904F90089524
:10266000C60123E0880F991F2A95E1F7FC01E0508D
:10267000FF4F438150E0E416F50608F4A7018050AF
:102680009F4FFC01648175816D5C7D4FC5010E9487
:10269000132CB701C8010E94FE0D99818913CDCF7B
:1026A0000E94AC0DF4016083718382839383C6CF53
:1026B000A701B801C5010E94132CC0CFCF92DF92B1
:1026C000EF92FF920F931F93CF93DF9300D000D030
:1026D0000F92CDB7DEB76B0185E0E82EF12C04E355
:1026E00012E09E012F5F3F4F47E252E061E080E041
:1026F0000E94B912882349F095E0FE013196A2E2CA
:10270000B2E001900D929A95E1F795E0E2E2F2E0F5
:10271000D60101900D929A95E1F70F900F900F90CE
:102720000F900F90DF91CF911F910F91FF90EF903D
:10273000DF90CF9008950F931F93CF93DF93EC0119
:1027400045E050E069E372E00E94062C00912B0204
:1027500010912C0220912D0230912E02EFB7F894A7
:102760004091AB035091AC036091AD037091AE0307
:10277000EFBF401B510B620B730B443651056105D3
:10278000710510F4892B41F1809111019091120192
:102790008D5C9D4F4091100150E04630510510F086
:1027A00045E050E0BE010E94132C82E090E00E94C0
:1027B000622BC82F882351F00E94AC0D60932B022E
:1027C00070932C0280932D0290932E028C2FDF9118
:1027D000CF911F910F910895C1E0F8CF8091110220
:1027E00090911002892B80939E019091120299235F
:1027F00091F0892B80939E0120E080EA91E0FC011A
:102800003191CF0131112F5FF1E0863A9F07B9F77F
:1028100021110E94F10F48E050E068E072E08EE97B
:1028200091E00E94062C892BA9F088E0EEE9F1E006
:10283000A8E0B2E001900D928A95E1F7E091A6033D
:10284000F091A703309731F00280F381E02D8EE9FB
:1028500091E00994089590E080E00E94E80D90E0F6
:1028600080E00E94D20D109210020C94EE130F9390
:102870001F938B019C0106701127222733270630F6
:1028800011052105310569F4686060935902709360
:102890005A0280935B0290935C021F910F910C94FB
:1028A0002B14677FF2CF0F931F9341E050E060E05D
:1028B00070E004C0440F551F661F771F8A95D2F73A
:1028C000CB01BA0160957095809590950091590261
:1028D00010915A0220915B0230915C0260237123B7
:1028E000822393231F910F910C9437149091070228
:1028F0008095892380930702282F277091F4282F31
:10290000082E000C330B9217130659F090915E02BB
:1029100092FD07C08595859585950E945314109268
:10292000070208950F931F9341E050E060E070E0CC
:1029300004C0440F551F661F771F8A95D2F78091F8
:10294000590290915A02A0915B02B0915C028A01F7
:102950009B01082B192B2A2B3B2BC901B8011F9176
:102960000F910C94371460931302709314028093A8
:102970001502909316020C942B1410921102E0EAA7
:10298000F1E086E0DF011D928A95E9F70C942B14A3
:102990001F93CF93DF93CDB7DEB7AA970FB6F89406
:1029A000DEBF0FBECDBF81EC93E02091F100FC01B2
:1029B0002193CF01F3E0893C9F07B9F78091C203CF
:1029C000833009F470C0B8F4813009F447C0823014
:1029D00009F4B1C08091E80083FF7EC28091C103F9
:1029E0009091C2039A3008F077C2E92FF0E0E05AE4
:1029F000F34D0C94002C8A3009F48CC08B3009F410
:102A00006FC0893039F78091C103813219F7809105
:102A1000C5039091C6030297E8F68091E800877F8E
:102A20008093E8008091E80082FF38C09091F30025
:102A30008091F200029731F48091F100813011F021
:102A4000863021F48091F1008093B4038091E800F6
:102A50008B778093E8000E94970CBCCF8091C103D4
:102A6000813A09F0B7CF8091E800877F8093E80032
:102A70008091C5039091C603892B61F468E085EBD2
:102A800093E070E00E94490D8091E8008B7780937D
:102A9000E800A0CF60E090E080E0F3CF8091BF033A
:102AA0008111C0CF97CF8091C103813A09F092CFB5
:102AB0008091C5039091C603892B09F08BCF80913B
:102AC000E800877F8093E8008091E80080FFFCCFDA
:102AD000809144018093F1008091E8008E77B9CF16
:102AE0008091C103813209F075CF8091C503909127
:102AF000C603892B09F06ECF8091E800877F809311
:102B0000E8000E94970C8091C303809344010E94C7
:102B1000BD1460CF8091C103813209F05BCF8091F9
:102B2000E800877F8093E8000E94970C8091C4039F
:102B30008093B3034FCF8091C103813A09F04ACF0C
:102B40008091E800877F8093E8008091E80080FF13
:102B5000FCCF8091B303BECF803899F0823809F062
:102B6000BBC18091C5038F70873008F0B5C18093D9
:102B7000E9008091EB0085FB882780F91092E9003D
:102B800006C08091BD039091BE0391118260909127
:102B9000E800977F9093E8008093F1001092F10095
:102BA0008091E8008E7794C1882309F482C1823035
:102BB00009F092C18091C303811185C18091C50341
:102BC0008F702FEF280F263008F086C18093E90020
:102BD0002091EB0020FF77C1933031F48091EB001E
:102BE00080628093EB006FC19091EB0090619093B5
:102BF000EB0021E030E001C0220F8A95EAF7209334
:102C0000EA001092EA008091EB008860EACF81111F
:102C100063C11091C3031F778091E3008078812BFB
:102C20008093E3008091E800877F8093E8000E9412
:102C3000970C8091E80080FFFCCF8091E3008068D2
:102C40008093E30082E0111183E08093BF0344C1CD
:102C50008058823008F040C18091C3039091C40332
:102C60008C3D23E09207A1F583E08A838AE2898381
:102C70004FB7F894DE01139620E03EE051E2E32FD7
:102C8000F0E050935700E49120FF03C0E295EF700D
:102C90003F5FEF708E2F90E0EA30C0F0C7968D93C3
:102CA0009D932F5F243159F74FBF8091E800877FB4
:102CB0008093E8006AE270E0CE0101960E94490D1F
:102CC0008091E8008B778093E80006C1C096E7CF3B
:102CD0004091C5035091C603292F33272330310576
:102CE00009F444C078F52130310509F46FC08BE355
:102CF00090E0E2E0F7E12230310509F0EDC02091EB
:102D0000E800277F2093E8002091C7033091C80393
:102D10008217930708F49C0140E02115310509F062
:102D200064C0411162C08091E80082FDC9CF8091EA
:102D3000BF03882329F2853019F28091E80083FFD0
:102D4000F2CFBECF21323105A9F12232310509F08F
:102D5000C3C04115510509F443C04130510509F084
:102D6000BBC082E390E0E0E9F6E1C9CF992781306A
:102D70009105C1F0009759F0029709F0ADC0EFE45A
:102D8000F7E1E4918E2F90E0EFE4F7E107C0E1E78F
:102D9000F7E1E4918E2F90E0E1E7F7E1009709F485
:102DA0009BC0ADCFEFE5F7E1E4918E2F90E0EFE52A
:102DB000F7E1F4CF4115510571F04130510509F0AB
:102DC0008BC089E090E0EDE2F7E199CF82E190E0FD
:102DD000EDE3F7E194CF89E090E0E4E1F7E18FCF14
:102DE00080E490E0E2ECF6E18ACF8091BF03882393
:102DF00009F466CF853009F463CF8091E80083FD44
:102E00005FCF8091E80082FD8ECF8091E80080FF47
:102E100084CF9091F3008091F2002115310519F0D3
:102E20008830910550F041E0089709F040E080912A
:102E3000E8008E778093E80070CF44914093F100D2
:102E40003196215031090196E8CF803809F044C00D
:102E50008091E800877F8093E8008091C003809391
:102E6000F1009ECE811138C01091C3031230A0F53D
:102E70008091E800877F8093E8001093C0030E9450
:102E8000970C112311F084E005C08091E30087FDC9
:102E9000FACF81E08093BF0342E061EC81E00E94C1
:102EA000B60C42E261EC82E00E94B60C8091BF0356
:102EB00013C08091C303813079F481E0933009F02D
:102EC00080E08093BE031092E9008091E800877F44
:102ED0008093E8000E94970C8091E80083FF0AC06D
:102EE0008091E800877F8093E8008091EB0080620A
:102EF0008093EB00AA960FB6F894DEBF0FBECDBF4D
:102F0000DF91CF911F910895882321F00E94F70F40
:102F10000C94EE130895882339F090911102982BA8
:102F2000909311020C94EE130895882381F19CEF85
:102F3000980F913A78F4E0EAF1E026EA31E09191D5
:102F4000891303C0DF0111971C922E173F07B9F7B1
:102F50000C94EE1390E2980F983050F4877091E043
:102F600001C0990F8A95EAF7892F0E94F70FF0CFD9
:102F70009BE5980F933020F490E080E00C94E80DEE
:102F8000885A873120F490E080E00C94D20D0895A7
:102F9000CF93C82F882309F44EC08CEF8C0F813A51
:102FA000F8F4E0EAF1E086EA91E0DF012D91C21742
:102FB00059F08A179B07D1F76C2F8EE991E00E9498
:102FC000B80DCF910C94EE132191C21303C0DF0111
:102FD00011971C928E179F07B9F70E94EE13ECCF42
:102FE00080E28C0F883068F4C77021E030E001C0C7
:102FF000220FCA95EAF780911102822B8093110269
:10300000E0CFEBE5EC0FE33040F4F0E0EB5BFE4F9C
:10301000808190E0CF910C94E80DC85AC73158F4E4
:10302000EC2FF0E0EE0FFF1FE85BFE4F80819181F7
:10303000CF910C94D20DCF9108951F93CF93DF932E
:10304000182FEB010E94C817209731F4812FDF91D0
:10305000CF911F910C9495178FE99FE00197F1F79D
:1030600000C000002197F0CFCF92DF92EF92FF9245
:103070000F931F93CF93DF930F92CDB7DEB7EE245C
:10308000E394F12C0FE312E09E012F5F3F4F4FE2DC
:1030900052E064E083E00E94B912082F882339F1DE
:1030A000C0905F028C2D90E09C0125593D4F790125
:1030B0001981F9018081181BD12E80E00DC0DA94AE
:1030C000F70180818F5F8083C11005C070E060E0F0
:1030D0008AEA0E941D18802F1D148CF3912F17FD72
:1030E00090E0191B11110EC081110E94EF0F802F6B
:1030F0000F90DF91CF911F910F91FF90EF90DF9094
:10310000CF9008951F5FF701808181508083C110A7
:1031100005C070E060E089EA0E941D18802FE2CFB0
:1031200069EE7EEF90E080E00E94482C60E082E053
:1031300090E00E942A2C60E083E090E00E942A2C1C
:10314000109213021092140210921502109216029D
:1031500060E084E090E00E942A2C60E082E290E04F
:103160000E942A2C60E085E090E00E942A2C60E01A
:1031700086E090E00E942A2C6FEF87E090E00E94AA
:103180002A2C40E050E0BA0188E090E00E943C2CFC
:1031900060E08DE090E00E942A2C40E050E0BA010F
:1031A00088E190E00E943C2C60E087E190E00E9482
:1031B0002A2C40E050E0BA018CE190E00E943C2CC7
:1031C00070E060E080E290E00E94482C40E050E037
:1031D000BA0188E190E00E943C2C40E050E0BA0146
:1031E0008FE090E00E943C2C40E050E0BA0183E187
:1031F00090E00C943C2CCF93C0915E02C2FB9927C7
:1032000090F9981799F080FBC2F9C0935E02609123
:103210005D0284E090E00E942A2C6C2F82E290E014
:103220000E942A2C82E0CF910C947614CF910895BD
:103230001F920F920FB60F9211242F933F934F932B
:103240005F936F937F938F939F93AF93BF93CF932E
:10325000DF93EF93FF93D091E900DF708091EC0052
:10326000C82FC17080FDC0E81092E9008091F00085
:10327000877F8093F00078940E94C8141092E90030
:103280008091F00088608093F000CD2BCF70C093C8
:10329000E900FF91EF91DF91CF91BF91AF919F91A5
:1032A0008F917F916F915F914F913F912F910F90EF
:1032B0000FBE0F901F9018951F920F920FB60F928E
:1032C00011242F933F934F935F936F937F938F932B
:1032D0009F93AF93BF93EF93FF938091E10082FFA1
:1032E00009C08091E20082FF05C08091E1008B7FE0
:1032F0008093E1008091DA0080FF24C08091D800A3
:1033000080FF20C08091DA008E7F8093DA00809168
:10331000D90080FF9DC080E189BD82E189BD09B4EB
:1033200000FEFDCF81E08093BF038091B203811145
:1033300009C00E941D0C0E94E80C8091E20084608C
:103340008093E2008091E10080FF17C08091E2004D
:1033500080FF13C08091E2008E7F8093E200809115
:10336000E20080618093E2008091D80080628093C7
:10337000D80019BC85E08093BF038091E10084FFF1
:103380002BC08091E20084FF27C080E189BD82E1EB
:1033900089BD89B5982F917080FFFBCF8091D800AF
:1033A0008F7D8093D8008091E1008F7E8093E10033
:1033B0008091E2008F7E8093E2008091E200816044
:1033C0008093E2008091C003882309F447C084E021
:1033D0008093BF038091BF038091E10083FF27C0EA
:1033E0008091E20083FF23C08091E100877F80937A
:1033F000E10082E08093BF031092C0038091E1005E
:103400008E7F8093E1008091E2008E7F8093E200C6
:103410008091E20080618093E20042E060E080E021
:103420000E94B60C8091F00088608093F000FF91BC
:10343000EF91BF91AF919F918F917F916F915F912C
:103440004F913F912F910F900FBE0F901F901895A5
:1034500019BC1092BF031092B20374CF8091E300A5
:1034600087FD93E09093BF03B5CF78941F921FB66A
:103470001F9211248F939F93AF93BF938091AB03BF
:103480009091AC03A091AD03B091AE030196A11D44
:10349000B11D8093AB039093AC03A093AD03B093A5
:1034A000AE03BF91AF919F918F911F901FBE1F9050
:1034B00018959C014FB7F8948091AB039091AC03A1
:1034C000A091AD03B091AE034FBF821B930B089543
:1034D0002FB7F8948091AB039091AC03A091AD030A
:1034E000B091AE032FBF08950F931F93CF93DF9337
:1034F000C62FD42F022FFC0182818823A1F0609374
:10350000CB030E94681A9093CA038093C903C770C3
:1035100081E001C0880FCA95EAF7DF91CF911F9132
:103520000F910C948B178091CB03681337C0809157
:10353000C9039091CA030E94591A883C910570F5FD
:1035400010E21D0FCD17B9F080E28C0F883040F4E7
:10355000C77081E001C0880FCA95EAF70E948417FE
:10356000183048F481E09D2F977001C0880F9A951C
:10357000EAF70E948B1770E060E0802F0E941D1810
:10358000183098F4D77081E001C0880FDA95EAF717
:10359000DF91CF911F910F910C948417C77081E038
:1035A00001C0880FCA95EAF7F3CFDF91CF911F9141
:1035B0000F9108954F925F926F927F928F929F9298
:1035C000AF92BF92CF92DF92EF92FF920F931F9331
:1035D000CF93DF9300D000D00F92CDB7DEB77C0140
:1035E000FC0183819481892B39F01081D180812F56
:1035F0008D218F3F09F085C40F900F900F900F9091
:103600000F90DF91CF911F910F91FF90EF90DF907E
:10361000CF90BF90AF909F908F907F906F905F9072
:103620004F9008950E940810082F682F89819A8171
:103630000E94A310E12FF0E026E0D29EE00DF11DE4
:1036400011243CE3039FE00DF11D1124EE0FFF1F39
:10365000E455FF4F05911491043F8CE5180709F4D8
:103660009CC0D0F5093DECE51E0709F492C00A3D67
:10367000FCE51F0709F49DC0083D2CE51207D1F5B4
:1036800026E241EE61EEC7010E94741A80910702A2
:10369000877009F4B1CFF7018281882309F4ACCF98
:1036A00080915E0282FDA8CF82E00F900F900F9074
:1036B0000F900F90DF91CF911F910F91FF90EF909E
:1036C000DF90CF90BF90AF909F908F907F906F9042
:1036D0005F904F900C947614063F3CE5130709F475
:1036E00064C008F45EC027E245EE66EE073F9CE545
:1036F000190749F2F7018281882309F413C4109253
:10370000CB030430FDE51F0708F056C00B3F2CE546
:10371000120730F4C80182509C45449708F056C007
:103720000E943B1290935E0280935D0201319CE502
:10373000190709F421C108F09FC00930FCE51F07F3
:1037400009F404C108F06CC005303CE5130709F426
:10375000F5C008F052C003309CE5190709F4E4C035
:1037600008F0E8C080915D02816002301C4509F4D8
:10377000DEC060915D0210915E0284E090E00E94E4
:103780002A2C612F82E290E00E942A2C0E94BD1414
:103790007DCF27E245EE65EE76CF26E241EE60EE84
:1037A00072CF27E245EE64EE6ECF26E241EE62EE86
:1037B0006ACF28E241E0EFCF02363DE5130709F476
:1037C000AFCF063A8DE5180709F4AACF06312CE5EC
:1037D000120709F0BDC3809111028A7A91E009F4C1
:1037E00090E09093A60169E2811165E38EE991E092
:1037F0000E94B80D0E94EE1349CF80915D02806255
:1038000007302CE5120709F492C080915D028061B7
:1038100008301C4508F48BC080915D02806487C02D
:103820000D308CE5180709F49BC098F480915D0277
:103830008E7F0B30ECE51E0709F479C080915D02A4
:103840008C600C301C4508F472C080915D028D7F45
:103850006EC080915D028F7E0F302CE5120709F457
:1038600066C080915D02877F00311C4508F45FC00F
:1038700080915D028F7D5BC00E3F8CE5180709F4D7
:1038800077C050F50531ECE51E0709F47FC098F4C8
:1038900080915D02837F03312CE5120709F447C054
:1038A00008F46EC00E94BD1490915D02892F97FBB1
:1038B00087F980583CC00C3F8CE5180709F442C0DA
:1038C00008F052C080915E0281600B3F1C4509F0F8
:1038D00050CF80935E024DCF0230FDE51F0709F403
:1038E00061C090F480915E028C7F01153DE5130765
:1038F00081F390F180915E02982F909591708E7F68
:10390000892B90FB81F9E5CF02369DE5190709F473
:103910004FC0063AEDE51E0709F451C003301D45BE
:1039200009F027CF60E03FC080915D028260809304
:103930005D021FCF80915D028460F9CF80915D02AE
:103940008860F5CF80915E028260C3CF0E94BD1473
:1039500080915D028068EBCF80915E028360B9CF79
:1039600080915D028B7FE3CF80915E028E7FB1CF2D
:1039700080915E028D7FADCF80915D028F7BD7CF2E
:103980000E94BD1480915D028F77D1CF80915D023E
:1039900082FB992790F921E0922790FB82F990FB16
:1039A00083F9C5CF61E08EE090E00E942A2CE1CE41
:1039B00090915D02892F8F7E94FF8061B8CF9091A6
:1039C0005D02892F8E7F90FF8160B1CF85E3B2C207
:1039D0000E94BD143FEF84E39CE031508040904052
:1039E000E1F700C0000087E797E790930108809314
:1039F000000888E19AE00FB6F894A89580936000DB
:103A00000FBE90936000FFCF81E0C2C280E0C0C2D1
:103A1000812F902F0E947A10D82ECDC2212F2F7087
:103A2000C22E107F19F0C29420EFC222DD20B9F01F
:103A3000CC2069F080E2800F883010F0811009C03E
:103A400080911102C82AC09211020E94EE13802FA9
:103A50004BC080911002C82AC0921002F6CF802F6E
:103A60000E949517CC2009F441C0005E083010F088
:103A7000811004C08C2D0E94F70F06C0C094809165
:103A80001002C822C09210020E94EE132FC0312FE4
:103A90003F70C32E107F103219F0C29490EFC922EC
:103AA000882089F081E0881609F488C0DD2009F4B7
:103AB00092C0992009F488C0F701858180FFC7CFA3
:103AC0008F70858381C020915E0222FF54C0DD206B
:103AD00009F44AC0CC2039F080911102C82AC09262
:103AE00011020E94EE1380E00E94C817EA2DE850F0
:103AF000FF0B349710F40E942B12BB20A9F0809189
:103B0000070280FD11C0F701128285958595859584
:103B10000E949214C7010E94DA1A809107028595CB
:103B2000859585950E94531485E0F701DE01119675
:103B300001900D928A95E1F789819A810E947A100D
:103B40009A81E981F0E026E0929FE00DF11D1124B9
:103B50003CE3839FE00DF11D1124EE0FFF1FE455A0
:103B6000FF4F8591949148CD80E00E949517CC201D
:103B700009F4BCCF7FCFDD20A1F0909112028C2DF3
:103B8000892B911003C00E948B17B0CFE1E09E12E9
:103B9000FACF22FDABCF981709F4A8CF8093120279
:103BA000A5CF911006C00E94F10F8C2D0E948417A2
:103BB0009DCFF1E09F1609F499CFF5CFDD2031F0CC
:103BC00025E0291508F492CF8C2DDDCF34E039158E
:103BD00008F48CCFEACF992041F3F9E38F128AC120
:103BE0002FEF37EE83E0215030408040E1F700C0F6
:103BF000000080C1812F86958695837061F08130A9
:103C000009F074CFC8019370D11002C090E080E039
:103C10000E94D20D6BCFC8019370D11002C090E00A
:103C200080E00E94E80D62CF812F837009F066C0AA
:103C3000D1105CCF802F829586958770880F880F72
:103C4000602F6F70462E512C712C612C082E04C0F1
:103C5000440C551C661C771C0A94D2F740E050E0D7
:103C6000BA0104FF0FC04FE050E060E070E004C014
:103C7000440F551F661F771F8A95D2F740955095C0
:103C800060957095812F869586958370823019F1A5
:103C9000D8F4009113021091140220911502309172
:103CA0001602813069F04429552966297729CB010C
:103CB000BA0160237123822393230E94B31416CF89
:103CC000402A512A622A732ACB01BA016429752934
:103CD00086299729F2CF4429552966297729009109
:103CE0001302109114022091150230911602CB019B
:103CF000BA016027712782279327DFCF8695DD20C1
:103D000011F0812F8170882309F4F0CE802F8295E5
:103D100086958770880F880F602F6F70462E512C04
:103D2000712C612C082E04C0440C551C661C771C99
:103D30000A94D2F740E050E0BA0104FF0FC04FE010
:103D400050E060E070E004C0440F551F661F771F0D
:103D50008A95D2F74095509560957095812F8695FC
:103D600086958370823019F1D8F400915902109130
:103D70005A0220915B0230915C02813069F0442943
:103D8000552966297729CB01BA0160237123822343
:103D900093230E943714AACE402A512A622A732AFA
:103DA000CB01BA016429752986299729F2CF4429C4
:103DB0005529662977290091590210915A022091BC
:103DC0005B0230915C02CB01BA0160277127822728
:103DD0009327DFCF1F70DD2029F0812F0E949214DE
:103DE000802FD1CE802F0E948417812F0E945314E0
:103DF0007DCE802F92EF891609F43FC0981570F0A0
:103E0000E0EF8E16D1F0F1EF8F1691F0DD2009F47E
:103E10006CC091101CCE812F8F7133C023EF82169E
:103E200099F134EF8312F2CF80915E0282FF3FC09E
:103E3000812F8F71DD20D1F224C0DD20C9F084E014
:103E4000891508F453CE1F7161E070E080E090E0C6
:103E500004C0660F771F881F991F1A95D2F700912B
:103E6000590210915A0220915B0230915C02ADCF51
:103E700095E0991508F43ACEE6CF812F8F71D110D5
:103E8000B5CF0E94921432CE60E070E0CB01DD200D
:103E900009F47FCF1F7161E070E080E090E004C022
:103EA000660F771F881F991F1A95D2F772CFDD20F2
:103EB00089F01F71812F0E94921480915E0282FD11
:103EC00007C0E8E01E9FC0011124836080930702B1
:103ED000812FD7CF81E00E947614F1E0F91508F028
:103EE00005CE82E00E94761401CE992039F0893304
:103EF00009F476CE802F0E949517F8CD812F8F710F
:103F000075CF85E0DE01119601900D928A95E1F75B
:103F1000F701228189819A81211184CB0E947A1034
:103F2000082F88CB06311C45A9F58091A601811187
:103F30004DCD89E2E0EAF1E026EA31E09191891382
:103F400003C0DF0111971C922E173F07B9F752CC1F
:103F50000B352DE5120709F457CD58F401158CE502
:103F6000180709F435CD0F3D1C45A1F40E949018A7
:103F70008DCB0C35EDE51E0709F448CD0D351D45FB
:103F800049F480915E0282FB882780F991E08927BD
:103F90000E94FB18F701828110810181882309F4B6
:103FA00037CD812F902F0E940810D82E682F812F97
:103FB000902F0E94A310E12FF0E026E0029FE00D79
:103FC000F11D11243CE3D39EE00DF11D1124EE0FF1
:103FD000FF1FE455FF4F859194910E94720E8C0152
:103FE000882EF701D280958092945FE0952280918F
:103FF00007028770C1F0BD2CDD20B1F0812F807FDA
:10400000803421F080E2800F883068F080915E0279
:1040100082FD09C082E00E947614809107028770B9
:10402000BB24B3948111B12CA12EA2943FE0A32212
:10403000FBE0FA1508F45ACDEA2DF0E0E659F34D0D
:104040000C94002C1F93CF93DF938091D401807F39
:10405000A9F48091D101882389F080910602D09142
:10406000D5016091CF017091D001A091D201B091A2
:10407000D301C62FC72316E0D81304C0DF91CF9118
:104080001F91089590E0109711F0CF3F19F4019619
:104090008770F2CF189F9001199F300D1124F901FC
:1040A000EA52FE4F41814713F2CF40814613EFCFD2
:1040B00042814111ECCF438154814A1B5B0B483C48
:1040C000510528F78091D4018F7080618093D401CD
:1040D000F901E552FE4F80818F70806180838FEC03
:1040E00091E00E94DA1ADF91CF911F910C94FE0F9C
:1040F000AF92BF92CF92DF92EF92FF920F931F93F6
:10410000CF93DF93CDB7DEB761970FB6F894DEBFDC
:104110000FBECDBF8C0185E0F801DE011D96019038
:104120000D928A95E1F7F801E2808FECA82E81E0EC
:10413000B82E6091D2017091D3016115710509F417
:1041400032C19091CF014091D001892F84238F3FBC
:1041500009F429C120813181C380D480F090D1013C
:10416000F601E61BF70BFF2009F4E8C08091D401AB
:10417000582F507FE83CF10508F0ABC0511177C0D3
:10418000FE2C431321C092131FC0E1101DC08F707D
:1041900080618093D401C5010E94DA1A8091D40114
:1041A000F80185838F2D61960FB6F894DEBF0FBEA0
:1041B000CDBFDF91CF911F910F91FF90EF90DF90D6
:1041C000CF90BF90AF900895CD2829F0822F832300
:1041D0008F3F09F003C180E0F82FF170DF2E80FFE0
:1041E0003CC0809106024091D50156E0841315C071
:1041F0002D873E878D859E850E945F10292F2295F1
:104200002F702230F0F0243018F59F70F1F0F80193
:104210009581907FD1F4D12C1EC090E0589FF00181
:10422000599FF00D1124EA52FE4F6181361306C0EA
:104230006081261303C06281E6120FC00196877069
:10424000D5CF9F7011F0882331F3805E883018F34A
:10425000C8010E94DA1AFD2CA5CFEE2009F4A2CFE6
:104260008091D40181608093D401F12C9BCF4313C2
:1042700006C0921304C0F801EE2009F479C0C80109
:104280000E94D110882309F1EE20F9F08091D40129
:10429000803270F02091CF013091D00138872F8388
:1042A0001986DB86CA868C87CE0107960E94DA1AA9
:1042B00086E0F801AFECB1E001900D928A95E1F74C
:1042C0000E942220FF24F3946DCFC8010E94DA1AC5
:1042D000F9CF51110AC08FEC91E00E94DA1A86E002
:1042E000F50111928A95E9F7C0CF43130FC09213DD
:1042F0000DC0E1100BC0F8018583C8010E94DA1AD5
:1043000086E0F50111928A95E9F74CCFC8010E9429
:10431000D1108823D1F2EE20C1F28091D4018032F5
:1043200038F22091CF013091D0013A8329831B824A
:10433000DD82CC828E83CE010196B8CFE83CF105B8
:10434000F8F6FE2CEE2009F243131FC092131DC095
:104350008091D40180FD10C0982F907F69F0F80102
:104360008583903F31F0982F907F905F8F70892BDD
:104370008583C8010E94DA1A86E0F801AFECB1E04B
:1043800001900D928A95E1F70DCFC8010E94D110DE
:1043900081118ECF8091D40181608093D401C801B6
:1043A0000E94DA1AFFCEEE2009F48FCFC8010E94D6
:1043B000D110F82E882309F488CF86E0F801AFECFD
:1043C000B1E001900D928A95E1F78091CF01909133
:1043D000D0010E945F100E942220E4CE81E08E2551
:1043E000FBCE1F93CF93DF93CDB7DEB767970FB6A2
:1043F000F894DEBF0FBECDBF4B8B5C8B6D8B7E8B7D
:104400008F8B6111109210021A8A198A85E0FE01C1
:104410007396DE011D9601900D928A95E1F786E074
:10442000FE013D96DE01179601900D928A95E1F707
:10443000CE0107960E947820882389F016E08091AB
:1044400006029091D501891349C067960FB6F8947A
:10445000DEBF0FBECDBFDF91CF911F91089586E0E3
:10446000FE013796DE01119601900D928A95E1F7D3
:104470008A859B85892B11F38F81988589238F3FAE
:10448000E9F22091D50130E0C901019687709927A2
:10449000409106024817190671F40E94BD1410924B
:1044A000D5011092060286E0EFECF1E0DF011D92EB
:1044B0008A95E9F7C3CF96E0929FD001939FB00D04
:1044C0001124AA52BE4FFE01319601900D929A9589
:1044D000E1F78093D5010E94FE0FB0CF819FC0010C
:1044E00011248A529E4F0E947820882309F4ADCF70
:1044F0008091060290E001968770992780930602CA
:104500009ECF7F928F929F92AF92BF92CF92DF9277
:10451000EF92FF920F931F93CF93DF93CDB7DEB748
:104520002F970FB6F894DEBF0FBECDBF8E010F5F81
:104530001F4F8AE0D8011D928A95E9F788E7C82EB7
:1045400081E0D82EF12CE12CAA24A394B12C23E8ED
:10455000822E21E0922EF60181916F018F3F09F4A6
:1045600043C0F894E82FE295EF70F0E021A18F703E
:10457000A50102C0440F551F8A95E2F7CA01922F88
:10458000982B91A392A18095892382A30E94160E55
:1045900000C0EDE7F1E0712C31E021912F3F09F4EB
:1045A0007AC0A22FA295AF70B0E090968C9190E067
:1045B0002F7002C0959587952A95E2F780FD6BC014
:1045C000832F782A330F8E169F0639F7F60131971D
:1045D00080818F3F11F00E94180E50EA5A95F1F732
:1045E000F801EE0DFF1D70828FEFE81AF80A95E0D2
:1045F000E916F10409F0AFCF4AE050E0B8018DE4CC
:1046000092E00E94062C7C01892B41F08AE0F8019F
:10461000ADE4B2E001900D928A95E1F71091580255
:10462000E114F104D1F181E0809319020E94681A2B
:1046300090931802809317028091170290911802AC
:104640000E94591A059778F0ADE4B2E0E12FF0E04E
:10465000E059FD4F82E592E02D9121938A179B0747
:10466000D9F71092190281E090E0EF28D1F02F964F
:104670000FB6F894DEBF0FBECDBFDF91CF911F9173
:104680000F91FF90EF90DF90CF90BF90AF909F90F1
:104690008F907F90089580E094CF809119028111CE
:1046A000CBCF0E940812D82EE0915802DE011B9653
:1046B0007D01882309F473C085E01D928A95E9F78E
:1046C0000E2F10E000591D4F809148028A30A0F54E
:1046D0004EE553E1B701C8010E94C4118823D9F106
:1046E0004BE953E1B701C8010E94C411882399F135
:1046F00044E358E1B701C8010E94C411882359F16D
:1047000049E452E1B701C8010E94C411882319F19C
:10471000109248028091570290E045E050E0B701C6
:1047200080599D4F0E94062C21E020932002892B66
:1047300049F5D12C8D2D9BCF80911A0290911B02AF
:104740000E94591A843F914018F6809120028111ED
:1047500012C080E08CCF809148028F3F29F08F5F9C
:10476000809348028A30B0F20E94681A90931B022C
:1047700080931A02EACF85E0F70111928A95E9F752
:1047800010922002A0915702B0E0A059BD4F85E0E1
:10479000FE013B9601900D928A95E1F7CBCFF0E0B8
:1047A000E059FD4F0091570210E000591D4FF89459
:1047B00085E0A4E3B2E001900D928A95E1F765E00F
:1047C00070E084E392E00E94FE0D809333020E9429
:1047D000160EF89485E0E9E3F2E0D80101900D921D
:1047E0008A95E1F70E94160EF894E0916E02F0E0CF
:1047F000E559FD4F80818B8780933F0261E070E037
:10480000C7010E94FE0D80933E020E94160EF8948E
:10481000C0904002D0904102E0904202F0904302EA
:1048200080911C0290911D02A0911E02B0911F0266
:10483000C816D906EA06FB06D1F0C0921C02D09237
:104840001D02E0921E02F0921F020E9408128111C6
:104850000EC00E94AC0DC61AD70AE80AF90AC09227
:104860004902D0924A02E0924B02F0924C020E941E
:10487000160E6FCF1F921FB61F9211248F939F9316
:10488000AF93BF938091AA03811113C08091AB03B2
:104890009091AC03A091AD03B091AE034196A11DE0
:1048A000B11D8093AB039093AC03A093AD03B09381
:1048B000AE03BF91AF919F918F911F901FBE1F902C
:1048C0001895CDB7DEB72E970FB6F894DEBF0FBEA2
:1048D000CDBF84B7877F84BF0FB6F894A895809129
:1048E0006000886180936000109260000FBE80E8D5
:1048F00090E00FB6F89480936100909361000FBE32
:1049000085B7806885BF85B7806885BF84E19EE0F4
:1049100090939D0180939C010E941D0C0E94E80CC5
:104920008091E20084608093E20078948091BF03DC
:104930008823A1F01091E9001F709091EC00892F5D
:10494000817090FD80E8182B1092E9008091E800BA
:1049500083FD0E94C8141F701093E90082E084BD9B
:1049600093E095BD9AEF97BD80936E001092490237
:1049700010924A0210924B0210924C020E940812AE
:10498000809330010E94081281110E94752A809143
:1049900030018091300195E0811190E090935802B0
:1049A00085E0891B8093570208E711E02DE7E22E8E
:1049B00021E0F22ED8018D918D018F3F11F00E94E0
:1049C000180EE016F106B1F70DE711E0F80181913C
:1049D0008F018F3F11F00E94180EF1E003381F077E
:1049E000A9F78AE0E0E7F2E0DF01282F1D922A957F
:1049F000E9F7EDE4F2E0DF011D928A95E9F790E036
:104A000080E00E94242C893E9E4F11F00E94901855
:104A100082E090E00E941C2C809360020E943B1276
:104A200090935E0280935D0283E090E00E941C2CD4
:104A3000682F70E090E080E00E94B3140E9408129A
:104A4000811150C182E08093990380E880937103C3
:104A50000E940D296DE070E08FE992E00E94F11054
:104A6000892BE9F58091990363E070E081FD3CC1F9
:104A70008CE992E00E94F110892B89F56DE070E0DD
:104A80008CE892E00E94F110892B49F50E94AC0D50
:104A9000605A75418F4F9F4F60939E0370939F03A1
:104AA0008093A0039093A103EEECF3E080E092E00A
:104AB000DF019C011D9221503040E1F7F093CF05BA
:104AC000E093CE058FEF9FEF9093CD038093CC03BF
:104AD00081E08093A3038093A20310929A038498A9
:104AE0008C9A85988D9A8FE891E00197F1F700C034
:104AF00000008FB1829581707D99F9C090E0892B7B
:104B000080936F029091300181E0982790936E021C
:104B1000891B80935F020E940812811102C00E94CB
:104B2000782A81E391E09093A7038093A603809174
:104B3000BF03853049F48091BF03853009F4D9C0A3
:104B40000E94BD140E942B120E948122F82E811116
:104B50000E94AC0D90E7692E92E0792EE1E6F2E03A
:104B6000D30110E000E0B02EDD9081918D1509F4A5
:104B700000C18D25C12CEE24E394982F9E2109F4C9
:104B8000F3C00E940812882399F0C982BA82DE20FD
:104B900081E009F480E08B830E94681A8160782F9D
:104BA0009D838C8349815A816B818D810E94F12183
:104BB000F801EF59FD4F8081E826E0820E9408123B
:104BC000E0916F02EE0FEE0FE0936F028FB18295CE
:104BD00081708B871C867D99E3C080E0AB85BC85A6
:104BE0008A2BE82BE0936F0210916E02EF70F0E0D9
:104BF000ED57FE4F808190916D02890F80936D0279
:104C0000812C853084F0E12FF0E0E559FD4F808163
:104C10008F5F8083111105C070E060E08AEA0E9416
:104C20001D188824839480916D028C3F84F4E12FB9
:104C3000F0E0E559FD4F808181508083111105C05E
:104C400070E060E089EA0E941D18882483948091B6
:104C50006D02082E000C990B65E070E00E94EC2BB1
:104C600080936D0281100E94EF0F1091A303112316
:104C700051F180919B0390919C030E94591AC29715
:104C800008F091C02091CC033091CD03211531055E
:104C900009F0D7C18091A2038823A9F00E94AC0D2E
:104CA00000919E0310919F032091A0033091A103D6
:104CB000601B710B820B930B6F3F7F4F8F4F9F4792
:104CC00010F40E942111F11001C081100E943C11CA
:104CD0000E942B1290919D03891709F428CF80938D
:104CE0009D0325CF80E0AFCE89E992E0C3CE92E06C
:104CF00006CF8091BF03843031F10E9421111092C0
:104D0000AA0388E190E0A0E40FB6F894A8958093F8
:104D100060000FBEA093600083B7817F846083BF73
:104D200083B7816083BF7894889583B78E7F83BF74
:104D30000FB6F894A8958091600088618093600018
:104D4000109260000FBE8091BE03882309F4F3CE59
:104D50000E948122E0E7F2E08191811146C2B2E037
:104D6000EA37FB07C9F7E7CEC394EE0C26E0C21280
:104D700004CF0F5F1F4F0A30110509F0F4CE8FEFFB
:104D80008E838F8318860E94681A8160782F9A8795
:104D900089874E815F8168858A850E94F1210ECFC7
:104DA00082E090E01BCF0E94681A90939C0380934E
:104DB0009B038EEC93E09093CF058093CE050E94E9
:104DC000081281118BC0E3EFF2E00BE7202E02E026
:104DD000302E8BE6C82E83E0D82E9101CF01DC0166
:104DE0004C91D9014C93DC0111964C91D90111964B
:104DF0004C9302962E5F3F4FC816D90681F7EE24DA
:104E0000E39450E040E000E0AA24A394B12CD30145
:104E10004D903D01512C30E020E0802F820F90E03A
:104E200099249394920EB501022E02C0660F771F4B
:104E30000A94E2F764217521880F991F8D509D4FC8
:104E4000DC01672B09F450C0EC9211969C924F5FE5
:104E50005F4F2F5F3F4F26303105F9F60A5FE3942D
:104E60000C33A9F600937A0250936C0340936B03C2
:104E70008081882359F08181882341F0D1018C9170
:104E8000811104C011968C91882341F03296B2E0D2
:104E90002B0E311CCE16DF0659F710E080917803F7
:104EA000813061F1882321F1823009F44BC08EEC0E
:104EB00093E09093CF058093CE0580917803813065
:104EC00009F49AC0882309F44DC0823009F499C0CE
:104ED0008EEC93E09093CF058093CE058091A30351
:104EE000882309F4D7CECECE1C9211961C92B1CF56
:104EF0001123E9F282E080937803D9CF1111FACF20
:104F000040916D0350916E0360916F037091700337
:104F10002FB7F8948091AB039091AC03A091AD03AF
:104F2000B091AE032FBF841B950BA60BB70B8E3E23
:104F30009240A105B10508F4BACF109278031092FF
:104F40007703B5CF1111B3CF81E0809378030E942E
:104F5000AC0D60936D0370936E0380936F03909319
:104F60007003A5CF8091770324E030E0281B31093E
:104F700037FF03C03195219531094CE752E0249F5A
:104F8000C001259F900D349F900D1124805E954F98
:104F90000E94DA0B40917303509174036091750382
:104FA000709176032FB7F8948091AB039091AC0386
:104FB000A091AD03B091AE032FBF841B950BA60B40
:104FC000B70B8C349105A105B10508F481CF809110
:104FD000770390E0019665E070E00E94EC2B8093EF
:104FE00077030E94AC0D60937303709374038093F6
:104FF0007503909376036CCF84EA97E00E94DA0BF6
:1050000067CF0091720310E021E030E0201B310BEC
:1050100037FF03C03195219531094CE752E0249FB9
:10502000C001259F900D349F900D112484559D4FF4
:105030000E94DA0B0F5F1F4F01701127009372035C
:1050400047CF80919A0361E070E0811123CE082F51
:1050500010E02B01082E02C0440C551C0A94E2F704
:10506000A90144215521452B09F448C09091990389
:1050700090FD46C08295880F807680933F0198010D
:10508000369527953695279520934201815E80932A
:1050900040011092430124E630E047E050E06DE328
:1050A00071E088E70E94BC29892B09F0F3CDA801A3
:1050B00025E0440F551F2A95E1F78091990380FD63
:1050C0002DC042535C4F04E610E020E230E060E483
:1050D00088E70E94E329892B09F0DCCD0E943C116E
:1050E000C201809590954090CC035090CD0348220A
:1050F00059225092CD034092CC03CCCD8F5FA7CFE5
:10510000880F880F880F80933F0110924201895FBA
:105110008093400183E080934301BDCFE9E7F3E052
:1051200080E2DF011D928A95E9F7E7E9F1E0FE8769
:10513000ED8703E911E08BE9A82E81E0B82E97E016
:10514000692EAD85BE852D91BE87AD87F801219072
:105150008F01240E352E311CC10182539C4F1C013E
:10516000E22FF0E0E758FC4F30E020E0762C721A96
:10517000EE24E394022E01C0EE0C0A94EAF76101DA
:1051800090E0D6018D916D018E21672D691B6770AE
:10519000962E062E000C770BB82F01C0BB0F9A94E9
:1051A000EAF79B2E7195619571096770772701C0A9
:1051B00086956A95EAF7982A8081982A90829F5F5F
:1051C0009830F9F62F5F3F4F31962830310571F650
:1051D000ED85FE85AE16BF0609F0B3CF04E610E0FC
:1051E00020E230E049E753E072CF20E129BD32E10F
:1051F00039BD09B400FEFDCF8091D8008F7D80932A
:10520000D8008091E00082608093E0008091E0000F
:1052100081FDFCCF0E94BD148ECC1092B9008CE0B1
:105220008093B80008959F92AF92BF92CF92DF9281
:10523000EF92FF920F931F93CF93DF93B82EEB0162
:105240000E94681A6C01EE24E394F12CC431D1055C
:1052500060F025E0E22EF12CCF3FDC0731F0CE01EB
:1052600064E170E00E94D82B7B0184EAA82E94E8C8
:10527000992E1092BC00A092BC000E94681A8C016A
:105280008091BC0087FF0DC08091B900887F883075
:1052900039F18091B900887F803111F10FEF1FEF54
:1052A00009C00E94681A801B910B8E159F0540F360
:1052B0000EEF1FEFCF3FDC07E1F2C6010E94591A43
:1052C0008C179D07B0F2C801DF91CF911F910F910C
:1052D000FF90EF90DF90CF90BF90AF909F90089598
:1052E000B092BB009092BC000E94681A8C01809121
:1052F000BC0087FF0AC08091B900887F883111F017
:10530000803461F610E000E0DECF0E94681A801B56
:10531000910B8E159F0558F3CBCF0F931F93CF930F
:10532000DF93EB018093BB0084E88093BC000E9474
:10533000681A8C018091BC0087FF11C02091B900D0
:10534000287F81E090E0283211F490E080E0919590
:1053500081959109DF91CF911F910F910895CF3FD2
:10536000DC0741F30E94681A801B910B8C179D0784
:1053700008F38EEF9FEFEECFCF92DF92EF92FF9286
:105380000F931F93CF93DF936B018A017901B901CA
:105390000E941329E6010C0D1D1DC017D10761F4F1
:1053A00024E92093BC00DF91CF911F910F91FF90D2
:1053B000EF90DF90CF90089597FDF2CFB7018991DC
:1053C0000E948D29EACFCF92DF92EF92FF920F9346
:1053D0001F93CF93DF93C62F6A017901B8010E9412
:1053E000132997FD0CC0B8018C2F0E948D29E6016E
:1053F000EC0CFD1CCE15DF0511F097FF0CC024E965
:105400002093BC00DF91CF911F910F91FF90EF90FF
:10541000DF90CF900895B80189910E948D29EACF3D
:1054200084E98093BC0008958EE14A9B02C08150BC
:10543000E1F74A9BFECF08955A9880E28A95F1F7EA
:105440005A9A0895FC013BE03A95F1F798E020E084
:1054500080E031E040E14A95F1F7880F4A9B02C0B5
:105460008160232742E04A95F1F7000040E14A9528
:10547000F1F7915079F790E19A95F1F799B132E00F
:105480003A95F1F7000040E14A95F1F792FB992730
:1054900090F992272081920F90830895EF92FF92C6
:1054A0000F931F93CF93DF930F92CDB7DEB719827F
:1054B0008C017C01E60EF11C0E151F0561F481E0E4
:1054C0009981911180E00F90DF91CF911F910F9101
:1054D000FF90EF9008950E94142ACE0101960E9439
:1054E000222AF80181938F01E7CF529A5A9A0895A0
:1054F00052985A9AEA9AE9E6F0E080818F7C80839C
:1055000008956150770B91E001C0990F6A95EAF711
:1055100020E031E0911108C0222391F05A9A80E2F4
:105520008A95F1F75A980895492F482339F05A9AE5
:10553000232740E24A95F1F79695ECCF5A98F9CF98
:105540005A98EDCFFF920F931F93CF93DF93EC0107
:105550008C01060F111DC017D10731F4DF91CF91D7
:105560001F910F91FF900895F9900E941C2A68E006
:105570008F2D0E94812AEFCF1F920F920FB60F92AC
:1055800011240F931F932F933F934F935F936F9328
:105590007F938F939F93AF93BF93EF93FF93CF939B
:1055A000DF930F92CDB7DEB719820E94142ACE0185
:1055B00001960E94222A082F069506950695282F07
:1055C00022952570902F9570290F922F9370269514
:1055D0002695920F982797708981982B09F05CC0C7
:1055E000073008F059C080E18A95F1F75A9A529A2B
:1055F00082E08A95F1F700C05A9888E0089F800100
:105600001124D801A050BF4F1696ED91FC91179729
:105610003097A9F0609176017091770114962D91E1
:105620003C911597260F371F11968D919C911297DB
:10563000680F791F13964C9113978C910995F80177
:10564000E050FF4F6381662351F020917601309145
:10565000770184819581820F931F0E94A22A0E9464
:105660001C2A80E18A95F1F75A9852985A9A80E15B
:105670008A95F1F7F801E050FF4F6081662351F001
:10568000209176013091770181819281820F931F61
:105690000E944E2A0E94142A0F90DF91CF91FF9111
:1056A000EF91BF91AF919F918F917F916F915F919A
:1056B0004F913F912F911F910F910F900FBE0F901F
:1056C0001F9018950F931F93CF93DF93EC010797CB
:1056D0000CF04CC0F894529A5A9885E08A95F1F7EC
:1056E00000009C2F969595708C2F8570980F892FB0
:1056F00083709695969523E0CC0FDD1F2A95E1F7F0
:10570000980F8E01092B0E941C2A00C068E0802F90
:105710000E94812A80E18A95F1F752985A9A4A9B11
:105720001EC087E090E04A991CC0FE01E050FF4F88
:1057300063816623F9F020917601309177018481AD
:105740009581820F931F0E944E2A811113C0529A95
:105750005A9A7894DF91CF911F910F91089500C0CC
:10576000DECF019729F4529A5A9A789480E0F2CFCA
:1057700000C0D9CF0E94142A80E28A95F1F75A9886
:10578000529A80E18A95F1F7C050DF4F6881662315
:1057900051F0209176013091770189819A81820FB1
:1057A000931F0E94A22A0E941C2A789481E0D2CFE3
:1057B000AA1BBB1B51E107C0AA1FBB1FA617B70737
:1057C00010F0A61BB70B881F991F5A95A9F7809553
:1057D0009095BC01CD01089597FB072E16F4009417
:1057E00007D077FD09D00E94D82B07FC05D03EF4E6
:1057F000909581959F4F0895709561957F4F08957D
:10580000EE0FFF1F0590F491E02D0994FB01DC01E0
:1058100004C08D910190801921F441505040C8F787
:10582000881B990B0895FB01DC0102C001900D92C9
:1058300041505040D8F70895F999FECF92BD81BDEF
:10584000F89A992780B50895A8E1B0E042E050E0C9
:105850000C94502C262FF999FECF92BD81BDF89A59
:10586000019700B4021639F01FBA20BD0FB6F894A4
:10587000FA9AF99A0FBE08950396272F0E942B2CAF
:105880000E942A2C252F0E942B2C242F0C942B2C89
:105890000196272F0E942B2C0C942A2CDC01CB0183
:1058A000FC01F999FECF06C0F2BDE1BDF89A319630
:1058B00000B40D9241505040B8F70895F894FFCFCE
:1058C000AC15D4156C17D4156C17071628166C1761
:1058D000251732170E1D0E1D471D471DFA1D761D7B
:0C58E000761D761D141EEA1EF91EF91E2E
:1058EC0000000001000000000000000501000000A5
:1058FC000506000000000000000000010B00000085
:10590C00000000010C000000040D0000000000006D
:10591C0001A90D9711A80D93118F11A70D0021004E
:10592C007F22000301818283E200E900EA00B500D6
:10593C00B600B700CD008301CC008A01920194011E
:10594C002102230224022502260227022A02B30086
:10595C00B4006F00700033026697C63435F6F73129
:10596C0033323600FF0100010000FFFF0000010090
:0C597C0001FF00000810181810080000BF
:00000001FF
